{
	"src/3_TokenBank.sol": {
		"TokenBank": {
			"abi": [
				{
					"inputs": [
						{
							"internalType": "address",
							"name": "target",
							"type": "address"
						}
					],
					"name": "AddressEmptyCode",
					"type": "error"
				},
				{
					"inputs": [
						{
							"internalType": "address",
							"name": "account",
							"type": "address"
						}
					],
					"name": "AddressInsufficientBalance",
					"type": "error"
				},
				{
					"inputs": [],
					"name": "FailedInnerCall",
					"type": "error"
				},
				{
					"inputs": [
						{
							"internalType": "address",
							"name": "token",
							"type": "address"
						}
					],
					"name": "SafeERC20FailedOperation",
					"type": "error"
				},
				{
					"anonymous": false,
					"inputs": [
						{
							"indexed": true,
							"internalType": "address",
							"name": "token",
							"type": "address"
						},
						{
							"indexed": true,
							"internalType": "address",
							"name": "user",
							"type": "address"
						},
						{
							"indexed": false,
							"internalType": "uint256",
							"name": "amount",
							"type": "uint256"
						}
					],
					"name": "Deposit",
					"type": "event"
				},
				{
					"anonymous": false,
					"inputs": [
						{
							"indexed": true,
							"internalType": "address",
							"name": "token",
							"type": "address"
						},
						{
							"indexed": true,
							"internalType": "address",
							"name": "user",
							"type": "address"
						},
						{
							"indexed": false,
							"internalType": "uint256",
							"name": "amount",
							"type": "uint256"
						}
					],
					"name": "Withdraw",
					"type": "event"
				},
				{
					"inputs": [
						{
							"internalType": "address",
							"name": "",
							"type": "address"
						},
						{
							"internalType": "address",
							"name": "",
							"type": "address"
						}
					],
					"name": "balances",
					"outputs": [
						{
							"internalType": "uint256",
							"name": "",
							"type": "uint256"
						}
					],
					"stateMutability": "view",
					"type": "function"
				},
				{
					"inputs": [
						{
							"internalType": "address",
							"name": "token",
							"type": "address"
						},
						{
							"internalType": "uint256",
							"name": "amount",
							"type": "uint256"
						}
					],
					"name": "deposit",
					"outputs": [],
					"stateMutability": "nonpayable",
					"type": "function"
				},
				{
					"inputs": [
						{
							"internalType": "address",
							"name": "token",
							"type": "address"
						},
						{
							"internalType": "address",
							"name": "user",
							"type": "address"
						}
					],
					"name": "getBalance",
					"outputs": [
						{
							"internalType": "uint256",
							"name": "",
							"type": "uint256"
						}
					],
					"stateMutability": "view",
					"type": "function"
				},
				{
					"inputs": [
						{
							"internalType": "address[]",
							"name": "tokens",
							"type": "address[]"
						},
						{
							"internalType": "address",
							"name": "user",
							"type": "address"
						}
					],
					"name": "getBalances",
					"outputs": [
						{
							"internalType": "uint256[]",
							"name": "",
							"type": "uint256[]"
						}
					],
					"stateMutability": "view",
					"type": "function"
				},
				{
					"inputs": [
						{
							"internalType": "address",
							"name": "token",
							"type": "address"
						},
						{
							"internalType": "uint256",
							"name": "amount",
							"type": "uint256"
						}
					],
					"name": "withdraw",
					"outputs": [],
					"stateMutability": "nonpayable",
					"type": "function"
				}
			],
			"devdoc": {
				"errors": {
					"AddressEmptyCode(address)": [
						{
							"details": "There's no code at `target` (it is not a contract)."
						}
					],
					"AddressInsufficientBalance(address)": [
						{
							"details": "The ETH balance of the account is not enough to perform the operation."
						}
					],
					"FailedInnerCall()": [
						{
							"details": "A call to an address target failed. The target may have reverted."
						}
					],
					"SafeERC20FailedOperation(address)": [
						{
							"details": "An operation with an ERC20 token failed."
						}
					]
				},
				"kind": "dev",
				"methods": {
					"deposit(address,uint256)": {
						"details": "用户需要先调用代币合约的 approve() 授权"
					}
				},
				"version": 1
			},
			"evm": {
				"assembly": "    /* \"src/3_TokenBank.sol\":294:2060  contract TokenBank {... */\n  mstore(0x40, 0x80)\n  callvalue\n  dup1\n  iszero\n  tag_1\n  jumpi\n  revert(0x00, 0x00)\ntag_1:\n  pop\n  dataSize(sub_0)\n  dup1\n  dataOffset(sub_0)\n  0x00\n  codecopy\n  0x00\n  return\nstop\n\nsub_0: assembly {\n        /* \"src/3_TokenBank.sol\":294:2060  contract TokenBank {... */\n      mstore(0x40, 0x80)\n      callvalue\n      dup1\n      iszero\n      tag_1\n      jumpi\n      revert(0x00, 0x00)\n    tag_1:\n      pop\n      jumpi(tag_2, lt(calldatasize, 0x04))\n      shr(0xe0, calldataload(0x00))\n      dup1\n      0x47e7ef24\n      eq\n      tag_3\n      jumpi\n      dup1\n      0xc23f001f\n      eq\n      tag_4\n      jumpi\n      dup1\n      0xd1c07028\n      eq\n      tag_5\n      jumpi\n      dup1\n      0xd4fac45d\n      eq\n      tag_6\n      jumpi\n      dup1\n      0xf3fef3a3\n      eq\n      tag_7\n      jumpi\n    tag_2:\n      revert(0x00, 0x00)\n        /* \"src/3_TokenBank.sol\":711:1079  function deposit(address token, uint256 amount) external {... */\n    tag_3:\n      tag_8\n      0x04\n      dup1\n      calldatasize\n      sub\n      dup2\n      add\n      swap1\n      tag_9\n      swap2\n      swap1\n      tag_10\n      jump\t// in\n    tag_9:\n      tag_11\n      jump\t// in\n    tag_8:\n      stop\n        /* \"src/3_TokenBank.sol\":389:452  mapping(address => mapping(address => uint256)) public balances */\n    tag_4:\n      tag_12\n      0x04\n      dup1\n      calldatasize\n      sub\n      dup2\n      add\n      swap1\n      tag_13\n      swap2\n      swap1\n      tag_14\n      jump\t// in\n    tag_13:\n      tag_15\n      jump\t// in\n    tag_12:\n      mload(0x40)\n      tag_16\n      swap2\n      swap1\n      tag_17\n      jump\t// in\n    tag_16:\n      mload(0x40)\n      dup1\n      swap2\n      sub\n      swap1\n      return\n        /* \"src/3_TokenBank.sol\":1692:2057  function getBalances(... */\n    tag_5:\n      tag_18\n      0x04\n      dup1\n      calldatasize\n      sub\n      dup2\n      add\n      swap1\n      tag_19\n      swap2\n      swap1\n      tag_20\n      jump\t// in\n    tag_19:\n      tag_21\n      jump\t// in\n    tag_18:\n      mload(0x40)\n      tag_22\n      swap2\n      swap1\n      tag_23\n      jump\t// in\n    tag_22:\n      mload(0x40)\n      dup1\n      swap2\n      sub\n      swap1\n      return\n        /* \"src/3_TokenBank.sol\":1531:1684  function getBalance(... */\n    tag_6:\n      tag_24\n      0x04\n      dup1\n      calldatasize\n      sub\n      dup2\n      add\n      swap1\n      tag_25\n      swap2\n      swap1\n      tag_14\n      jump\t// in\n    tag_25:\n      tag_26\n      jump\t// in\n    tag_24:\n      mload(0x40)\n      tag_27\n      swap2\n      swap1\n      tag_17\n      jump\t// in\n    tag_27:\n      mload(0x40)\n      dup1\n      swap2\n      sub\n      swap1\n      return\n        /* \"src/3_TokenBank.sol\":1087:1523  function withdraw(address token, uint256 amount) external {... */\n    tag_7:\n      tag_28\n      0x04\n      dup1\n      calldatasize\n      sub\n      dup2\n      add\n      swap1\n      tag_29\n      swap2\n      swap1\n      tag_10\n      jump\t// in\n    tag_29:\n      tag_30\n      jump\t// in\n    tag_28:\n      stop\n        /* \"src/3_TokenBank.sol\":711:1079  function deposit(address token, uint256 amount) external {... */\n    tag_11:\n        /* \"src/3_TokenBank.sol\":804:805  0 */\n      0x00\n        /* \"src/3_TokenBank.sol\":787:806  token != address(0) */\n      0xffffffffffffffffffffffffffffffffffffffff\n      and\n        /* \"src/3_TokenBank.sol\":787:792  token */\n      dup3\n        /* \"src/3_TokenBank.sol\":787:806  token != address(0) */\n      0xffffffffffffffffffffffffffffffffffffffff\n      and\n      sub\n        /* \"src/3_TokenBank.sol\":779:832  require(token != address(0), \"Invalid token address\") */\n      tag_32\n      jumpi\n      mload(0x40)\n      0x08c379a000000000000000000000000000000000000000000000000000000000\n      dup2\n      mstore\n      0x04\n      add\n      tag_33\n      swap1\n      tag_34\n      jump\t// in\n    tag_33:\n      mload(0x40)\n      dup1\n      swap2\n      sub\n      swap1\n      revert\n    tag_32:\n        /* \"src/3_TokenBank.sol\":860:861  0 */\n      0x00\n        /* \"src/3_TokenBank.sol\":851:857  amount */\n      dup2\n        /* \"src/3_TokenBank.sol\":851:861  amount > 0 */\n      gt\n        /* \"src/3_TokenBank.sol\":843:895  require(amount > 0, \"Amount must be greater than 0\") */\n      tag_35\n      jumpi\n      mload(0x40)\n      0x08c379a000000000000000000000000000000000000000000000000000000000\n      dup2\n      mstore\n      0x04\n      add\n      tag_36\n      swap1\n      tag_37\n      jump\t// in\n    tag_36:\n      mload(0x40)\n      dup1\n      swap2\n      sub\n      swap1\n      revert\n    tag_35:\n        /* \"src/3_TokenBank.sol\":908:973  IERC20(token).safeTransferFrom(msg.sender, address(this), amount) */\n      tag_38\n        /* \"src/3_TokenBank.sol\":939:949  msg.sender */\n      caller\n        /* \"src/3_TokenBank.sol\":959:963  this */\n      address\n        /* \"src/3_TokenBank.sol\":966:972  amount */\n      dup4\n        /* \"src/3_TokenBank.sol\":915:920  token */\n      dup6\n        /* \"src/3_TokenBank.sol\":908:938  IERC20(token).safeTransferFrom */\n      0xffffffffffffffffffffffffffffffffffffffff\n      and\n      tag_39\n      swap1\n        /* \"src/3_TokenBank.sol\":908:973  IERC20(token).safeTransferFrom(msg.sender, address(this), amount) */\n      swap4\n      swap3\n      swap2\n      swap1\n      0xffffffff\n      and\n      jump\t// in\n    tag_38:\n        /* \"src/3_TokenBank.sol\":1015:1021  amount */\n      dup1\n        /* \"src/3_TokenBank.sol\":984:992  balances */\n      0x00\n        /* \"src/3_TokenBank.sol\":984:1004  balances[msg.sender] */\n      0x00\n        /* \"src/3_TokenBank.sol\":993:1003  msg.sender */\n      caller\n        /* \"src/3_TokenBank.sol\":984:1004  balances[msg.sender] */\n      0xffffffffffffffffffffffffffffffffffffffff\n      and\n      0xffffffffffffffffffffffffffffffffffffffff\n      and\n      dup2\n      mstore\n      0x20\n      add\n      swap1\n      dup2\n      mstore\n      0x20\n      add\n      0x00\n      keccak256\n        /* \"src/3_TokenBank.sol\":984:1011  balances[msg.sender][token] */\n      0x00\n        /* \"src/3_TokenBank.sol\":1005:1010  token */\n      dup5\n        /* \"src/3_TokenBank.sol\":984:1011  balances[msg.sender][token] */\n      0xffffffffffffffffffffffffffffffffffffffff\n      and\n      0xffffffffffffffffffffffffffffffffffffffff\n      and\n      dup2\n      mstore\n      0x20\n      add\n      swap1\n      dup2\n      mstore\n      0x20\n      add\n      0x00\n      keccak256\n      0x00\n        /* \"src/3_TokenBank.sol\":984:1021  balances[msg.sender][token] += amount */\n      dup3\n      dup3\n      sload\n      tag_40\n      swap2\n      swap1\n      tag_41\n      jump\t// in\n    tag_40:\n      swap3\n      pop\n      pop\n      dup2\n      swap1\n      sstore\n      pop\n        /* \"src/3_TokenBank.sol\":1052:1062  msg.sender */\n      caller\n        /* \"src/3_TokenBank.sol\":1037:1071  Deposit(token, msg.sender, amount) */\n      0xffffffffffffffffffffffffffffffffffffffff\n      and\n        /* \"src/3_TokenBank.sol\":1045:1050  token */\n      dup3\n        /* \"src/3_TokenBank.sol\":1037:1071  Deposit(token, msg.sender, amount) */\n      0xffffffffffffffffffffffffffffffffffffffff\n      and\n      0x5548c837ab068cf56a2c2479df0882a4922fd203edb7517321831d95078c5f62\n        /* \"src/3_TokenBank.sol\":1064:1070  amount */\n      dup4\n        /* \"src/3_TokenBank.sol\":1037:1071  Deposit(token, msg.sender, amount) */\n      mload(0x40)\n      tag_42\n      swap2\n      swap1\n      tag_17\n      jump\t// in\n    tag_42:\n      mload(0x40)\n      dup1\n      swap2\n      sub\n      swap1\n      log3\n        /* \"src/3_TokenBank.sol\":711:1079  function deposit(address token, uint256 amount) external {... */\n      pop\n      pop\n      jump\t// out\n        /* \"src/3_TokenBank.sol\":389:452  mapping(address => mapping(address => uint256)) public balances */\n    tag_15:\n      mstore(0x20, 0x00)\n      dup2\n      0x00\n      mstore\n      mstore(0x20, keccak256(0x00, 0x40))\n      dup1\n      0x00\n      mstore\n      keccak256(0x00, 0x40)\n      0x00\n      swap2\n      pop\n      swap2\n      pop\n      pop\n      sload\n      dup2\n      jump\t// out\n        /* \"src/3_TokenBank.sol\":1692:2057  function getBalances(... */\n    tag_21:\n        /* \"src/3_TokenBank.sol\":1802:1818  uint256[] memory */\n      0x60\n        /* \"src/3_TokenBank.sol\":1831:1860  uint256[] memory userBalances */\n      0x00\n        /* \"src/3_TokenBank.sol\":1877:1883  tokens */\n      dup5\n      dup5\n        /* \"src/3_TokenBank.sol\":1877:1890  tokens.length */\n      swap1\n      pop\n        /* \"src/3_TokenBank.sol\":1863:1891  new uint256[](tokens.length) */\n      0xffffffffffffffff\n      dup2\n      gt\n      iszero\n      tag_44\n      jumpi\n      tag_45\n      tag_46\n      jump\t// in\n    tag_45:\n    tag_44:\n      mload(0x40)\n      swap1\n      dup1\n      dup3\n      mstore\n      dup1\n      0x20\n      mul\n      0x20\n      add\n      dup3\n      add\n      0x40\n      mstore\n      dup1\n      iszero\n      tag_47\n      jumpi\n      dup2\n      0x20\n      add\n      0x20\n      dup3\n      mul\n      dup1\n      calldatasize\n      dup4\n      calldatacopy\n      dup1\n      dup3\n      add\n      swap2\n      pop\n      pop\n      swap1\n      pop\n    tag_47:\n      pop\n        /* \"src/3_TokenBank.sol\":1831:1891  uint256[] memory userBalances = new uint256[](tokens.length) */\n      swap1\n      pop\n        /* \"src/3_TokenBank.sol\":1909:1918  uint256 i */\n      0x00\n        /* \"src/3_TokenBank.sol\":1921:1922  0 */\n      0x00\n        /* \"src/3_TokenBank.sol\":1909:1922  uint256 i = 0 */\n      swap1\n      pop\n        /* \"src/3_TokenBank.sol\":1904:2018  for (uint256 i = 0; i < tokens.length; i++) {... */\n    tag_48:\n        /* \"src/3_TokenBank.sol\":1928:1934  tokens */\n      dup6\n      dup6\n        /* \"src/3_TokenBank.sol\":1928:1941  tokens.length */\n      swap1\n      pop\n        /* \"src/3_TokenBank.sol\":1924:1925  i */\n      dup2\n        /* \"src/3_TokenBank.sol\":1924:1941  i < tokens.length */\n      lt\n        /* \"src/3_TokenBank.sol\":1904:2018  for (uint256 i = 0; i < tokens.length; i++) {... */\n      iszero\n      tag_49\n      jumpi\n        /* \"src/3_TokenBank.sol\":1981:1989  balances */\n      0x00\n        /* \"src/3_TokenBank.sol\":1981:1995  balances[user] */\n      0x00\n        /* \"src/3_TokenBank.sol\":1990:1994  user */\n      dup6\n        /* \"src/3_TokenBank.sol\":1981:1995  balances[user] */\n      0xffffffffffffffffffffffffffffffffffffffff\n      and\n      0xffffffffffffffffffffffffffffffffffffffff\n      and\n      dup2\n      mstore\n      0x20\n      add\n      swap1\n      dup2\n      mstore\n      0x20\n      add\n      0x00\n      keccak256\n        /* \"src/3_TokenBank.sol\":1981:2006  balances[user][tokens[i]] */\n      0x00\n        /* \"src/3_TokenBank.sol\":1996:2002  tokens */\n      dup8\n      dup8\n        /* \"src/3_TokenBank.sol\":2003:2004  i */\n      dup5\n        /* \"src/3_TokenBank.sol\":1996:2005  tokens[i] */\n      dup2\n      dup2\n      lt\n      tag_51\n      jumpi\n      tag_52\n      tag_53\n      jump\t// in\n    tag_52:\n    tag_51:\n      swap1\n      pop\n      0x20\n      mul\n      add\n      0x20\n      dup2\n      add\n      swap1\n      tag_54\n      swap2\n      swap1\n      tag_55\n      jump\t// in\n    tag_54:\n        /* \"src/3_TokenBank.sol\":1981:2006  balances[user][tokens[i]] */\n      0xffffffffffffffffffffffffffffffffffffffff\n      and\n      0xffffffffffffffffffffffffffffffffffffffff\n      and\n      dup2\n      mstore\n      0x20\n      add\n      swap1\n      dup2\n      mstore\n      0x20\n      add\n      0x00\n      keccak256\n      sload\n        /* \"src/3_TokenBank.sol\":1963:1975  userBalances */\n      dup3\n        /* \"src/3_TokenBank.sol\":1976:1977  i */\n      dup3\n        /* \"src/3_TokenBank.sol\":1963:1978  userBalances[i] */\n      dup2\n      mload\n      dup2\n      lt\n      tag_56\n      jumpi\n      tag_57\n      tag_53\n      jump\t// in\n    tag_57:\n    tag_56:\n      0x20\n      mul\n      0x20\n      add\n      add\n        /* \"src/3_TokenBank.sol\":1963:2006  userBalances[i] = balances[user][tokens[i]] */\n      dup2\n      dup2\n      mstore\n      pop\n      pop\n        /* \"src/3_TokenBank.sol\":1943:1946  i++ */\n      dup1\n      dup1\n      0x01\n      add\n      swap2\n      pop\n      pop\n        /* \"src/3_TokenBank.sol\":1904:2018  for (uint256 i = 0; i < tokens.length; i++) {... */\n      jump(tag_48)\n    tag_49:\n      pop\n        /* \"src/3_TokenBank.sol\":2037:2049  userBalances */\n      dup1\n        /* \"src/3_TokenBank.sol\":2030:2049  return userBalances */\n      swap2\n      pop\n      pop\n        /* \"src/3_TokenBank.sol\":1692:2057  function getBalances(... */\n      swap4\n      swap3\n      pop\n      pop\n      pop\n      jump\t// out\n        /* \"src/3_TokenBank.sol\":1531:1684  function getBalance(... */\n    tag_26:\n        /* \"src/3_TokenBank.sol\":1628:1635  uint256 */\n      0x00\n        /* \"src/3_TokenBank.sol\":1655:1663  balances */\n      0x00\n        /* \"src/3_TokenBank.sol\":1655:1669  balances[user] */\n      0x00\n        /* \"src/3_TokenBank.sol\":1664:1668  user */\n      dup4\n        /* \"src/3_TokenBank.sol\":1655:1669  balances[user] */\n      0xffffffffffffffffffffffffffffffffffffffff\n      and\n      0xffffffffffffffffffffffffffffffffffffffff\n      and\n      dup2\n      mstore\n      0x20\n      add\n      swap1\n      dup2\n      mstore\n      0x20\n      add\n      0x00\n      keccak256\n        /* \"src/3_TokenBank.sol\":1655:1676  balances[user][token] */\n      0x00\n        /* \"src/3_TokenBank.sol\":1670:1675  token */\n      dup5\n        /* \"src/3_TokenBank.sol\":1655:1676  balances[user][token] */\n      0xffffffffffffffffffffffffffffffffffffffff\n      and\n      0xffffffffffffffffffffffffffffffffffffffff\n      and\n      dup2\n      mstore\n      0x20\n      add\n      swap1\n      dup2\n      mstore\n      0x20\n      add\n      0x00\n      keccak256\n      sload\n        /* \"src/3_TokenBank.sol\":1648:1676  return balances[user][token] */\n      swap1\n      pop\n        /* \"src/3_TokenBank.sol\":1531:1684  function getBalance(... */\n      swap3\n      swap2\n      pop\n      pop\n      jump\t// out\n        /* \"src/3_TokenBank.sol\":1087:1523  function withdraw(address token, uint256 amount) external {... */\n    tag_30:\n        /* \"src/3_TokenBank.sol\":1181:1182  0 */\n      0x00\n        /* \"src/3_TokenBank.sol\":1164:1183  token != address(0) */\n      0xffffffffffffffffffffffffffffffffffffffff\n      and\n        /* \"src/3_TokenBank.sol\":1164:1169  token */\n      dup3\n        /* \"src/3_TokenBank.sol\":1164:1183  token != address(0) */\n      0xffffffffffffffffffffffffffffffffffffffff\n      and\n      sub\n        /* \"src/3_TokenBank.sol\":1156:1209  require(token != address(0), \"Invalid token address\") */\n      tag_60\n      jumpi\n      mload(0x40)\n      0x08c379a000000000000000000000000000000000000000000000000000000000\n      dup2\n      mstore\n      0x04\n      add\n      tag_61\n      swap1\n      tag_34\n      jump\t// in\n    tag_61:\n      mload(0x40)\n      dup1\n      swap2\n      sub\n      swap1\n      revert\n    tag_60:\n        /* \"src/3_TokenBank.sol\":1237:1238  0 */\n      0x00\n        /* \"src/3_TokenBank.sol\":1228:1234  amount */\n      dup2\n        /* \"src/3_TokenBank.sol\":1228:1238  amount > 0 */\n      gt\n        /* \"src/3_TokenBank.sol\":1220:1272  require(amount > 0, \"Amount must be greater than 0\") */\n      tag_62\n      jumpi\n      mload(0x40)\n      0x08c379a000000000000000000000000000000000000000000000000000000000\n      dup2\n      mstore\n      0x04\n      add\n      tag_63\n      swap1\n      tag_37\n      jump\t// in\n    tag_63:\n      mload(0x40)\n      dup1\n      swap2\n      sub\n      swap1\n      revert\n    tag_62:\n        /* \"src/3_TokenBank.sol\":1322:1328  amount */\n      dup1\n        /* \"src/3_TokenBank.sol\":1291:1299  balances */\n      0x00\n        /* \"src/3_TokenBank.sol\":1291:1311  balances[msg.sender] */\n      0x00\n        /* \"src/3_TokenBank.sol\":1300:1310  msg.sender */\n      caller\n        /* \"src/3_TokenBank.sol\":1291:1311  balances[msg.sender] */\n      0xffffffffffffffffffffffffffffffffffffffff\n      and\n      0xffffffffffffffffffffffffffffffffffffffff\n      and\n      dup2\n      mstore\n      0x20\n      add\n      swap1\n      dup2\n      mstore\n      0x20\n      add\n      0x00\n      keccak256\n        /* \"src/3_TokenBank.sol\":1291:1318  balances[msg.sender][token] */\n      0x00\n        /* \"src/3_TokenBank.sol\":1312:1317  token */\n      dup5\n        /* \"src/3_TokenBank.sol\":1291:1318  balances[msg.sender][token] */\n      0xffffffffffffffffffffffffffffffffffffffff\n      and\n      0xffffffffffffffffffffffffffffffffffffffff\n      and\n      dup2\n      mstore\n      0x20\n      add\n      swap1\n      dup2\n      mstore\n      0x20\n      add\n      0x00\n      keccak256\n      sload\n        /* \"src/3_TokenBank.sol\":1291:1328  balances[msg.sender][token] >= amount */\n      lt\n      iszero\n        /* \"src/3_TokenBank.sol\":1283:1353  require(balances[msg.sender][token] >= amount, \"Insufficient balance\") */\n      tag_64\n      jumpi\n      mload(0x40)\n      0x08c379a000000000000000000000000000000000000000000000000000000000\n      dup2\n      mstore\n      0x04\n      add\n      tag_65\n      swap1\n      tag_66\n      jump\t// in\n    tag_65:\n      mload(0x40)\n      dup1\n      swap2\n      sub\n      swap1\n      revert\n    tag_64:\n        /* \"src/3_TokenBank.sol\":1397:1403  amount */\n      dup1\n        /* \"src/3_TokenBank.sol\":1366:1374  balances */\n      0x00\n        /* \"src/3_TokenBank.sol\":1366:1386  balances[msg.sender] */\n      0x00\n        /* \"src/3_TokenBank.sol\":1375:1385  msg.sender */\n      caller\n        /* \"src/3_TokenBank.sol\":1366:1386  balances[msg.sender] */\n      0xffffffffffffffffffffffffffffffffffffffff\n      and\n      0xffffffffffffffffffffffffffffffffffffffff\n      and\n      dup2\n      mstore\n      0x20\n      add\n      swap1\n      dup2\n      mstore\n      0x20\n      add\n      0x00\n      keccak256\n        /* \"src/3_TokenBank.sol\":1366:1393  balances[msg.sender][token] */\n      0x00\n        /* \"src/3_TokenBank.sol\":1387:1392  token */\n      dup5\n        /* \"src/3_TokenBank.sol\":1366:1393  balances[msg.sender][token] */\n      0xffffffffffffffffffffffffffffffffffffffff\n      and\n      0xffffffffffffffffffffffffffffffffffffffff\n      and\n      dup2\n      mstore\n      0x20\n      add\n      swap1\n      dup2\n      mstore\n      0x20\n      add\n      0x00\n      keccak256\n      0x00\n        /* \"src/3_TokenBank.sol\":1366:1403  balances[msg.sender][token] -= amount */\n      dup3\n      dup3\n      sload\n      tag_67\n      swap2\n      swap1\n      tag_68\n      jump\t// in\n    tag_67:\n      swap3\n      pop\n      pop\n      dup2\n      swap1\n      sstore\n      pop\n        /* \"src/3_TokenBank.sol\":1416:1462  IERC20(token).safeTransfer(msg.sender, amount) */\n      tag_69\n        /* \"src/3_TokenBank.sol\":1443:1453  msg.sender */\n      caller\n        /* \"src/3_TokenBank.sol\":1455:1461  amount */\n      dup3\n        /* \"src/3_TokenBank.sol\":1423:1428  token */\n      dup5\n        /* \"src/3_TokenBank.sol\":1416:1442  IERC20(token).safeTransfer */\n      0xffffffffffffffffffffffffffffffffffffffff\n      and\n      tag_70\n      swap1\n        /* \"src/3_TokenBank.sol\":1416:1462  IERC20(token).safeTransfer(msg.sender, amount) */\n      swap3\n      swap2\n      swap1\n      0xffffffff\n      and\n      jump\t// in\n    tag_69:\n        /* \"src/3_TokenBank.sol\":1496:1506  msg.sender */\n      caller\n        /* \"src/3_TokenBank.sol\":1480:1515  Withdraw(token, msg.sender, amount) */\n      0xffffffffffffffffffffffffffffffffffffffff\n      and\n        /* \"src/3_TokenBank.sol\":1489:1494  token */\n      dup3\n        /* \"src/3_TokenBank.sol\":1480:1515  Withdraw(token, msg.sender, amount) */\n      0xffffffffffffffffffffffffffffffffffffffff\n      and\n      0x9b1bfa7fa9ee420a16e124f794c35ac9f90472acc99140eb2f6447c714cad8eb\n        /* \"src/3_TokenBank.sol\":1508:1514  amount */\n      dup4\n        /* \"src/3_TokenBank.sol\":1480:1515  Withdraw(token, msg.sender, amount) */\n      mload(0x40)\n      tag_71\n      swap2\n      swap1\n      tag_17\n      jump\t// in\n    tag_71:\n      mload(0x40)\n      dup1\n      swap2\n      sub\n      swap1\n      log3\n        /* \"src/3_TokenBank.sol\":1087:1523  function withdraw(address token, uint256 amount) external {... */\n      pop\n      pop\n      jump\t// out\n        /* \"https://github.com/OpenZeppelin/openzeppelin-contracts/blob/v5.0.2/contracts/token/ERC20/utils/SafeERC20.sol\":1702:1890  function safeTransferFrom(IERC20 token, address from, address to, uint256 value) internal {... */\n    tag_39:\n        /* \"https://github.com/OpenZeppelin/openzeppelin-contracts/blob/v5.0.2/contracts/token/ERC20/utils/SafeERC20.sol\":1802:1883  _callOptionalReturn(token, abi.encodeCall(token.transferFrom, (from, to, value))) */\n      tag_73\n        /* \"https://github.com/OpenZeppelin/openzeppelin-contracts/blob/v5.0.2/contracts/token/ERC20/utils/SafeERC20.sol\":1822:1827  token */\n      dup5\n        /* \"https://github.com/OpenZeppelin/openzeppelin-contracts/blob/v5.0.2/contracts/token/ERC20/utils/SafeERC20.sol\":1844:1849  token */\n      dup6\n        /* \"https://github.com/OpenZeppelin/openzeppelin-contracts/blob/v5.0.2/contracts/token/ERC20/utils/SafeERC20.sol\":1844:1862  token.transferFrom */\n      0xffffffffffffffffffffffffffffffffffffffff\n      and\n      0x23b872dd\n        /* \"https://github.com/OpenZeppelin/openzeppelin-contracts/blob/v5.0.2/contracts/token/ERC20/utils/SafeERC20.sol\":1865:1869  from */\n      dup7\n        /* \"https://github.com/OpenZeppelin/openzeppelin-contracts/blob/v5.0.2/contracts/token/ERC20/utils/SafeERC20.sol\":1871:1873  to */\n      dup7\n        /* \"https://github.com/OpenZeppelin/openzeppelin-contracts/blob/v5.0.2/contracts/token/ERC20/utils/SafeERC20.sol\":1875:1880  value */\n      dup7\n        /* \"https://github.com/OpenZeppelin/openzeppelin-contracts/blob/v5.0.2/contracts/token/ERC20/utils/SafeERC20.sol\":1829:1882  abi.encodeCall(token.transferFrom, (from, to, value)) */\n      add(0x24, mload(0x40))\n      tag_74\n      swap4\n      swap3\n      swap2\n      swap1\n      tag_75\n      jump\t// in\n    tag_74:\n      mload(0x40)\n      0x20\n      dup2\n      dup4\n      sub\n      sub\n      dup2\n      mstore\n      swap1\n      0x40\n      mstore\n      swap2\n      pop\n      0xe0\n      shl\n      0x20\n      dup3\n      add\n      dup1\n      mload\n      0xffffffffffffffffffffffffffffffffffffffffffffffffffffffff\n      dup4\n      dup2\n      dup4\n      and\n      or\n      dup4\n      mstore\n      pop\n      pop\n      pop\n      pop\n        /* \"https://github.com/OpenZeppelin/openzeppelin-contracts/blob/v5.0.2/contracts/token/ERC20/utils/SafeERC20.sol\":1802:1821  _callOptionalReturn */\n      tag_76\n        /* \"https://github.com/OpenZeppelin/openzeppelin-contracts/blob/v5.0.2/contracts/token/ERC20/utils/SafeERC20.sol\":1802:1883  _callOptionalReturn(token, abi.encodeCall(token.transferFrom, (from, to, value))) */\n      jump\t// in\n    tag_73:\n        /* \"https://github.com/OpenZeppelin/openzeppelin-contracts/blob/v5.0.2/contracts/token/ERC20/utils/SafeERC20.sol\":1702:1890  function safeTransferFrom(IERC20 token, address from, address to, uint256 value) internal {... */\n      pop\n      pop\n      pop\n      pop\n      jump\t// out\n        /* \"https://github.com/OpenZeppelin/openzeppelin-contracts/blob/v5.0.2/contracts/token/ERC20/utils/SafeERC20.sol\":1303:1463  function safeTransfer(IERC20 token, address to, uint256 value) internal {... */\n    tag_70:\n        /* \"https://github.com/OpenZeppelin/openzeppelin-contracts/blob/v5.0.2/contracts/token/ERC20/utils/SafeERC20.sol\":1385:1456  _callOptionalReturn(token, abi.encodeCall(token.transfer, (to, value))) */\n      tag_78\n        /* \"https://github.com/OpenZeppelin/openzeppelin-contracts/blob/v5.0.2/contracts/token/ERC20/utils/SafeERC20.sol\":1405:1410  token */\n      dup4\n        /* \"https://github.com/OpenZeppelin/openzeppelin-contracts/blob/v5.0.2/contracts/token/ERC20/utils/SafeERC20.sol\":1427:1432  token */\n      dup5\n        /* \"https://github.com/OpenZeppelin/openzeppelin-contracts/blob/v5.0.2/contracts/token/ERC20/utils/SafeERC20.sol\":1427:1441  token.transfer */\n      0xffffffffffffffffffffffffffffffffffffffff\n      and\n      0xa9059cbb\n        /* \"https://github.com/OpenZeppelin/openzeppelin-contracts/blob/v5.0.2/contracts/token/ERC20/utils/SafeERC20.sol\":1444:1446  to */\n      dup6\n        /* \"https://github.com/OpenZeppelin/openzeppelin-contracts/blob/v5.0.2/contracts/token/ERC20/utils/SafeERC20.sol\":1448:1453  value */\n      dup6\n        /* \"https://github.com/OpenZeppelin/openzeppelin-contracts/blob/v5.0.2/contracts/token/ERC20/utils/SafeERC20.sol\":1412:1455  abi.encodeCall(token.transfer, (to, value)) */\n      add(0x24, mload(0x40))\n      tag_79\n      swap3\n      swap2\n      swap1\n      tag_80\n      jump\t// in\n    tag_79:\n      mload(0x40)\n      0x20\n      dup2\n      dup4\n      sub\n      sub\n      dup2\n      mstore\n      swap1\n      0x40\n      mstore\n      swap2\n      pop\n      0xe0\n      shl\n      0x20\n      dup3\n      add\n      dup1\n      mload\n      0xffffffffffffffffffffffffffffffffffffffffffffffffffffffff\n      dup4\n      dup2\n      dup4\n      and\n      or\n      dup4\n      mstore\n      pop\n      pop\n      pop\n      pop\n        /* \"https://github.com/OpenZeppelin/openzeppelin-contracts/blob/v5.0.2/contracts/token/ERC20/utils/SafeERC20.sol\":1385:1404  _callOptionalReturn */\n      tag_76\n        /* \"https://github.com/OpenZeppelin/openzeppelin-contracts/blob/v5.0.2/contracts/token/ERC20/utils/SafeERC20.sol\":1385:1456  _callOptionalReturn(token, abi.encodeCall(token.transfer, (to, value))) */\n      jump\t// in\n    tag_78:\n        /* \"https://github.com/OpenZeppelin/openzeppelin-contracts/blob/v5.0.2/contracts/token/ERC20/utils/SafeERC20.sol\":1303:1463  function safeTransfer(IERC20 token, address to, uint256 value) internal {... */\n      pop\n      pop\n      pop\n      jump\t// out\n        /* \"https://github.com/OpenZeppelin/openzeppelin-contracts/blob/v5.0.2/contracts/token/ERC20/utils/SafeERC20.sol\":4059:4688  function _callOptionalReturn(IERC20 token, bytes memory data) private {... */\n    tag_76:\n        /* \"https://github.com/OpenZeppelin/openzeppelin-contracts/blob/v5.0.2/contracts/token/ERC20/utils/SafeERC20.sol\":4478:4501  bytes memory returndata */\n      0x00\n        /* \"https://github.com/OpenZeppelin/openzeppelin-contracts/blob/v5.0.2/contracts/token/ERC20/utils/SafeERC20.sol\":4504:4537  address(token).functionCall(data) */\n      tag_82\n        /* \"https://github.com/OpenZeppelin/openzeppelin-contracts/blob/v5.0.2/contracts/token/ERC20/utils/SafeERC20.sol\":4532:4536  data */\n      dup3\n        /* \"https://github.com/OpenZeppelin/openzeppelin-contracts/blob/v5.0.2/contracts/token/ERC20/utils/SafeERC20.sol\":4512:4517  token */\n      dup5\n        /* \"https://github.com/OpenZeppelin/openzeppelin-contracts/blob/v5.0.2/contracts/token/ERC20/utils/SafeERC20.sol\":4504:4531  address(token).functionCall */\n      0xffffffffffffffffffffffffffffffffffffffff\n      and\n      tag_83\n      swap1\n        /* \"https://github.com/OpenZeppelin/openzeppelin-contracts/blob/v5.0.2/contracts/token/ERC20/utils/SafeERC20.sol\":4504:4537  address(token).functionCall(data) */\n      swap2\n      swap1\n      0xffffffff\n      and\n      jump\t// in\n    tag_82:\n        /* \"https://github.com/OpenZeppelin/openzeppelin-contracts/blob/v5.0.2/contracts/token/ERC20/utils/SafeERC20.sol\":4478:4537  bytes memory returndata = address(token).functionCall(data) */\n      swap1\n      pop\n        /* \"https://github.com/OpenZeppelin/openzeppelin-contracts/blob/v5.0.2/contracts/token/ERC20/utils/SafeERC20.sol\":4572:4573  0 */\n      0x00\n        /* \"https://github.com/OpenZeppelin/openzeppelin-contracts/blob/v5.0.2/contracts/token/ERC20/utils/SafeERC20.sol\":4551:4561  returndata */\n      dup2\n        /* \"https://github.com/OpenZeppelin/openzeppelin-contracts/blob/v5.0.2/contracts/token/ERC20/utils/SafeERC20.sol\":4551:4568  returndata.length */\n      mload\n        /* \"https://github.com/OpenZeppelin/openzeppelin-contracts/blob/v5.0.2/contracts/token/ERC20/utils/SafeERC20.sol\":4551:4573  returndata.length != 0 */\n      eq\n      iszero\n        /* \"https://github.com/OpenZeppelin/openzeppelin-contracts/blob/v5.0.2/contracts/token/ERC20/utils/SafeERC20.sol\":4551:4608  returndata.length != 0 && !abi.decode(returndata, (bool)) */\n      dup1\n      iszero\n      tag_84\n      jumpi\n      pop\n        /* \"https://github.com/OpenZeppelin/openzeppelin-contracts/blob/v5.0.2/contracts/token/ERC20/utils/SafeERC20.sol\":4589:4599  returndata */\n      dup1\n        /* \"https://github.com/OpenZeppelin/openzeppelin-contracts/blob/v5.0.2/contracts/token/ERC20/utils/SafeERC20.sol\":4578:4608  abi.decode(returndata, (bool)) */\n      dup1\n      0x20\n      add\n      swap1\n      mload\n      dup2\n      add\n      swap1\n      tag_85\n      swap2\n      swap1\n      tag_86\n      jump\t// in\n    tag_85:\n        /* \"https://github.com/OpenZeppelin/openzeppelin-contracts/blob/v5.0.2/contracts/token/ERC20/utils/SafeERC20.sol\":4577:4608  !abi.decode(returndata, (bool)) */\n      iszero\n        /* \"https://github.com/OpenZeppelin/openzeppelin-contracts/blob/v5.0.2/contracts/token/ERC20/utils/SafeERC20.sol\":4551:4608  returndata.length != 0 && !abi.decode(returndata, (bool)) */\n    tag_84:\n        /* \"https://github.com/OpenZeppelin/openzeppelin-contracts/blob/v5.0.2/contracts/token/ERC20/utils/SafeERC20.sol\":4547:4682  if (returndata.length != 0 && !abi.decode(returndata, (bool))) {... */\n      iszero\n      tag_87\n      jumpi\n        /* \"https://github.com/OpenZeppelin/openzeppelin-contracts/blob/v5.0.2/contracts/token/ERC20/utils/SafeERC20.sol\":4664:4669  token */\n      dup3\n        /* \"https://github.com/OpenZeppelin/openzeppelin-contracts/blob/v5.0.2/contracts/token/ERC20/utils/SafeERC20.sol\":4631:4671  SafeERC20FailedOperation(address(token)) */\n      mload(0x40)\n      0x5274afe700000000000000000000000000000000000000000000000000000000\n      dup2\n      mstore\n      0x04\n      add\n      tag_88\n      swap2\n      swap1\n      tag_89\n      jump\t// in\n    tag_88:\n      mload(0x40)\n      dup1\n      swap2\n      sub\n      swap1\n      revert\n        /* \"https://github.com/OpenZeppelin/openzeppelin-contracts/blob/v5.0.2/contracts/token/ERC20/utils/SafeERC20.sol\":4547:4682  if (returndata.length != 0 && !abi.decode(returndata, (bool))) {... */\n    tag_87:\n        /* \"https://github.com/OpenZeppelin/openzeppelin-contracts/blob/v5.0.2/contracts/token/ERC20/utils/SafeERC20.sol\":4129:4688  {... */\n      pop\n        /* \"https://github.com/OpenZeppelin/openzeppelin-contracts/blob/v5.0.2/contracts/token/ERC20/utils/SafeERC20.sol\":4059:4688  function _callOptionalReturn(IERC20 token, bytes memory data) private {... */\n      pop\n      pop\n      jump\t// out\n        /* \"https://github.com/OpenZeppelin/openzeppelin-contracts/blob/v5.0.2/contracts/utils/Address.sol\":2705:2856  function functionCall(address target, bytes memory data) internal returns (bytes memory) {... */\n    tag_83:\n        /* \"https://github.com/OpenZeppelin/openzeppelin-contracts/blob/v5.0.2/contracts/utils/Address.sol\":2780:2792  bytes memory */\n      0x60\n        /* \"https://github.com/OpenZeppelin/openzeppelin-contracts/blob/v5.0.2/contracts/utils/Address.sol\":2811:2849  functionCallWithValue(target, data, 0) */\n      tag_91\n        /* \"https://github.com/OpenZeppelin/openzeppelin-contracts/blob/v5.0.2/contracts/utils/Address.sol\":2833:2839  target */\n      dup4\n        /* \"https://github.com/OpenZeppelin/openzeppelin-contracts/blob/v5.0.2/contracts/utils/Address.sol\":2841:2845  data */\n      dup4\n        /* \"https://github.com/OpenZeppelin/openzeppelin-contracts/blob/v5.0.2/contracts/utils/Address.sol\":2847:2848  0 */\n      0x00\n        /* \"https://github.com/OpenZeppelin/openzeppelin-contracts/blob/v5.0.2/contracts/utils/Address.sol\":2811:2832  functionCallWithValue */\n      tag_92\n        /* \"https://github.com/OpenZeppelin/openzeppelin-contracts/blob/v5.0.2/contracts/utils/Address.sol\":2811:2849  functionCallWithValue(target, data, 0) */\n      jump\t// in\n    tag_91:\n        /* \"https://github.com/OpenZeppelin/openzeppelin-contracts/blob/v5.0.2/contracts/utils/Address.sol\":2804:2849  return functionCallWithValue(target, data, 0) */\n      swap1\n      pop\n        /* \"https://github.com/OpenZeppelin/openzeppelin-contracts/blob/v5.0.2/contracts/utils/Address.sol\":2705:2856  function functionCall(address target, bytes memory data) internal returns (bytes memory) {... */\n      swap3\n      swap2\n      pop\n      pop\n      jump\t// out\n        /* \"https://github.com/OpenZeppelin/openzeppelin-contracts/blob/v5.0.2/contracts/utils/Address.sol\":3180:3572  function functionCallWithValue(address target, bytes memory data, uint256 value) internal returns (bytes memory) {... */\n    tag_92:\n        /* \"https://github.com/OpenZeppelin/openzeppelin-contracts/blob/v5.0.2/contracts/utils/Address.sol\":3279:3291  bytes memory */\n      0x60\n        /* \"https://github.com/OpenZeppelin/openzeppelin-contracts/blob/v5.0.2/contracts/utils/Address.sol\":3331:3336  value */\n      dup2\n        /* \"https://github.com/OpenZeppelin/openzeppelin-contracts/blob/v5.0.2/contracts/utils/Address.sol\":3307:3328  address(this).balance */\n      selfbalance\n        /* \"https://github.com/OpenZeppelin/openzeppelin-contracts/blob/v5.0.2/contracts/utils/Address.sol\":3307:3336  address(this).balance < value */\n      lt\n        /* \"https://github.com/OpenZeppelin/openzeppelin-contracts/blob/v5.0.2/contracts/utils/Address.sol\":3303:3411  if (address(this).balance < value) {... */\n      iszero\n      tag_94\n      jumpi\n        /* \"https://github.com/OpenZeppelin/openzeppelin-contracts/blob/v5.0.2/contracts/utils/Address.sol\":3394:3398  this */\n      address\n        /* \"https://github.com/OpenZeppelin/openzeppelin-contracts/blob/v5.0.2/contracts/utils/Address.sol\":3359:3400  AddressInsufficientBalance(address(this)) */\n      mload(0x40)\n      0xcd78605900000000000000000000000000000000000000000000000000000000\n      dup2\n      mstore\n      0x04\n      add\n      tag_95\n      swap2\n      swap1\n      tag_89\n      jump\t// in\n    tag_95:\n      mload(0x40)\n      dup1\n      swap2\n      sub\n      swap1\n      revert\n        /* \"https://github.com/OpenZeppelin/openzeppelin-contracts/blob/v5.0.2/contracts/utils/Address.sol\":3303:3411  if (address(this).balance < value) {... */\n    tag_94:\n        /* \"https://github.com/OpenZeppelin/openzeppelin-contracts/blob/v5.0.2/contracts/utils/Address.sol\":3421:3433  bool success */\n      0x00\n        /* \"https://github.com/OpenZeppelin/openzeppelin-contracts/blob/v5.0.2/contracts/utils/Address.sol\":3435:3458  bytes memory returndata */\n      0x00\n        /* \"https://github.com/OpenZeppelin/openzeppelin-contracts/blob/v5.0.2/contracts/utils/Address.sol\":3462:3468  target */\n      dup6\n        /* \"https://github.com/OpenZeppelin/openzeppelin-contracts/blob/v5.0.2/contracts/utils/Address.sol\":3462:3473  target.call */\n      0xffffffffffffffffffffffffffffffffffffffff\n      and\n        /* \"https://github.com/OpenZeppelin/openzeppelin-contracts/blob/v5.0.2/contracts/utils/Address.sol\":3481:3486  value */\n      dup5\n        /* \"https://github.com/OpenZeppelin/openzeppelin-contracts/blob/v5.0.2/contracts/utils/Address.sol\":3488:3492  data */\n      dup7\n        /* \"https://github.com/OpenZeppelin/openzeppelin-contracts/blob/v5.0.2/contracts/utils/Address.sol\":3462:3493  target.call{value: value}(data) */\n      mload(0x40)\n      tag_96\n      swap2\n      swap1\n      tag_97\n      jump\t// in\n    tag_96:\n      0x00\n      mload(0x40)\n      dup1\n      dup4\n      sub\n      dup2\n      dup6\n      dup8\n      gas\n      call\n      swap3\n      pop\n      pop\n      pop\n      returndatasize\n      dup1\n      0x00\n      dup2\n      eq\n      tag_100\n      jumpi\n      mload(0x40)\n      swap2\n      pop\n      and(add(returndatasize, 0x3f), not(0x1f))\n      dup3\n      add\n      0x40\n      mstore\n      returndatasize\n      dup3\n      mstore\n      returndatasize\n      0x00\n      0x20\n      dup5\n      add\n      returndatacopy\n      jump(tag_99)\n    tag_100:\n      0x60\n      swap2\n      pop\n    tag_99:\n      pop\n        /* \"https://github.com/OpenZeppelin/openzeppelin-contracts/blob/v5.0.2/contracts/utils/Address.sol\":3420:3493  (bool success, bytes memory returndata) = target.call{value: value}(data) */\n      swap2\n      pop\n      swap2\n      pop\n        /* \"https://github.com/OpenZeppelin/openzeppelin-contracts/blob/v5.0.2/contracts/utils/Address.sol\":3510:3565  verifyCallResultFromTarget(target, success, returndata) */\n      tag_101\n        /* \"https://github.com/OpenZeppelin/openzeppelin-contracts/blob/v5.0.2/contracts/utils/Address.sol\":3537:3543  target */\n      dup7\n        /* \"https://github.com/OpenZeppelin/openzeppelin-contracts/blob/v5.0.2/contracts/utils/Address.sol\":3545:3552  success */\n      dup4\n        /* \"https://github.com/OpenZeppelin/openzeppelin-contracts/blob/v5.0.2/contracts/utils/Address.sol\":3554:3564  returndata */\n      dup4\n        /* \"https://github.com/OpenZeppelin/openzeppelin-contracts/blob/v5.0.2/contracts/utils/Address.sol\":3510:3536  verifyCallResultFromTarget */\n      tag_102\n        /* \"https://github.com/OpenZeppelin/openzeppelin-contracts/blob/v5.0.2/contracts/utils/Address.sol\":3510:3565  verifyCallResultFromTarget(target, success, returndata) */\n      jump\t// in\n    tag_101:\n        /* \"https://github.com/OpenZeppelin/openzeppelin-contracts/blob/v5.0.2/contracts/utils/Address.sol\":3503:3565  return verifyCallResultFromTarget(target, success, returndata) */\n      swap3\n      pop\n      pop\n      pop\n        /* \"https://github.com/OpenZeppelin/openzeppelin-contracts/blob/v5.0.2/contracts/utils/Address.sol\":3180:3572  function functionCallWithValue(address target, bytes memory data, uint256 value) internal returns (bytes memory) {... */\n      swap4\n      swap3\n      pop\n      pop\n      pop\n      jump\t// out\n        /* \"https://github.com/OpenZeppelin/openzeppelin-contracts/blob/v5.0.2/contracts/utils/Address.sol\":4625:5207  function verifyCallResultFromTarget(... */\n    tag_102:\n        /* \"https://github.com/OpenZeppelin/openzeppelin-contracts/blob/v5.0.2/contracts/utils/Address.sol\":4769:4781  bytes memory */\n      0x60\n        /* \"https://github.com/OpenZeppelin/openzeppelin-contracts/blob/v5.0.2/contracts/utils/Address.sol\":4798:4805  success */\n      dup3\n        /* \"https://github.com/OpenZeppelin/openzeppelin-contracts/blob/v5.0.2/contracts/utils/Address.sol\":4793:5201  if (!success) {... */\n      tag_104\n      jumpi\n        /* \"https://github.com/OpenZeppelin/openzeppelin-contracts/blob/v5.0.2/contracts/utils/Address.sol\":4821:4840  _revert(returndata) */\n      tag_105\n        /* \"https://github.com/OpenZeppelin/openzeppelin-contracts/blob/v5.0.2/contracts/utils/Address.sol\":4829:4839  returndata */\n      dup3\n        /* \"https://github.com/OpenZeppelin/openzeppelin-contracts/blob/v5.0.2/contracts/utils/Address.sol\":4821:4828  _revert */\n      tag_106\n        /* \"https://github.com/OpenZeppelin/openzeppelin-contracts/blob/v5.0.2/contracts/utils/Address.sol\":4821:4840  _revert(returndata) */\n      jump\t// in\n    tag_105:\n        /* \"https://github.com/OpenZeppelin/openzeppelin-contracts/blob/v5.0.2/contracts/utils/Address.sol\":4793:5201  if (!success) {... */\n      jump(tag_107)\n    tag_104:\n        /* \"https://github.com/OpenZeppelin/openzeppelin-contracts/blob/v5.0.2/contracts/utils/Address.sol\":5066:5067  0 */\n      0x00\n        /* \"https://github.com/OpenZeppelin/openzeppelin-contracts/blob/v5.0.2/contracts/utils/Address.sol\":5045:5055  returndata */\n      dup3\n        /* \"https://github.com/OpenZeppelin/openzeppelin-contracts/blob/v5.0.2/contracts/utils/Address.sol\":5045:5062  returndata.length */\n      mload\n        /* \"https://github.com/OpenZeppelin/openzeppelin-contracts/blob/v5.0.2/contracts/utils/Address.sol\":5045:5067  returndata.length == 0 */\n      eq\n        /* \"https://github.com/OpenZeppelin/openzeppelin-contracts/blob/v5.0.2/contracts/utils/Address.sol\":5045:5094  returndata.length == 0 && target.code.length == 0 */\n      dup1\n      iszero\n      tag_108\n      jumpi\n      pop\n        /* \"https://github.com/OpenZeppelin/openzeppelin-contracts/blob/v5.0.2/contracts/utils/Address.sol\":5093:5094  0 */\n      0x00\n        /* \"https://github.com/OpenZeppelin/openzeppelin-contracts/blob/v5.0.2/contracts/utils/Address.sol\":5071:5077  target */\n      dup5\n        /* \"https://github.com/OpenZeppelin/openzeppelin-contracts/blob/v5.0.2/contracts/utils/Address.sol\":5071:5089  target.code.length */\n      0xffffffffffffffffffffffffffffffffffffffff\n      and\n      extcodesize\n        /* \"https://github.com/OpenZeppelin/openzeppelin-contracts/blob/v5.0.2/contracts/utils/Address.sol\":5071:5094  target.code.length == 0 */\n      eq\n        /* \"https://github.com/OpenZeppelin/openzeppelin-contracts/blob/v5.0.2/contracts/utils/Address.sol\":5045:5094  returndata.length == 0 && target.code.length == 0 */\n    tag_108:\n        /* \"https://github.com/OpenZeppelin/openzeppelin-contracts/blob/v5.0.2/contracts/utils/Address.sol\":5041:5160  if (returndata.length == 0 && target.code.length == 0) {... */\n      iszero\n      tag_109\n      jumpi\n        /* \"https://github.com/OpenZeppelin/openzeppelin-contracts/blob/v5.0.2/contracts/utils/Address.sol\":5138:5144  target */\n      dup4\n        /* \"https://github.com/OpenZeppelin/openzeppelin-contracts/blob/v5.0.2/contracts/utils/Address.sol\":5121:5145  AddressEmptyCode(target) */\n      mload(0x40)\n      0x9996b31500000000000000000000000000000000000000000000000000000000\n      dup2\n      mstore\n      0x04\n      add\n      tag_110\n      swap2\n      swap1\n      tag_89\n      jump\t// in\n    tag_110:\n      mload(0x40)\n      dup1\n      swap2\n      sub\n      swap1\n      revert\n        /* \"https://github.com/OpenZeppelin/openzeppelin-contracts/blob/v5.0.2/contracts/utils/Address.sol\":5041:5160  if (returndata.length == 0 && target.code.length == 0) {... */\n    tag_109:\n        /* \"https://github.com/OpenZeppelin/openzeppelin-contracts/blob/v5.0.2/contracts/utils/Address.sol\":5180:5190  returndata */\n      dup2\n        /* \"https://github.com/OpenZeppelin/openzeppelin-contracts/blob/v5.0.2/contracts/utils/Address.sol\":5173:5190  return returndata */\n      swap1\n      pop\n      jump(tag_103)\n        /* \"https://github.com/OpenZeppelin/openzeppelin-contracts/blob/v5.0.2/contracts/utils/Address.sol\":4793:5201  if (!success) {... */\n    tag_107:\n        /* \"https://github.com/OpenZeppelin/openzeppelin-contracts/blob/v5.0.2/contracts/utils/Address.sol\":4625:5207  function verifyCallResultFromTarget(... */\n    tag_103:\n      swap4\n      swap3\n      pop\n      pop\n      pop\n      jump\t// out\n        /* \"https://github.com/OpenZeppelin/openzeppelin-contracts/blob/v5.0.2/contracts/utils/Address.sol\":5743:6259  function _revert(bytes memory returndata) private pure {... */\n    tag_106:\n        /* \"https://github.com/OpenZeppelin/openzeppelin-contracts/blob/v5.0.2/contracts/utils/Address.sol\":5894:5895  0 */\n      0x00\n        /* \"https://github.com/OpenZeppelin/openzeppelin-contracts/blob/v5.0.2/contracts/utils/Address.sol\":5874:5884  returndata */\n      dup2\n        /* \"https://github.com/OpenZeppelin/openzeppelin-contracts/blob/v5.0.2/contracts/utils/Address.sol\":5874:5891  returndata.length */\n      mload\n        /* \"https://github.com/OpenZeppelin/openzeppelin-contracts/blob/v5.0.2/contracts/utils/Address.sol\":5874:5895  returndata.length > 0 */\n      gt\n        /* \"https://github.com/OpenZeppelin/openzeppelin-contracts/blob/v5.0.2/contracts/utils/Address.sol\":5870:6253  if (returndata.length > 0) {... */\n      iszero\n      tag_112\n      jumpi\n        /* \"https://github.com/OpenZeppelin/openzeppelin-contracts/blob/v5.0.2/contracts/utils/Address.sol\":6102:6112  returndata */\n      dup1\n        /* \"https://github.com/OpenZeppelin/openzeppelin-contracts/blob/v5.0.2/contracts/utils/Address.sol\":6096:6113  mload(returndata) */\n      mload\n        /* \"https://github.com/OpenZeppelin/openzeppelin-contracts/blob/v5.0.2/contracts/utils/Address.sol\":6158:6173  returndata_size */\n      dup1\n        /* \"https://github.com/OpenZeppelin/openzeppelin-contracts/blob/v5.0.2/contracts/utils/Address.sol\":6145:6155  returndata */\n      dup3\n        /* \"https://github.com/OpenZeppelin/openzeppelin-contracts/blob/v5.0.2/contracts/utils/Address.sol\":6141:6143  32 */\n      0x20\n        /* \"https://github.com/OpenZeppelin/openzeppelin-contracts/blob/v5.0.2/contracts/utils/Address.sol\":6137:6156  add(32, returndata) */\n      add\n        /* \"https://github.com/OpenZeppelin/openzeppelin-contracts/blob/v5.0.2/contracts/utils/Address.sol\":6130:6174  revert(add(32, returndata), returndata_size) */\n      revert\n        /* \"https://github.com/OpenZeppelin/openzeppelin-contracts/blob/v5.0.2/contracts/utils/Address.sol\":5870:6253  if (returndata.length > 0) {... */\n    tag_112:\n        /* \"https://github.com/OpenZeppelin/openzeppelin-contracts/blob/v5.0.2/contracts/utils/Address.sol\":6225:6242  FailedInnerCall() */\n      mload(0x40)\n      0x1425ea4200000000000000000000000000000000000000000000000000000000\n      dup2\n      mstore\n      0x04\n      add\n      mload(0x40)\n      dup1\n      swap2\n      sub\n      swap1\n      revert\n        /* \"#utility.yul\":88:205   */\n    tag_115:\n        /* \"#utility.yul\":197:198   */\n      0x00\n        /* \"#utility.yul\":194:195   */\n      0x00\n        /* \"#utility.yul\":187:199   */\n      revert\n        /* \"#utility.yul\":211:328   */\n    tag_116:\n        /* \"#utility.yul\":320:321   */\n      0x00\n        /* \"#utility.yul\":317:318   */\n      0x00\n        /* \"#utility.yul\":310:322   */\n      revert\n        /* \"#utility.yul\":334:460   */\n    tag_117:\n        /* \"#utility.yul\":371:378   */\n      0x00\n        /* \"#utility.yul\":411:453   */\n      0xffffffffffffffffffffffffffffffffffffffff\n        /* \"#utility.yul\":404:409   */\n      dup3\n        /* \"#utility.yul\":400:454   */\n      and\n        /* \"#utility.yul\":389:454   */\n      swap1\n      pop\n        /* \"#utility.yul\":334:460   */\n      swap2\n      swap1\n      pop\n      jump\t// out\n        /* \"#utility.yul\":466:562   */\n    tag_118:\n        /* \"#utility.yul\":503:510   */\n      0x00\n        /* \"#utility.yul\":532:556   */\n      tag_158\n        /* \"#utility.yul\":550:555   */\n      dup3\n        /* \"#utility.yul\":532:556   */\n      tag_117\n      jump\t// in\n    tag_158:\n        /* \"#utility.yul\":521:556   */\n      swap1\n      pop\n        /* \"#utility.yul\":466:562   */\n      swap2\n      swap1\n      pop\n      jump\t// out\n        /* \"#utility.yul\":568:690   */\n    tag_119:\n        /* \"#utility.yul\":641:665   */\n      tag_160\n        /* \"#utility.yul\":659:664   */\n      dup2\n        /* \"#utility.yul\":641:665   */\n      tag_118\n      jump\t// in\n    tag_160:\n        /* \"#utility.yul\":634:639   */\n      dup2\n        /* \"#utility.yul\":631:666   */\n      eq\n        /* \"#utility.yul\":621:684   */\n      tag_161\n      jumpi\n        /* \"#utility.yul\":680:681   */\n      0x00\n        /* \"#utility.yul\":677:678   */\n      0x00\n        /* \"#utility.yul\":670:682   */\n      revert\n        /* \"#utility.yul\":621:684   */\n    tag_161:\n        /* \"#utility.yul\":568:690   */\n      pop\n      jump\t// out\n        /* \"#utility.yul\":696:835   */\n    tag_120:\n        /* \"#utility.yul\":742:747   */\n      0x00\n        /* \"#utility.yul\":780:786   */\n      dup2\n        /* \"#utility.yul\":767:787   */\n      calldataload\n        /* \"#utility.yul\":758:787   */\n      swap1\n      pop\n        /* \"#utility.yul\":796:829   */\n      tag_163\n        /* \"#utility.yul\":823:828   */\n      dup2\n        /* \"#utility.yul\":796:829   */\n      tag_119\n      jump\t// in\n    tag_163:\n        /* \"#utility.yul\":696:835   */\n      swap3\n      swap2\n      pop\n      pop\n      jump\t// out\n        /* \"#utility.yul\":841:918   */\n    tag_121:\n        /* \"#utility.yul\":878:885   */\n      0x00\n        /* \"#utility.yul\":907:912   */\n      dup2\n        /* \"#utility.yul\":896:912   */\n      swap1\n      pop\n        /* \"#utility.yul\":841:918   */\n      swap2\n      swap1\n      pop\n      jump\t// out\n        /* \"#utility.yul\":924:1046   */\n    tag_122:\n        /* \"#utility.yul\":997:1021   */\n      tag_166\n        /* \"#utility.yul\":1015:1020   */\n      dup2\n        /* \"#utility.yul\":997:1021   */\n      tag_121\n      jump\t// in\n    tag_166:\n        /* \"#utility.yul\":990:995   */\n      dup2\n        /* \"#utility.yul\":987:1022   */\n      eq\n        /* \"#utility.yul\":977:1040   */\n      tag_167\n      jumpi\n        /* \"#utility.yul\":1036:1037   */\n      0x00\n        /* \"#utility.yul\":1033:1034   */\n      0x00\n        /* \"#utility.yul\":1026:1038   */\n      revert\n        /* \"#utility.yul\":977:1040   */\n    tag_167:\n        /* \"#utility.yul\":924:1046   */\n      pop\n      jump\t// out\n        /* \"#utility.yul\":1052:1191   */\n    tag_123:\n        /* \"#utility.yul\":1098:1103   */\n      0x00\n        /* \"#utility.yul\":1136:1142   */\n      dup2\n        /* \"#utility.yul\":1123:1143   */\n      calldataload\n        /* \"#utility.yul\":1114:1143   */\n      swap1\n      pop\n        /* \"#utility.yul\":1152:1185   */\n      tag_169\n        /* \"#utility.yul\":1179:1184   */\n      dup2\n        /* \"#utility.yul\":1152:1185   */\n      tag_122\n      jump\t// in\n    tag_169:\n        /* \"#utility.yul\":1052:1191   */\n      swap3\n      swap2\n      pop\n      pop\n      jump\t// out\n        /* \"#utility.yul\":1197:1671   */\n    tag_10:\n        /* \"#utility.yul\":1265:1271   */\n      0x00\n        /* \"#utility.yul\":1273:1279   */\n      0x00\n        /* \"#utility.yul\":1322:1324   */\n      0x40\n        /* \"#utility.yul\":1310:1319   */\n      dup4\n        /* \"#utility.yul\":1301:1308   */\n      dup6\n        /* \"#utility.yul\":1297:1320   */\n      sub\n        /* \"#utility.yul\":1293:1325   */\n      slt\n        /* \"#utility.yul\":1290:1409   */\n      iszero\n      tag_171\n      jumpi\n        /* \"#utility.yul\":1328:1407   */\n      tag_172\n      tag_115\n      jump\t// in\n    tag_172:\n        /* \"#utility.yul\":1290:1409   */\n    tag_171:\n        /* \"#utility.yul\":1448:1449   */\n      0x00\n        /* \"#utility.yul\":1473:1526   */\n      tag_173\n        /* \"#utility.yul\":1518:1525   */\n      dup6\n        /* \"#utility.yul\":1509:1515   */\n      dup3\n        /* \"#utility.yul\":1498:1507   */\n      dup7\n        /* \"#utility.yul\":1494:1516   */\n      add\n        /* \"#utility.yul\":1473:1526   */\n      tag_120\n      jump\t// in\n    tag_173:\n        /* \"#utility.yul\":1463:1526   */\n      swap3\n      pop\n        /* \"#utility.yul\":1419:1536   */\n      pop\n        /* \"#utility.yul\":1575:1577   */\n      0x20\n        /* \"#utility.yul\":1601:1654   */\n      tag_174\n        /* \"#utility.yul\":1646:1653   */\n      dup6\n        /* \"#utility.yul\":1637:1643   */\n      dup3\n        /* \"#utility.yul\":1626:1635   */\n      dup7\n        /* \"#utility.yul\":1622:1644   */\n      add\n        /* \"#utility.yul\":1601:1654   */\n      tag_123\n      jump\t// in\n    tag_174:\n        /* \"#utility.yul\":1591:1654   */\n      swap2\n      pop\n        /* \"#utility.yul\":1546:1664   */\n      pop\n        /* \"#utility.yul\":1197:1671   */\n      swap3\n      pop\n      swap3\n      swap1\n      pop\n      jump\t// out\n        /* \"#utility.yul\":1677:2151   */\n    tag_14:\n        /* \"#utility.yul\":1745:1751   */\n      0x00\n        /* \"#utility.yul\":1753:1759   */\n      0x00\n        /* \"#utility.yul\":1802:1804   */\n      0x40\n        /* \"#utility.yul\":1790:1799   */\n      dup4\n        /* \"#utility.yul\":1781:1788   */\n      dup6\n        /* \"#utility.yul\":1777:1800   */\n      sub\n        /* \"#utility.yul\":1773:1805   */\n      slt\n        /* \"#utility.yul\":1770:1889   */\n      iszero\n      tag_176\n      jumpi\n        /* \"#utility.yul\":1808:1887   */\n      tag_177\n      tag_115\n      jump\t// in\n    tag_177:\n        /* \"#utility.yul\":1770:1889   */\n    tag_176:\n        /* \"#utility.yul\":1928:1929   */\n      0x00\n        /* \"#utility.yul\":1953:2006   */\n      tag_178\n        /* \"#utility.yul\":1998:2005   */\n      dup6\n        /* \"#utility.yul\":1989:1995   */\n      dup3\n        /* \"#utility.yul\":1978:1987   */\n      dup7\n        /* \"#utility.yul\":1974:1996   */\n      add\n        /* \"#utility.yul\":1953:2006   */\n      tag_120\n      jump\t// in\n    tag_178:\n        /* \"#utility.yul\":1943:2006   */\n      swap3\n      pop\n        /* \"#utility.yul\":1899:2016   */\n      pop\n        /* \"#utility.yul\":2055:2057   */\n      0x20\n        /* \"#utility.yul\":2081:2134   */\n      tag_179\n        /* \"#utility.yul\":2126:2133   */\n      dup6\n        /* \"#utility.yul\":2117:2123   */\n      dup3\n        /* \"#utility.yul\":2106:2115   */\n      dup7\n        /* \"#utility.yul\":2102:2124   */\n      add\n        /* \"#utility.yul\":2081:2134   */\n      tag_120\n      jump\t// in\n    tag_179:\n        /* \"#utility.yul\":2071:2134   */\n      swap2\n      pop\n        /* \"#utility.yul\":2026:2144   */\n      pop\n        /* \"#utility.yul\":1677:2151   */\n      swap3\n      pop\n      swap3\n      swap1\n      pop\n      jump\t// out\n        /* \"#utility.yul\":2157:2275   */\n    tag_124:\n        /* \"#utility.yul\":2244:2268   */\n      tag_181\n        /* \"#utility.yul\":2262:2267   */\n      dup2\n        /* \"#utility.yul\":2244:2268   */\n      tag_121\n      jump\t// in\n    tag_181:\n        /* \"#utility.yul\":2239:2242   */\n      dup3\n        /* \"#utility.yul\":2232:2269   */\n      mstore\n        /* \"#utility.yul\":2157:2275   */\n      pop\n      pop\n      jump\t// out\n        /* \"#utility.yul\":2281:2503   */\n    tag_17:\n        /* \"#utility.yul\":2374:2378   */\n      0x00\n        /* \"#utility.yul\":2412:2414   */\n      0x20\n        /* \"#utility.yul\":2401:2410   */\n      dup3\n        /* \"#utility.yul\":2397:2415   */\n      add\n        /* \"#utility.yul\":2389:2415   */\n      swap1\n      pop\n        /* \"#utility.yul\":2425:2496   */\n      tag_183\n        /* \"#utility.yul\":2493:2494   */\n      0x00\n        /* \"#utility.yul\":2482:2491   */\n      dup4\n        /* \"#utility.yul\":2478:2495   */\n      add\n        /* \"#utility.yul\":2469:2475   */\n      dup5\n        /* \"#utility.yul\":2425:2496   */\n      tag_124\n      jump\t// in\n    tag_183:\n        /* \"#utility.yul\":2281:2503   */\n      swap3\n      swap2\n      pop\n      pop\n      jump\t// out\n        /* \"#utility.yul\":2509:2626   */\n    tag_125:\n        /* \"#utility.yul\":2618:2619   */\n      0x00\n        /* \"#utility.yul\":2615:2616   */\n      0x00\n        /* \"#utility.yul\":2608:2620   */\n      revert\n        /* \"#utility.yul\":2632:2749   */\n    tag_126:\n        /* \"#utility.yul\":2741:2742   */\n      0x00\n        /* \"#utility.yul\":2738:2739   */\n      0x00\n        /* \"#utility.yul\":2731:2743   */\n      revert\n        /* \"#utility.yul\":2755:2872   */\n    tag_127:\n        /* \"#utility.yul\":2864:2865   */\n      0x00\n        /* \"#utility.yul\":2861:2862   */\n      0x00\n        /* \"#utility.yul\":2854:2866   */\n      revert\n        /* \"#utility.yul\":2895:3463   */\n    tag_128:\n        /* \"#utility.yul\":2968:2976   */\n      0x00\n        /* \"#utility.yul\":2978:2984   */\n      0x00\n        /* \"#utility.yul\":3028:3031   */\n      dup4\n        /* \"#utility.yul\":3021:3025   */\n      0x1f\n        /* \"#utility.yul\":3013:3019   */\n      dup5\n        /* \"#utility.yul\":3009:3026   */\n      add\n        /* \"#utility.yul\":3005:3032   */\n      slt\n        /* \"#utility.yul\":2995:3117   */\n      tag_188\n      jumpi\n        /* \"#utility.yul\":3036:3115   */\n      tag_189\n      tag_125\n      jump\t// in\n    tag_189:\n        /* \"#utility.yul\":2995:3117   */\n    tag_188:\n        /* \"#utility.yul\":3149:3155   */\n      dup3\n        /* \"#utility.yul\":3136:3156   */\n      calldataload\n        /* \"#utility.yul\":3126:3156   */\n      swap1\n      pop\n        /* \"#utility.yul\":3179:3197   */\n      0xffffffffffffffff\n        /* \"#utility.yul\":3171:3177   */\n      dup2\n        /* \"#utility.yul\":3168:3198   */\n      gt\n        /* \"#utility.yul\":3165:3282   */\n      iszero\n      tag_190\n      jumpi\n        /* \"#utility.yul\":3201:3280   */\n      tag_191\n      tag_126\n      jump\t// in\n    tag_191:\n        /* \"#utility.yul\":3165:3282   */\n    tag_190:\n        /* \"#utility.yul\":3315:3319   */\n      0x20\n        /* \"#utility.yul\":3307:3313   */\n      dup4\n        /* \"#utility.yul\":3303:3320   */\n      add\n        /* \"#utility.yul\":3291:3320   */\n      swap2\n      pop\n        /* \"#utility.yul\":3369:3372   */\n      dup4\n        /* \"#utility.yul\":3361:3365   */\n      0x20\n        /* \"#utility.yul\":3353:3359   */\n      dup3\n        /* \"#utility.yul\":3349:3366   */\n      mul\n        /* \"#utility.yul\":3339:3347   */\n      dup4\n        /* \"#utility.yul\":3335:3367   */\n      add\n        /* \"#utility.yul\":3332:3373   */\n      gt\n        /* \"#utility.yul\":3329:3457   */\n      iszero\n      tag_192\n      jumpi\n        /* \"#utility.yul\":3376:3455   */\n      tag_193\n      tag_127\n      jump\t// in\n    tag_193:\n        /* \"#utility.yul\":3329:3457   */\n    tag_192:\n        /* \"#utility.yul\":2895:3463   */\n      swap3\n      pop\n      swap3\n      swap1\n      pop\n      jump\t// out\n        /* \"#utility.yul\":3469:4173   */\n    tag_20:\n        /* \"#utility.yul\":3564:3570   */\n      0x00\n        /* \"#utility.yul\":3572:3578   */\n      0x00\n        /* \"#utility.yul\":3580:3586   */\n      0x00\n        /* \"#utility.yul\":3629:3631   */\n      0x40\n        /* \"#utility.yul\":3617:3626   */\n      dup5\n        /* \"#utility.yul\":3608:3615   */\n      dup7\n        /* \"#utility.yul\":3604:3627   */\n      sub\n        /* \"#utility.yul\":3600:3632   */\n      slt\n        /* \"#utility.yul\":3597:3716   */\n      iszero\n      tag_195\n      jumpi\n        /* \"#utility.yul\":3635:3714   */\n      tag_196\n      tag_115\n      jump\t// in\n    tag_196:\n        /* \"#utility.yul\":3597:3716   */\n    tag_195:\n        /* \"#utility.yul\":3783:3784   */\n      0x00\n        /* \"#utility.yul\":3772:3781   */\n      dup5\n        /* \"#utility.yul\":3768:3785   */\n      add\n        /* \"#utility.yul\":3755:3786   */\n      calldataload\n        /* \"#utility.yul\":3813:3831   */\n      0xffffffffffffffff\n        /* \"#utility.yul\":3805:3811   */\n      dup2\n        /* \"#utility.yul\":3802:3832   */\n      gt\n        /* \"#utility.yul\":3799:3916   */\n      iszero\n      tag_197\n      jumpi\n        /* \"#utility.yul\":3835:3914   */\n      tag_198\n      tag_116\n      jump\t// in\n    tag_198:\n        /* \"#utility.yul\":3799:3916   */\n    tag_197:\n        /* \"#utility.yul\":3948:4028   */\n      tag_199\n        /* \"#utility.yul\":4020:4027   */\n      dup7\n        /* \"#utility.yul\":4011:4017   */\n      dup3\n        /* \"#utility.yul\":4000:4009   */\n      dup8\n        /* \"#utility.yul\":3996:4018   */\n      add\n        /* \"#utility.yul\":3948:4028   */\n      tag_128\n      jump\t// in\n    tag_199:\n        /* \"#utility.yul\":3930:4028   */\n      swap4\n      pop\n      swap4\n      pop\n        /* \"#utility.yul\":3726:4038   */\n      pop\n        /* \"#utility.yul\":4077:4079   */\n      0x20\n        /* \"#utility.yul\":4103:4156   */\n      tag_200\n        /* \"#utility.yul\":4148:4155   */\n      dup7\n        /* \"#utility.yul\":4139:4145   */\n      dup3\n        /* \"#utility.yul\":4128:4137   */\n      dup8\n        /* \"#utility.yul\":4124:4146   */\n      add\n        /* \"#utility.yul\":4103:4156   */\n      tag_120\n      jump\t// in\n    tag_200:\n        /* \"#utility.yul\":4093:4156   */\n      swap2\n      pop\n        /* \"#utility.yul\":4048:4166   */\n      pop\n        /* \"#utility.yul\":3469:4173   */\n      swap3\n      pop\n      swap3\n      pop\n      swap3\n      jump\t// out\n        /* \"#utility.yul\":4179:4293   */\n    tag_129:\n        /* \"#utility.yul\":4246:4252   */\n      0x00\n        /* \"#utility.yul\":4280:4285   */\n      dup2\n        /* \"#utility.yul\":4274:4286   */\n      mload\n        /* \"#utility.yul\":4264:4286   */\n      swap1\n      pop\n        /* \"#utility.yul\":4179:4293   */\n      swap2\n      swap1\n      pop\n      jump\t// out\n        /* \"#utility.yul\":4299:4483   */\n    tag_130:\n        /* \"#utility.yul\":4398:4409   */\n      0x00\n        /* \"#utility.yul\":4432:4438   */\n      dup3\n        /* \"#utility.yul\":4427:4430   */\n      dup3\n        /* \"#utility.yul\":4420:4439   */\n      mstore\n        /* \"#utility.yul\":4472:4476   */\n      0x20\n        /* \"#utility.yul\":4467:4470   */\n      dup3\n        /* \"#utility.yul\":4463:4477   */\n      add\n        /* \"#utility.yul\":4448:4477   */\n      swap1\n      pop\n        /* \"#utility.yul\":4299:4483   */\n      swap3\n      swap2\n      pop\n      pop\n      jump\t// out\n        /* \"#utility.yul\":4489:4621   */\n    tag_131:\n        /* \"#utility.yul\":4556:4560   */\n      0x00\n        /* \"#utility.yul\":4579:4582   */\n      dup2\n        /* \"#utility.yul\":4571:4582   */\n      swap1\n      pop\n        /* \"#utility.yul\":4609:4613   */\n      0x20\n        /* \"#utility.yul\":4604:4607   */\n      dup3\n        /* \"#utility.yul\":4600:4614   */\n      add\n        /* \"#utility.yul\":4592:4614   */\n      swap1\n      pop\n        /* \"#utility.yul\":4489:4621   */\n      swap2\n      swap1\n      pop\n      jump\t// out\n        /* \"#utility.yul\":4627:4735   */\n    tag_132:\n        /* \"#utility.yul\":4704:4728   */\n      tag_205\n        /* \"#utility.yul\":4722:4727   */\n      dup2\n        /* \"#utility.yul\":4704:4728   */\n      tag_121\n      jump\t// in\n    tag_205:\n        /* \"#utility.yul\":4699:4702   */\n      dup3\n        /* \"#utility.yul\":4692:4729   */\n      mstore\n        /* \"#utility.yul\":4627:4735   */\n      pop\n      pop\n      jump\t// out\n        /* \"#utility.yul\":4741:4920   */\n    tag_133:\n        /* \"#utility.yul\":4810:4820   */\n      0x00\n        /* \"#utility.yul\":4831:4877   */\n      tag_207\n        /* \"#utility.yul\":4873:4876   */\n      dup4\n        /* \"#utility.yul\":4865:4871   */\n      dup4\n        /* \"#utility.yul\":4831:4877   */\n      tag_132\n      jump\t// in\n    tag_207:\n        /* \"#utility.yul\":4909:4913   */\n      0x20\n        /* \"#utility.yul\":4904:4907   */\n      dup4\n        /* \"#utility.yul\":4900:4914   */\n      add\n        /* \"#utility.yul\":4886:4914   */\n      swap1\n      pop\n        /* \"#utility.yul\":4741:4920   */\n      swap3\n      swap2\n      pop\n      pop\n      jump\t// out\n        /* \"#utility.yul\":4926:5039   */\n    tag_134:\n        /* \"#utility.yul\":4996:5000   */\n      0x00\n        /* \"#utility.yul\":5028:5032   */\n      0x20\n        /* \"#utility.yul\":5023:5026   */\n      dup3\n        /* \"#utility.yul\":5019:5033   */\n      add\n        /* \"#utility.yul\":5011:5033   */\n      swap1\n      pop\n        /* \"#utility.yul\":4926:5039   */\n      swap2\n      swap1\n      pop\n      jump\t// out\n        /* \"#utility.yul\":5075:5807   */\n    tag_135:\n        /* \"#utility.yul\":5194:5197   */\n      0x00\n        /* \"#utility.yul\":5223:5277   */\n      tag_210\n        /* \"#utility.yul\":5271:5276   */\n      dup3\n        /* \"#utility.yul\":5223:5277   */\n      tag_129\n      jump\t// in\n    tag_210:\n        /* \"#utility.yul\":5293:5379   */\n      tag_211\n        /* \"#utility.yul\":5372:5378   */\n      dup2\n        /* \"#utility.yul\":5367:5370   */\n      dup6\n        /* \"#utility.yul\":5293:5379   */\n      tag_130\n      jump\t// in\n    tag_211:\n        /* \"#utility.yul\":5286:5379   */\n      swap4\n      pop\n        /* \"#utility.yul\":5403:5459   */\n      tag_212\n        /* \"#utility.yul\":5453:5458   */\n      dup4\n        /* \"#utility.yul\":5403:5459   */\n      tag_131\n      jump\t// in\n    tag_212:\n        /* \"#utility.yul\":5482:5489   */\n      dup1\n        /* \"#utility.yul\":5513:5514   */\n      0x00\n        /* \"#utility.yul\":5498:5782   */\n    tag_213:\n        /* \"#utility.yul\":5523:5529   */\n      dup4\n        /* \"#utility.yul\":5520:5521   */\n      dup2\n        /* \"#utility.yul\":5517:5530   */\n      lt\n        /* \"#utility.yul\":5498:5782   */\n      iszero\n      tag_215\n      jumpi\n        /* \"#utility.yul\":5599:5605   */\n      dup2\n        /* \"#utility.yul\":5593:5606   */\n      mload\n        /* \"#utility.yul\":5626:5689   */\n      tag_216\n        /* \"#utility.yul\":5685:5688   */\n      dup9\n        /* \"#utility.yul\":5670:5683   */\n      dup3\n        /* \"#utility.yul\":5626:5689   */\n      tag_133\n      jump\t// in\n    tag_216:\n        /* \"#utility.yul\":5619:5689   */\n      swap8\n      pop\n        /* \"#utility.yul\":5712:5772   */\n      tag_217\n        /* \"#utility.yul\":5765:5771   */\n      dup4\n        /* \"#utility.yul\":5712:5772   */\n      tag_134\n      jump\t// in\n    tag_217:\n        /* \"#utility.yul\":5702:5772   */\n      swap3\n      pop\n        /* \"#utility.yul\":5558:5782   */\n      pop\n        /* \"#utility.yul\":5545:5546   */\n      0x01\n        /* \"#utility.yul\":5542:5543   */\n      dup2\n        /* \"#utility.yul\":5538:5547   */\n      add\n        /* \"#utility.yul\":5533:5547   */\n      swap1\n      pop\n        /* \"#utility.yul\":5498:5782   */\n      jump(tag_213)\n    tag_215:\n        /* \"#utility.yul\":5502:5516   */\n      pop\n        /* \"#utility.yul\":5798:5801   */\n      dup6\n        /* \"#utility.yul\":5791:5801   */\n      swap4\n      pop\n        /* \"#utility.yul\":5199:5807   */\n      pop\n      pop\n      pop\n        /* \"#utility.yul\":5075:5807   */\n      swap3\n      swap2\n      pop\n      pop\n      jump\t// out\n        /* \"#utility.yul\":5813:6186   */\n    tag_23:\n        /* \"#utility.yul\":5956:5960   */\n      0x00\n        /* \"#utility.yul\":5994:5996   */\n      0x20\n        /* \"#utility.yul\":5983:5992   */\n      dup3\n        /* \"#utility.yul\":5979:5997   */\n      add\n        /* \"#utility.yul\":5971:5997   */\n      swap1\n      pop\n        /* \"#utility.yul\":6043:6052   */\n      dup2\n        /* \"#utility.yul\":6037:6041   */\n      dup2\n        /* \"#utility.yul\":6033:6053   */\n      sub\n        /* \"#utility.yul\":6029:6030   */\n      0x00\n        /* \"#utility.yul\":6018:6027   */\n      dup4\n        /* \"#utility.yul\":6014:6031   */\n      add\n        /* \"#utility.yul\":6007:6054   */\n      mstore\n        /* \"#utility.yul\":6071:6179   */\n      tag_219\n        /* \"#utility.yul\":6174:6178   */\n      dup2\n        /* \"#utility.yul\":6165:6171   */\n      dup5\n        /* \"#utility.yul\":6071:6179   */\n      tag_135\n      jump\t// in\n    tag_219:\n        /* \"#utility.yul\":6063:6179   */\n      swap1\n      pop\n        /* \"#utility.yul\":5813:6186   */\n      swap3\n      swap2\n      pop\n      pop\n      jump\t// out\n        /* \"#utility.yul\":6192:6361   */\n    tag_136:\n        /* \"#utility.yul\":6276:6287   */\n      0x00\n        /* \"#utility.yul\":6310:6316   */\n      dup3\n        /* \"#utility.yul\":6305:6308   */\n      dup3\n        /* \"#utility.yul\":6298:6317   */\n      mstore\n        /* \"#utility.yul\":6350:6354   */\n      0x20\n        /* \"#utility.yul\":6345:6348   */\n      dup3\n        /* \"#utility.yul\":6341:6355   */\n      add\n        /* \"#utility.yul\":6326:6355   */\n      swap1\n      pop\n        /* \"#utility.yul\":6192:6361   */\n      swap3\n      swap2\n      pop\n      pop\n      jump\t// out\n        /* \"#utility.yul\":6367:6538   */\n    tag_137:\n        /* \"#utility.yul\":6507:6530   */\n      0x496e76616c696420746f6b656e20616464726573730000000000000000000000\n        /* \"#utility.yul\":6503:6504   */\n      0x00\n        /* \"#utility.yul\":6495:6501   */\n      dup3\n        /* \"#utility.yul\":6491:6505   */\n      add\n        /* \"#utility.yul\":6484:6531   */\n      mstore\n        /* \"#utility.yul\":6367:6538   */\n      pop\n      jump\t// out\n        /* \"#utility.yul\":6544:6910   */\n    tag_138:\n        /* \"#utility.yul\":6686:6689   */\n      0x00\n        /* \"#utility.yul\":6707:6774   */\n      tag_223\n        /* \"#utility.yul\":6771:6773   */\n      0x15\n        /* \"#utility.yul\":6766:6769   */\n      dup4\n        /* \"#utility.yul\":6707:6774   */\n      tag_136\n      jump\t// in\n    tag_223:\n        /* \"#utility.yul\":6700:6774   */\n      swap2\n      pop\n        /* \"#utility.yul\":6783:6876   */\n      tag_224\n        /* \"#utility.yul\":6872:6875   */\n      dup3\n        /* \"#utility.yul\":6783:6876   */\n      tag_137\n      jump\t// in\n    tag_224:\n        /* \"#utility.yul\":6901:6903   */\n      0x20\n        /* \"#utility.yul\":6896:6899   */\n      dup3\n        /* \"#utility.yul\":6892:6904   */\n      add\n        /* \"#utility.yul\":6885:6904   */\n      swap1\n      pop\n        /* \"#utility.yul\":6544:6910   */\n      swap2\n      swap1\n      pop\n      jump\t// out\n        /* \"#utility.yul\":6916:7335   */\n    tag_34:\n        /* \"#utility.yul\":7082:7086   */\n      0x00\n        /* \"#utility.yul\":7120:7122   */\n      0x20\n        /* \"#utility.yul\":7109:7118   */\n      dup3\n        /* \"#utility.yul\":7105:7123   */\n      add\n        /* \"#utility.yul\":7097:7123   */\n      swap1\n      pop\n        /* \"#utility.yul\":7169:7178   */\n      dup2\n        /* \"#utility.yul\":7163:7167   */\n      dup2\n        /* \"#utility.yul\":7159:7179   */\n      sub\n        /* \"#utility.yul\":7155:7156   */\n      0x00\n        /* \"#utility.yul\":7144:7153   */\n      dup4\n        /* \"#utility.yul\":7140:7157   */\n      add\n        /* \"#utility.yul\":7133:7180   */\n      mstore\n        /* \"#utility.yul\":7197:7328   */\n      tag_226\n        /* \"#utility.yul\":7323:7327   */\n      dup2\n        /* \"#utility.yul\":7197:7328   */\n      tag_138\n      jump\t// in\n    tag_226:\n        /* \"#utility.yul\":7189:7328   */\n      swap1\n      pop\n        /* \"#utility.yul\":6916:7335   */\n      swap2\n      swap1\n      pop\n      jump\t// out\n        /* \"#utility.yul\":7341:7520   */\n    tag_139:\n        /* \"#utility.yul\":7481:7512   */\n      0x416d6f756e74206d7573742062652067726561746572207468616e2030000000\n        /* \"#utility.yul\":7477:7478   */\n      0x00\n        /* \"#utility.yul\":7469:7475   */\n      dup3\n        /* \"#utility.yul\":7465:7479   */\n      add\n        /* \"#utility.yul\":7458:7513   */\n      mstore\n        /* \"#utility.yul\":7341:7520   */\n      pop\n      jump\t// out\n        /* \"#utility.yul\":7526:7892   */\n    tag_140:\n        /* \"#utility.yul\":7668:7671   */\n      0x00\n        /* \"#utility.yul\":7689:7756   */\n      tag_229\n        /* \"#utility.yul\":7753:7755   */\n      0x1d\n        /* \"#utility.yul\":7748:7751   */\n      dup4\n        /* \"#utility.yul\":7689:7756   */\n      tag_136\n      jump\t// in\n    tag_229:\n        /* \"#utility.yul\":7682:7756   */\n      swap2\n      pop\n        /* \"#utility.yul\":7765:7858   */\n      tag_230\n        /* \"#utility.yul\":7854:7857   */\n      dup3\n        /* \"#utility.yul\":7765:7858   */\n      tag_139\n      jump\t// in\n    tag_230:\n        /* \"#utility.yul\":7883:7885   */\n      0x20\n        /* \"#utility.yul\":7878:7881   */\n      dup3\n        /* \"#utility.yul\":7874:7886   */\n      add\n        /* \"#utility.yul\":7867:7886   */\n      swap1\n      pop\n        /* \"#utility.yul\":7526:7892   */\n      swap2\n      swap1\n      pop\n      jump\t// out\n        /* \"#utility.yul\":7898:8317   */\n    tag_37:\n        /* \"#utility.yul\":8064:8068   */\n      0x00\n        /* \"#utility.yul\":8102:8104   */\n      0x20\n        /* \"#utility.yul\":8091:8100   */\n      dup3\n        /* \"#utility.yul\":8087:8105   */\n      add\n        /* \"#utility.yul\":8079:8105   */\n      swap1\n      pop\n        /* \"#utility.yul\":8151:8160   */\n      dup2\n        /* \"#utility.yul\":8145:8149   */\n      dup2\n        /* \"#utility.yul\":8141:8161   */\n      sub\n        /* \"#utility.yul\":8137:8138   */\n      0x00\n        /* \"#utility.yul\":8126:8135   */\n      dup4\n        /* \"#utility.yul\":8122:8139   */\n      add\n        /* \"#utility.yul\":8115:8162   */\n      mstore\n        /* \"#utility.yul\":8179:8310   */\n      tag_232\n        /* \"#utility.yul\":8305:8309   */\n      dup2\n        /* \"#utility.yul\":8179:8310   */\n      tag_140\n      jump\t// in\n    tag_232:\n        /* \"#utility.yul\":8171:8310   */\n      swap1\n      pop\n        /* \"#utility.yul\":7898:8317   */\n      swap2\n      swap1\n      pop\n      jump\t// out\n        /* \"#utility.yul\":8323:8503   */\n    tag_141:\n        /* \"#utility.yul\":8371:8448   */\n      0x4e487b7100000000000000000000000000000000000000000000000000000000\n        /* \"#utility.yul\":8368:8369   */\n      0x00\n        /* \"#utility.yul\":8361:8449   */\n      mstore\n        /* \"#utility.yul\":8468:8472   */\n      0x11\n        /* \"#utility.yul\":8465:8466   */\n      0x04\n        /* \"#utility.yul\":8458:8473   */\n      mstore\n        /* \"#utility.yul\":8492:8496   */\n      0x24\n        /* \"#utility.yul\":8489:8490   */\n      0x00\n        /* \"#utility.yul\":8482:8497   */\n      revert\n        /* \"#utility.yul\":8509:8700   */\n    tag_41:\n        /* \"#utility.yul\":8549:8552   */\n      0x00\n        /* \"#utility.yul\":8568:8588   */\n      tag_235\n        /* \"#utility.yul\":8586:8587   */\n      dup3\n        /* \"#utility.yul\":8568:8588   */\n      tag_121\n      jump\t// in\n    tag_235:\n        /* \"#utility.yul\":8563:8588   */\n      swap2\n      pop\n        /* \"#utility.yul\":8602:8622   */\n      tag_236\n        /* \"#utility.yul\":8620:8621   */\n      dup4\n        /* \"#utility.yul\":8602:8622   */\n      tag_121\n      jump\t// in\n    tag_236:\n        /* \"#utility.yul\":8597:8622   */\n      swap3\n      pop\n        /* \"#utility.yul\":8645:8646   */\n      dup3\n        /* \"#utility.yul\":8642:8643   */\n      dup3\n        /* \"#utility.yul\":8638:8647   */\n      add\n        /* \"#utility.yul\":8631:8647   */\n      swap1\n      pop\n        /* \"#utility.yul\":8666:8669   */\n      dup1\n        /* \"#utility.yul\":8663:8664   */\n      dup3\n        /* \"#utility.yul\":8660:8670   */\n      gt\n        /* \"#utility.yul\":8657:8693   */\n      iszero\n      tag_237\n      jumpi\n        /* \"#utility.yul\":8673:8691   */\n      tag_238\n      tag_141\n      jump\t// in\n    tag_238:\n        /* \"#utility.yul\":8657:8693   */\n    tag_237:\n        /* \"#utility.yul\":8509:8700   */\n      swap3\n      swap2\n      pop\n      pop\n      jump\t// out\n        /* \"#utility.yul\":8706:8886   */\n    tag_46:\n        /* \"#utility.yul\":8754:8831   */\n      0x4e487b7100000000000000000000000000000000000000000000000000000000\n        /* \"#utility.yul\":8751:8752   */\n      0x00\n        /* \"#utility.yul\":8744:8832   */\n      mstore\n        /* \"#utility.yul\":8851:8855   */\n      0x41\n        /* \"#utility.yul\":8848:8849   */\n      0x04\n        /* \"#utility.yul\":8841:8856   */\n      mstore\n        /* \"#utility.yul\":8875:8879   */\n      0x24\n        /* \"#utility.yul\":8872:8873   */\n      0x00\n        /* \"#utility.yul\":8865:8880   */\n      revert\n        /* \"#utility.yul\":8892:9072   */\n    tag_53:\n        /* \"#utility.yul\":8940:9017   */\n      0x4e487b7100000000000000000000000000000000000000000000000000000000\n        /* \"#utility.yul\":8937:8938   */\n      0x00\n        /* \"#utility.yul\":8930:9018   */\n      mstore\n        /* \"#utility.yul\":9037:9041   */\n      0x32\n        /* \"#utility.yul\":9034:9035   */\n      0x04\n        /* \"#utility.yul\":9027:9042   */\n      mstore\n        /* \"#utility.yul\":9061:9065   */\n      0x24\n        /* \"#utility.yul\":9058:9059   */\n      0x00\n        /* \"#utility.yul\":9051:9066   */\n      revert\n        /* \"#utility.yul\":9078:9407   */\n    tag_55:\n        /* \"#utility.yul\":9137:9143   */\n      0x00\n        /* \"#utility.yul\":9186:9188   */\n      0x20\n        /* \"#utility.yul\":9174:9183   */\n      dup3\n        /* \"#utility.yul\":9165:9172   */\n      dup5\n        /* \"#utility.yul\":9161:9184   */\n      sub\n        /* \"#utility.yul\":9157:9189   */\n      slt\n        /* \"#utility.yul\":9154:9273   */\n      iszero\n      tag_242\n      jumpi\n        /* \"#utility.yul\":9192:9271   */\n      tag_243\n      tag_115\n      jump\t// in\n    tag_243:\n        /* \"#utility.yul\":9154:9273   */\n    tag_242:\n        /* \"#utility.yul\":9312:9313   */\n      0x00\n        /* \"#utility.yul\":9337:9390   */\n      tag_244\n        /* \"#utility.yul\":9382:9389   */\n      dup5\n        /* \"#utility.yul\":9373:9379   */\n      dup3\n        /* \"#utility.yul\":9362:9371   */\n      dup6\n        /* \"#utility.yul\":9358:9380   */\n      add\n        /* \"#utility.yul\":9337:9390   */\n      tag_120\n      jump\t// in\n    tag_244:\n        /* \"#utility.yul\":9327:9390   */\n      swap2\n      pop\n        /* \"#utility.yul\":9283:9400   */\n      pop\n        /* \"#utility.yul\":9078:9407   */\n      swap3\n      swap2\n      pop\n      pop\n      jump\t// out\n        /* \"#utility.yul\":9413:9583   */\n    tag_142:\n        /* \"#utility.yul\":9553:9575   */\n      0x496e73756666696369656e742062616c616e6365000000000000000000000000\n        /* \"#utility.yul\":9549:9550   */\n      0x00\n        /* \"#utility.yul\":9541:9547   */\n      dup3\n        /* \"#utility.yul\":9537:9551   */\n      add\n        /* \"#utility.yul\":9530:9576   */\n      mstore\n        /* \"#utility.yul\":9413:9583   */\n      pop\n      jump\t// out\n        /* \"#utility.yul\":9589:9955   */\n    tag_143:\n        /* \"#utility.yul\":9731:9734   */\n      0x00\n        /* \"#utility.yul\":9752:9819   */\n      tag_247\n        /* \"#utility.yul\":9816:9818   */\n      0x14\n        /* \"#utility.yul\":9811:9814   */\n      dup4\n        /* \"#utility.yul\":9752:9819   */\n      tag_136\n      jump\t// in\n    tag_247:\n        /* \"#utility.yul\":9745:9819   */\n      swap2\n      pop\n        /* \"#utility.yul\":9828:9921   */\n      tag_248\n        /* \"#utility.yul\":9917:9920   */\n      dup3\n        /* \"#utility.yul\":9828:9921   */\n      tag_142\n      jump\t// in\n    tag_248:\n        /* \"#utility.yul\":9946:9948   */\n      0x20\n        /* \"#utility.yul\":9941:9944   */\n      dup3\n        /* \"#utility.yul\":9937:9949   */\n      add\n        /* \"#utility.yul\":9930:9949   */\n      swap1\n      pop\n        /* \"#utility.yul\":9589:9955   */\n      swap2\n      swap1\n      pop\n      jump\t// out\n        /* \"#utility.yul\":9961:10380   */\n    tag_66:\n        /* \"#utility.yul\":10127:10131   */\n      0x00\n        /* \"#utility.yul\":10165:10167   */\n      0x20\n        /* \"#utility.yul\":10154:10163   */\n      dup3\n        /* \"#utility.yul\":10150:10168   */\n      add\n        /* \"#utility.yul\":10142:10168   */\n      swap1\n      pop\n        /* \"#utility.yul\":10214:10223   */\n      dup2\n        /* \"#utility.yul\":10208:10212   */\n      dup2\n        /* \"#utility.yul\":10204:10224   */\n      sub\n        /* \"#utility.yul\":10200:10201   */\n      0x00\n        /* \"#utility.yul\":10189:10198   */\n      dup4\n        /* \"#utility.yul\":10185:10202   */\n      add\n        /* \"#utility.yul\":10178:10225   */\n      mstore\n        /* \"#utility.yul\":10242:10373   */\n      tag_250\n        /* \"#utility.yul\":10368:10372   */\n      dup2\n        /* \"#utility.yul\":10242:10373   */\n      tag_143\n      jump\t// in\n    tag_250:\n        /* \"#utility.yul\":10234:10373   */\n      swap1\n      pop\n        /* \"#utility.yul\":9961:10380   */\n      swap2\n      swap1\n      pop\n      jump\t// out\n        /* \"#utility.yul\":10386:10580   */\n    tag_68:\n        /* \"#utility.yul\":10426:10430   */\n      0x00\n        /* \"#utility.yul\":10446:10466   */\n      tag_252\n        /* \"#utility.yul\":10464:10465   */\n      dup3\n        /* \"#utility.yul\":10446:10466   */\n      tag_121\n      jump\t// in\n    tag_252:\n        /* \"#utility.yul\":10441:10466   */\n      swap2\n      pop\n        /* \"#utility.yul\":10480:10500   */\n      tag_253\n        /* \"#utility.yul\":10498:10499   */\n      dup4\n        /* \"#utility.yul\":10480:10500   */\n      tag_121\n      jump\t// in\n    tag_253:\n        /* \"#utility.yul\":10475:10500   */\n      swap3\n      pop\n        /* \"#utility.yul\":10524:10525   */\n      dup3\n        /* \"#utility.yul\":10521:10522   */\n      dup3\n        /* \"#utility.yul\":10517:10526   */\n      sub\n        /* \"#utility.yul\":10509:10526   */\n      swap1\n      pop\n        /* \"#utility.yul\":10548:10549   */\n      dup2\n        /* \"#utility.yul\":10542:10546   */\n      dup2\n        /* \"#utility.yul\":10539:10550   */\n      gt\n        /* \"#utility.yul\":10536:10573   */\n      iszero\n      tag_254\n      jumpi\n        /* \"#utility.yul\":10553:10571   */\n      tag_255\n      tag_141\n      jump\t// in\n    tag_255:\n        /* \"#utility.yul\":10536:10573   */\n    tag_254:\n        /* \"#utility.yul\":10386:10580   */\n      swap3\n      swap2\n      pop\n      pop\n      jump\t// out\n        /* \"#utility.yul\":10586:10704   */\n    tag_144:\n        /* \"#utility.yul\":10673:10697   */\n      tag_257\n        /* \"#utility.yul\":10691:10696   */\n      dup2\n        /* \"#utility.yul\":10673:10697   */\n      tag_118\n      jump\t// in\n    tag_257:\n        /* \"#utility.yul\":10668:10671   */\n      dup3\n        /* \"#utility.yul\":10661:10698   */\n      mstore\n        /* \"#utility.yul\":10586:10704   */\n      pop\n      pop\n      jump\t// out\n        /* \"#utility.yul\":10710:11152   */\n    tag_75:\n        /* \"#utility.yul\":10859:10863   */\n      0x00\n        /* \"#utility.yul\":10897:10899   */\n      0x60\n        /* \"#utility.yul\":10886:10895   */\n      dup3\n        /* \"#utility.yul\":10882:10900   */\n      add\n        /* \"#utility.yul\":10874:10900   */\n      swap1\n      pop\n        /* \"#utility.yul\":10910:10981   */\n      tag_259\n        /* \"#utility.yul\":10978:10979   */\n      0x00\n        /* \"#utility.yul\":10967:10976   */\n      dup4\n        /* \"#utility.yul\":10963:10980   */\n      add\n        /* \"#utility.yul\":10954:10960   */\n      dup7\n        /* \"#utility.yul\":10910:10981   */\n      tag_144\n      jump\t// in\n    tag_259:\n        /* \"#utility.yul\":10991:11063   */\n      tag_260\n        /* \"#utility.yul\":11059:11061   */\n      0x20\n        /* \"#utility.yul\":11048:11057   */\n      dup4\n        /* \"#utility.yul\":11044:11062   */\n      add\n        /* \"#utility.yul\":11035:11041   */\n      dup6\n        /* \"#utility.yul\":10991:11063   */\n      tag_144\n      jump\t// in\n    tag_260:\n        /* \"#utility.yul\":11073:11145   */\n      tag_261\n        /* \"#utility.yul\":11141:11143   */\n      0x40\n        /* \"#utility.yul\":11130:11139   */\n      dup4\n        /* \"#utility.yul\":11126:11144   */\n      add\n        /* \"#utility.yul\":11117:11123   */\n      dup5\n        /* \"#utility.yul\":11073:11145   */\n      tag_124\n      jump\t// in\n    tag_261:\n        /* \"#utility.yul\":10710:11152   */\n      swap5\n      swap4\n      pop\n      pop\n      pop\n      pop\n      jump\t// out\n        /* \"#utility.yul\":11158:11490   */\n    tag_80:\n        /* \"#utility.yul\":11279:11283   */\n      0x00\n        /* \"#utility.yul\":11317:11319   */\n      0x40\n        /* \"#utility.yul\":11306:11315   */\n      dup3\n        /* \"#utility.yul\":11302:11320   */\n      add\n        /* \"#utility.yul\":11294:11320   */\n      swap1\n      pop\n        /* \"#utility.yul\":11330:11401   */\n      tag_263\n        /* \"#utility.yul\":11398:11399   */\n      0x00\n        /* \"#utility.yul\":11387:11396   */\n      dup4\n        /* \"#utility.yul\":11383:11400   */\n      add\n        /* \"#utility.yul\":11374:11380   */\n      dup6\n        /* \"#utility.yul\":11330:11401   */\n      tag_144\n      jump\t// in\n    tag_263:\n        /* \"#utility.yul\":11411:11483   */\n      tag_264\n        /* \"#utility.yul\":11479:11481   */\n      0x20\n        /* \"#utility.yul\":11468:11477   */\n      dup4\n        /* \"#utility.yul\":11464:11482   */\n      add\n        /* \"#utility.yul\":11455:11461   */\n      dup5\n        /* \"#utility.yul\":11411:11483   */\n      tag_124\n      jump\t// in\n    tag_264:\n        /* \"#utility.yul\":11158:11490   */\n      swap4\n      swap3\n      pop\n      pop\n      pop\n      jump\t// out\n        /* \"#utility.yul\":11496:11586   */\n    tag_145:\n        /* \"#utility.yul\":11530:11537   */\n      0x00\n        /* \"#utility.yul\":11573:11578   */\n      dup2\n        /* \"#utility.yul\":11566:11579   */\n      iszero\n        /* \"#utility.yul\":11559:11580   */\n      iszero\n        /* \"#utility.yul\":11548:11580   */\n      swap1\n      pop\n        /* \"#utility.yul\":11496:11586   */\n      swap2\n      swap1\n      pop\n      jump\t// out\n        /* \"#utility.yul\":11592:11708   */\n    tag_146:\n        /* \"#utility.yul\":11662:11683   */\n      tag_267\n        /* \"#utility.yul\":11677:11682   */\n      dup2\n        /* \"#utility.yul\":11662:11683   */\n      tag_145\n      jump\t// in\n    tag_267:\n        /* \"#utility.yul\":11655:11660   */\n      dup2\n        /* \"#utility.yul\":11652:11684   */\n      eq\n        /* \"#utility.yul\":11642:11702   */\n      tag_268\n      jumpi\n        /* \"#utility.yul\":11698:11699   */\n      0x00\n        /* \"#utility.yul\":11695:11696   */\n      0x00\n        /* \"#utility.yul\":11688:11700   */\n      revert\n        /* \"#utility.yul\":11642:11702   */\n    tag_268:\n        /* \"#utility.yul\":11592:11708   */\n      pop\n      jump\t// out\n        /* \"#utility.yul\":11714:11851   */\n    tag_147:\n        /* \"#utility.yul\":11768:11773   */\n      0x00\n        /* \"#utility.yul\":11799:11805   */\n      dup2\n        /* \"#utility.yul\":11793:11806   */\n      mload\n        /* \"#utility.yul\":11784:11806   */\n      swap1\n      pop\n        /* \"#utility.yul\":11815:11845   */\n      tag_270\n        /* \"#utility.yul\":11839:11844   */\n      dup2\n        /* \"#utility.yul\":11815:11845   */\n      tag_146\n      jump\t// in\n    tag_270:\n        /* \"#utility.yul\":11714:11851   */\n      swap3\n      swap2\n      pop\n      pop\n      jump\t// out\n        /* \"#utility.yul\":11857:12202   */\n    tag_86:\n        /* \"#utility.yul\":11924:11930   */\n      0x00\n        /* \"#utility.yul\":11973:11975   */\n      0x20\n        /* \"#utility.yul\":11961:11970   */\n      dup3\n        /* \"#utility.yul\":11952:11959   */\n      dup5\n        /* \"#utility.yul\":11948:11971   */\n      sub\n        /* \"#utility.yul\":11944:11976   */\n      slt\n        /* \"#utility.yul\":11941:12060   */\n      iszero\n      tag_272\n      jumpi\n        /* \"#utility.yul\":11979:12058   */\n      tag_273\n      tag_115\n      jump\t// in\n    tag_273:\n        /* \"#utility.yul\":11941:12060   */\n    tag_272:\n        /* \"#utility.yul\":12099:12100   */\n      0x00\n        /* \"#utility.yul\":12124:12185   */\n      tag_274\n        /* \"#utility.yul\":12177:12184   */\n      dup5\n        /* \"#utility.yul\":12168:12174   */\n      dup3\n        /* \"#utility.yul\":12157:12166   */\n      dup6\n        /* \"#utility.yul\":12153:12175   */\n      add\n        /* \"#utility.yul\":12124:12185   */\n      tag_147\n      jump\t// in\n    tag_274:\n        /* \"#utility.yul\":12114:12185   */\n      swap2\n      pop\n        /* \"#utility.yul\":12070:12195   */\n      pop\n        /* \"#utility.yul\":11857:12202   */\n      swap3\n      swap2\n      pop\n      pop\n      jump\t// out\n        /* \"#utility.yul\":12208:12430   */\n    tag_89:\n        /* \"#utility.yul\":12301:12305   */\n      0x00\n        /* \"#utility.yul\":12339:12341   */\n      0x20\n        /* \"#utility.yul\":12328:12337   */\n      dup3\n        /* \"#utility.yul\":12324:12342   */\n      add\n        /* \"#utility.yul\":12316:12342   */\n      swap1\n      pop\n        /* \"#utility.yul\":12352:12423   */\n      tag_276\n        /* \"#utility.yul\":12420:12421   */\n      0x00\n        /* \"#utility.yul\":12409:12418   */\n      dup4\n        /* \"#utility.yul\":12405:12422   */\n      add\n        /* \"#utility.yul\":12396:12402   */\n      dup5\n        /* \"#utility.yul\":12352:12423   */\n      tag_144\n      jump\t// in\n    tag_276:\n        /* \"#utility.yul\":12208:12430   */\n      swap3\n      swap2\n      pop\n      pop\n      jump\t// out\n        /* \"#utility.yul\":12436:12534   */\n    tag_148:\n        /* \"#utility.yul\":12487:12493   */\n      0x00\n        /* \"#utility.yul\":12521:12526   */\n      dup2\n        /* \"#utility.yul\":12515:12527   */\n      mload\n        /* \"#utility.yul\":12505:12527   */\n      swap1\n      pop\n        /* \"#utility.yul\":12436:12534   */\n      swap2\n      swap1\n      pop\n      jump\t// out\n        /* \"#utility.yul\":12540:12687   */\n    tag_149:\n        /* \"#utility.yul\":12641:12652   */\n      0x00\n        /* \"#utility.yul\":12678:12681   */\n      dup2\n        /* \"#utility.yul\":12663:12681   */\n      swap1\n      pop\n        /* \"#utility.yul\":12540:12687   */\n      swap3\n      swap2\n      pop\n      pop\n      jump\t// out\n        /* \"#utility.yul\":12693:12832   */\n    tag_150:\n        /* \"#utility.yul\":12782:12788   */\n      dup3\n        /* \"#utility.yul\":12777:12780   */\n      dup2\n        /* \"#utility.yul\":12772:12775   */\n      dup4\n        /* \"#utility.yul\":12766:12789   */\n      mcopy\n        /* \"#utility.yul\":12823:12824   */\n      0x00\n        /* \"#utility.yul\":12814:12820   */\n      dup4\n        /* \"#utility.yul\":12809:12812   */\n      dup4\n        /* \"#utility.yul\":12805:12821   */\n      add\n        /* \"#utility.yul\":12798:12825   */\n      mstore\n        /* \"#utility.yul\":12693:12832   */\n      pop\n      pop\n      pop\n      jump\t// out\n        /* \"#utility.yul\":12838:13224   */\n    tag_151:\n        /* \"#utility.yul\":12942:12945   */\n      0x00\n        /* \"#utility.yul\":12970:13008   */\n      tag_281\n        /* \"#utility.yul\":13002:13007   */\n      dup3\n        /* \"#utility.yul\":12970:13008   */\n      tag_148\n      jump\t// in\n    tag_281:\n        /* \"#utility.yul\":13024:13112   */\n      tag_282\n        /* \"#utility.yul\":13105:13111   */\n      dup2\n        /* \"#utility.yul\":13100:13103   */\n      dup6\n        /* \"#utility.yul\":13024:13112   */\n      tag_149\n      jump\t// in\n    tag_282:\n        /* \"#utility.yul\":13017:13112   */\n      swap4\n      pop\n        /* \"#utility.yul\":13121:13186   */\n      tag_283\n        /* \"#utility.yul\":13179:13185   */\n      dup2\n        /* \"#utility.yul\":13174:13177   */\n      dup6\n        /* \"#utility.yul\":13167:13171   */\n      0x20\n        /* \"#utility.yul\":13160:13165   */\n      dup7\n        /* \"#utility.yul\":13156:13172   */\n      add\n        /* \"#utility.yul\":13121:13186   */\n      tag_150\n      jump\t// in\n    tag_283:\n        /* \"#utility.yul\":13211:13217   */\n      dup1\n        /* \"#utility.yul\":13206:13209   */\n      dup5\n        /* \"#utility.yul\":13202:13218   */\n      add\n        /* \"#utility.yul\":13195:13218   */\n      swap2\n      pop\n        /* \"#utility.yul\":12946:13224   */\n      pop\n        /* \"#utility.yul\":12838:13224   */\n      swap3\n      swap2\n      pop\n      pop\n      jump\t// out\n        /* \"#utility.yul\":13230:13501   */\n    tag_97:\n        /* \"#utility.yul\":13360:13363   */\n      0x00\n        /* \"#utility.yul\":13382:13475   */\n      tag_285\n        /* \"#utility.yul\":13471:13474   */\n      dup3\n        /* \"#utility.yul\":13462:13468   */\n      dup5\n        /* \"#utility.yul\":13382:13475   */\n      tag_151\n      jump\t// in\n    tag_285:\n        /* \"#utility.yul\":13375:13475   */\n      swap2\n      pop\n        /* \"#utility.yul\":13492:13495   */\n      dup2\n        /* \"#utility.yul\":13485:13495   */\n      swap1\n      pop\n        /* \"#utility.yul\":13230:13501   */\n      swap3\n      swap2\n      pop\n      pop\n      jump\t// out\n\n    auxdata: 0xa264697066735822122044b4302fc97884ce148ec6a88c54540b26536785891e0c887f4164f111d6038d64736f6c634300081e0033\n}\n",
				"bytecode": {
					"linkReferences": {},
					"object": "6080604052348015600e575f5ffd5b5061114c8061001c5f395ff3fe608060405234801561000f575f5ffd5b5060043610610055575f3560e01c806347e7ef2414610059578063c23f001f14610075578063d1c07028146100a5578063d4fac45d146100d5578063f3fef3a314610105575b5f5ffd5b610073600480360381019061006e9190610b31565b610121565b005b61008f600480360381019061008a9190610b6f565b6102f4565b60405161009c9190610bbc565b60405180910390f35b6100bf60048036038101906100ba9190610c36565b610313565b6040516100cc9190610d4a565b60405180910390f35b6100ef60048036038101906100ea9190610b6f565b61044b565b6040516100fc9190610bbc565b60405180910390f35b61011f600480360381019061011a9190610b31565b6104cc565b005b5f73ffffffffffffffffffffffffffffffffffffffff168273ffffffffffffffffffffffffffffffffffffffff160361018f576040517f08c379a000000000000000000000000000000000000000000000000000000000815260040161018690610dc4565b60405180910390fd5b5f81116101d1576040517f08c379a00000000000000000000000000000000000000000000000000000000081526004016101c890610e2c565b60405180910390fd5b6101fe3330838573ffffffffffffffffffffffffffffffffffffffff16610757909392919063ffffffff16565b805f5f3373ffffffffffffffffffffffffffffffffffffffff1673ffffffffffffffffffffffffffffffffffffffff1681526020019081526020015f205f8473ffffffffffffffffffffffffffffffffffffffff1673ffffffffffffffffffffffffffffffffffffffff1681526020019081526020015f205f8282546102849190610e77565b925050819055503373ffffffffffffffffffffffffffffffffffffffff168273ffffffffffffffffffffffffffffffffffffffff167f5548c837ab068cf56a2c2479df0882a4922fd203edb7517321831d95078c5f62836040516102e89190610bbc565b60405180910390a35050565b5f602052815f5260405f20602052805f5260405f205f91509150505481565b60605f8484905067ffffffffffffffff81111561033357610332610eaa565b5b6040519080825280602002602001820160405280156103615781602001602082028036833780820191505090505b5090505f5f90505b8585905081101561043f575f5f8573ffffffffffffffffffffffffffffffffffffffff1673ffffffffffffffffffffffffffffffffffffffff1681526020019081526020015f205f8787848181106103c4576103c3610ed7565b5b90506020020160208101906103d99190610f04565b73ffffffffffffffffffffffffffffffffffffffff1673ffffffffffffffffffffffffffffffffffffffff1681526020019081526020015f205482828151811061042657610425610ed7565b5b6020026020010181815250508080600101915050610369565b50809150509392505050565b5f5f5f8373ffffffffffffffffffffffffffffffffffffffff1673ffffffffffffffffffffffffffffffffffffffff1681526020019081526020015f205f8473ffffffffffffffffffffffffffffffffffffffff1673ffffffffffffffffffffffffffffffffffffffff1681526020019081526020015f2054905092915050565b5f73ffffffffffffffffffffffffffffffffffffffff168273ffffffffffffffffffffffffffffffffffffffff160361053a576040517f08c379a000000000000000000000000000000000000000000000000000000000815260040161053190610dc4565b60405180910390fd5b5f811161057c576040517f08c379a000000000000000000000000000000000000000000000000000000000815260040161057390610e2c565b60405180910390fd5b805f5f3373ffffffffffffffffffffffffffffffffffffffff1673ffffffffffffffffffffffffffffffffffffffff1681526020019081526020015f205f8473ffffffffffffffffffffffffffffffffffffffff1673ffffffffffffffffffffffffffffffffffffffff1681526020019081526020015f20541015610636576040517f08c379a000000000000000000000000000000000000000000000000000000000815260040161062d90610f79565b60405180910390fd5b805f5f3373ffffffffffffffffffffffffffffffffffffffff1673ffffffffffffffffffffffffffffffffffffffff1681526020019081526020015f205f8473ffffffffffffffffffffffffffffffffffffffff1673ffffffffffffffffffffffffffffffffffffffff1681526020019081526020015f205f8282546106bc9190610f97565b925050819055506106ee33828473ffffffffffffffffffffffffffffffffffffffff166107d99092919063ffffffff16565b3373ffffffffffffffffffffffffffffffffffffffff168273ffffffffffffffffffffffffffffffffffffffff167f9b1bfa7fa9ee420a16e124f794c35ac9f90472acc99140eb2f6447c714cad8eb8360405161074b9190610bbc565b60405180910390a35050565b6107d3848573ffffffffffffffffffffffffffffffffffffffff166323b872dd86868660405160240161078c93929190610fd9565b604051602081830303815290604052915060e01b6020820180517bffffffffffffffffffffffffffffffffffffffffffffffffffffffff8381831617835250505050610858565b50505050565b610853838473ffffffffffffffffffffffffffffffffffffffff1663a9059cbb858560405160240161080c92919061100e565b604051602081830303815290604052915060e01b6020820180517bffffffffffffffffffffffffffffffffffffffffffffffffffffffff8381831617835250505050610858565b505050565b5f610882828473ffffffffffffffffffffffffffffffffffffffff166108ed90919063ffffffff16565b90505f8151141580156108a65750808060200190518101906108a4919061106a565b155b156108e857826040517f5274afe70000000000000000000000000000000000000000000000000000000081526004016108df9190611095565b60405180910390fd5b505050565b60606108fa83835f610902565b905092915050565b60608147101561094957306040517fcd7860590000000000000000000000000000000000000000000000000000000081526004016109409190611095565b60405180910390fd5b5f5f8573ffffffffffffffffffffffffffffffffffffffff1684866040516109719190611100565b5f6040518083038185875af1925050503d805f81146109ab576040519150601f19603f3d011682016040523d82523d5f602084013e6109b0565b606091505b50915091506109c08683836109cb565b925050509392505050565b6060826109e0576109db82610a58565b610a50565b5f8251148015610a0657505f8473ffffffffffffffffffffffffffffffffffffffff163b145b15610a4857836040517f9996b315000000000000000000000000000000000000000000000000000000008152600401610a3f9190611095565b60405180910390fd5b819050610a51565b5b9392505050565b5f81511115610a6a5780518082602001fd5b6040517f1425ea4200000000000000000000000000000000000000000000000000000000815260040160405180910390fd5b5f5ffd5b5f5ffd5b5f73ffffffffffffffffffffffffffffffffffffffff82169050919050565b5f610acd82610aa4565b9050919050565b610add81610ac3565b8114610ae7575f5ffd5b50565b5f81359050610af881610ad4565b92915050565b5f819050919050565b610b1081610afe565b8114610b1a575f5ffd5b50565b5f81359050610b2b81610b07565b92915050565b5f5f60408385031215610b4757610b46610a9c565b5b5f610b5485828601610aea565b9250506020610b6585828601610b1d565b9150509250929050565b5f5f60408385031215610b8557610b84610a9c565b5b5f610b9285828601610aea565b9250506020610ba385828601610aea565b9150509250929050565b610bb681610afe565b82525050565b5f602082019050610bcf5f830184610bad565b92915050565b5f5ffd5b5f5ffd5b5f5ffd5b5f5f83601f840112610bf657610bf5610bd5565b5b8235905067ffffffffffffffff811115610c1357610c12610bd9565b5b602083019150836020820283011115610c2f57610c2e610bdd565b5b9250929050565b5f5f5f60408486031215610c4d57610c4c610a9c565b5b5f84013567ffffffffffffffff811115610c6a57610c69610aa0565b5b610c7686828701610be1565b93509350506020610c8986828701610aea565b9150509250925092565b5f81519050919050565b5f82825260208201905092915050565b5f819050602082019050919050565b610cc581610afe565b82525050565b5f610cd68383610cbc565b60208301905092915050565b5f602082019050919050565b5f610cf882610c93565b610d028185610c9d565b9350610d0d83610cad565b805f5b83811015610d3d578151610d248882610ccb565b9750610d2f83610ce2565b925050600181019050610d10565b5085935050505092915050565b5f6020820190508181035f830152610d628184610cee565b905092915050565b5f82825260208201905092915050565b7f496e76616c696420746f6b656e206164647265737300000000000000000000005f82015250565b5f610dae601583610d6a565b9150610db982610d7a565b602082019050919050565b5f6020820190508181035f830152610ddb81610da2565b9050919050565b7f416d6f756e74206d7573742062652067726561746572207468616e20300000005f82015250565b5f610e16601d83610d6a565b9150610e2182610de2565b602082019050919050565b5f6020820190508181035f830152610e4381610e0a565b9050919050565b7f4e487b71000000000000000000000000000000000000000000000000000000005f52601160045260245ffd5b5f610e8182610afe565b9150610e8c83610afe565b9250828201905080821115610ea457610ea3610e4a565b5b92915050565b7f4e487b71000000000000000000000000000000000000000000000000000000005f52604160045260245ffd5b7f4e487b71000000000000000000000000000000000000000000000000000000005f52603260045260245ffd5b5f60208284031215610f1957610f18610a9c565b5b5f610f2684828501610aea565b91505092915050565b7f496e73756666696369656e742062616c616e63650000000000000000000000005f82015250565b5f610f63601483610d6a565b9150610f6e82610f2f565b602082019050919050565b5f6020820190508181035f830152610f9081610f57565b9050919050565b5f610fa182610afe565b9150610fac83610afe565b9250828203905081811115610fc457610fc3610e4a565b5b92915050565b610fd381610ac3565b82525050565b5f606082019050610fec5f830186610fca565b610ff96020830185610fca565b6110066040830184610bad565b949350505050565b5f6040820190506110215f830185610fca565b61102e6020830184610bad565b9392505050565b5f8115159050919050565b61104981611035565b8114611053575f5ffd5b50565b5f8151905061106481611040565b92915050565b5f6020828403121561107f5761107e610a9c565b5b5f61108c84828501611056565b91505092915050565b5f6020820190506110a85f830184610fca565b92915050565b5f81519050919050565b5f81905092915050565b8281835e5f83830152505050565b5f6110da826110ae565b6110e481856110b8565b93506110f48185602086016110c2565b80840191505092915050565b5f61110b82846110d0565b91508190509291505056fea264697066735822122044b4302fc97884ce148ec6a88c54540b26536785891e0c887f4164f111d6038d64736f6c634300081e0033",
					"opcodes": "PUSH1 0x80 PUSH1 0x40 MSTORE CALLVALUE DUP1 ISZERO PUSH1 0xE JUMPI PUSH0 PUSH0 REVERT JUMPDEST POP PUSH2 0x114C DUP1 PUSH2 0x1C PUSH0 CODECOPY PUSH0 RETURN INVALID PUSH1 0x80 PUSH1 0x40 MSTORE CALLVALUE DUP1 ISZERO PUSH2 0xF JUMPI PUSH0 PUSH0 REVERT JUMPDEST POP PUSH1 0x4 CALLDATASIZE LT PUSH2 0x55 JUMPI PUSH0 CALLDATALOAD PUSH1 0xE0 SHR DUP1 PUSH4 0x47E7EF24 EQ PUSH2 0x59 JUMPI DUP1 PUSH4 0xC23F001F EQ PUSH2 0x75 JUMPI DUP1 PUSH4 0xD1C07028 EQ PUSH2 0xA5 JUMPI DUP1 PUSH4 0xD4FAC45D EQ PUSH2 0xD5 JUMPI DUP1 PUSH4 0xF3FEF3A3 EQ PUSH2 0x105 JUMPI JUMPDEST PUSH0 PUSH0 REVERT JUMPDEST PUSH2 0x73 PUSH1 0x4 DUP1 CALLDATASIZE SUB DUP2 ADD SWAP1 PUSH2 0x6E SWAP2 SWAP1 PUSH2 0xB31 JUMP JUMPDEST PUSH2 0x121 JUMP JUMPDEST STOP JUMPDEST PUSH2 0x8F PUSH1 0x4 DUP1 CALLDATASIZE SUB DUP2 ADD SWAP1 PUSH2 0x8A SWAP2 SWAP1 PUSH2 0xB6F JUMP JUMPDEST PUSH2 0x2F4 JUMP JUMPDEST PUSH1 0x40 MLOAD PUSH2 0x9C SWAP2 SWAP1 PUSH2 0xBBC JUMP JUMPDEST PUSH1 0x40 MLOAD DUP1 SWAP2 SUB SWAP1 RETURN JUMPDEST PUSH2 0xBF PUSH1 0x4 DUP1 CALLDATASIZE SUB DUP2 ADD SWAP1 PUSH2 0xBA SWAP2 SWAP1 PUSH2 0xC36 JUMP JUMPDEST PUSH2 0x313 JUMP JUMPDEST PUSH1 0x40 MLOAD PUSH2 0xCC SWAP2 SWAP1 PUSH2 0xD4A JUMP JUMPDEST PUSH1 0x40 MLOAD DUP1 SWAP2 SUB SWAP1 RETURN JUMPDEST PUSH2 0xEF PUSH1 0x4 DUP1 CALLDATASIZE SUB DUP2 ADD SWAP1 PUSH2 0xEA SWAP2 SWAP1 PUSH2 0xB6F JUMP JUMPDEST PUSH2 0x44B JUMP JUMPDEST PUSH1 0x40 MLOAD PUSH2 0xFC SWAP2 SWAP1 PUSH2 0xBBC JUMP JUMPDEST PUSH1 0x40 MLOAD DUP1 SWAP2 SUB SWAP1 RETURN JUMPDEST PUSH2 0x11F PUSH1 0x4 DUP1 CALLDATASIZE SUB DUP2 ADD SWAP1 PUSH2 0x11A SWAP2 SWAP1 PUSH2 0xB31 JUMP JUMPDEST PUSH2 0x4CC JUMP JUMPDEST STOP JUMPDEST PUSH0 PUSH20 0xFFFFFFFFFFFFFFFFFFFFFFFFFFFFFFFFFFFFFFFF AND DUP3 PUSH20 0xFFFFFFFFFFFFFFFFFFFFFFFFFFFFFFFFFFFFFFFF AND SUB PUSH2 0x18F JUMPI PUSH1 0x40 MLOAD PUSH32 0x8C379A000000000000000000000000000000000000000000000000000000000 DUP2 MSTORE PUSH1 0x4 ADD PUSH2 0x186 SWAP1 PUSH2 0xDC4 JUMP JUMPDEST PUSH1 0x40 MLOAD DUP1 SWAP2 SUB SWAP1 REVERT JUMPDEST PUSH0 DUP2 GT PUSH2 0x1D1 JUMPI PUSH1 0x40 MLOAD PUSH32 0x8C379A000000000000000000000000000000000000000000000000000000000 DUP2 MSTORE PUSH1 0x4 ADD PUSH2 0x1C8 SWAP1 PUSH2 0xE2C JUMP JUMPDEST PUSH1 0x40 MLOAD DUP1 SWAP2 SUB SWAP1 REVERT JUMPDEST PUSH2 0x1FE CALLER ADDRESS DUP4 DUP6 PUSH20 0xFFFFFFFFFFFFFFFFFFFFFFFFFFFFFFFFFFFFFFFF AND PUSH2 0x757 SWAP1 SWAP4 SWAP3 SWAP2 SWAP1 PUSH4 0xFFFFFFFF AND JUMP JUMPDEST DUP1 PUSH0 PUSH0 CALLER PUSH20 0xFFFFFFFFFFFFFFFFFFFFFFFFFFFFFFFFFFFFFFFF AND PUSH20 0xFFFFFFFFFFFFFFFFFFFFFFFFFFFFFFFFFFFFFFFF AND DUP2 MSTORE PUSH1 0x20 ADD SWAP1 DUP2 MSTORE PUSH1 0x20 ADD PUSH0 KECCAK256 PUSH0 DUP5 PUSH20 0xFFFFFFFFFFFFFFFFFFFFFFFFFFFFFFFFFFFFFFFF AND PUSH20 0xFFFFFFFFFFFFFFFFFFFFFFFFFFFFFFFFFFFFFFFF AND DUP2 MSTORE PUSH1 0x20 ADD SWAP1 DUP2 MSTORE PUSH1 0x20 ADD PUSH0 KECCAK256 PUSH0 DUP3 DUP3 SLOAD PUSH2 0x284 SWAP2 SWAP1 PUSH2 0xE77 JUMP JUMPDEST SWAP3 POP POP DUP2 SWAP1 SSTORE POP CALLER PUSH20 0xFFFFFFFFFFFFFFFFFFFFFFFFFFFFFFFFFFFFFFFF AND DUP3 PUSH20 0xFFFFFFFFFFFFFFFFFFFFFFFFFFFFFFFFFFFFFFFF AND PUSH32 0x5548C837AB068CF56A2C2479DF0882A4922FD203EDB7517321831D95078C5F62 DUP4 PUSH1 0x40 MLOAD PUSH2 0x2E8 SWAP2 SWAP1 PUSH2 0xBBC JUMP JUMPDEST PUSH1 0x40 MLOAD DUP1 SWAP2 SUB SWAP1 LOG3 POP POP JUMP JUMPDEST PUSH0 PUSH1 0x20 MSTORE DUP2 PUSH0 MSTORE PUSH1 0x40 PUSH0 KECCAK256 PUSH1 0x20 MSTORE DUP1 PUSH0 MSTORE PUSH1 0x40 PUSH0 KECCAK256 PUSH0 SWAP2 POP SWAP2 POP POP SLOAD DUP2 JUMP JUMPDEST PUSH1 0x60 PUSH0 DUP5 DUP5 SWAP1 POP PUSH8 0xFFFFFFFFFFFFFFFF DUP2 GT ISZERO PUSH2 0x333 JUMPI PUSH2 0x332 PUSH2 0xEAA JUMP JUMPDEST JUMPDEST PUSH1 0x40 MLOAD SWAP1 DUP1 DUP3 MSTORE DUP1 PUSH1 0x20 MUL PUSH1 0x20 ADD DUP3 ADD PUSH1 0x40 MSTORE DUP1 ISZERO PUSH2 0x361 JUMPI DUP2 PUSH1 0x20 ADD PUSH1 0x20 DUP3 MUL DUP1 CALLDATASIZE DUP4 CALLDATACOPY DUP1 DUP3 ADD SWAP2 POP POP SWAP1 POP JUMPDEST POP SWAP1 POP PUSH0 PUSH0 SWAP1 POP JUMPDEST DUP6 DUP6 SWAP1 POP DUP2 LT ISZERO PUSH2 0x43F JUMPI PUSH0 PUSH0 DUP6 PUSH20 0xFFFFFFFFFFFFFFFFFFFFFFFFFFFFFFFFFFFFFFFF AND PUSH20 0xFFFFFFFFFFFFFFFFFFFFFFFFFFFFFFFFFFFFFFFF AND DUP2 MSTORE PUSH1 0x20 ADD SWAP1 DUP2 MSTORE PUSH1 0x20 ADD PUSH0 KECCAK256 PUSH0 DUP8 DUP8 DUP5 DUP2 DUP2 LT PUSH2 0x3C4 JUMPI PUSH2 0x3C3 PUSH2 0xED7 JUMP JUMPDEST JUMPDEST SWAP1 POP PUSH1 0x20 MUL ADD PUSH1 0x20 DUP2 ADD SWAP1 PUSH2 0x3D9 SWAP2 SWAP1 PUSH2 0xF04 JUMP JUMPDEST PUSH20 0xFFFFFFFFFFFFFFFFFFFFFFFFFFFFFFFFFFFFFFFF AND PUSH20 0xFFFFFFFFFFFFFFFFFFFFFFFFFFFFFFFFFFFFFFFF AND DUP2 MSTORE PUSH1 0x20 ADD SWAP1 DUP2 MSTORE PUSH1 0x20 ADD PUSH0 KECCAK256 SLOAD DUP3 DUP3 DUP2 MLOAD DUP2 LT PUSH2 0x426 JUMPI PUSH2 0x425 PUSH2 0xED7 JUMP JUMPDEST JUMPDEST PUSH1 0x20 MUL PUSH1 0x20 ADD ADD DUP2 DUP2 MSTORE POP POP DUP1 DUP1 PUSH1 0x1 ADD SWAP2 POP POP PUSH2 0x369 JUMP JUMPDEST POP DUP1 SWAP2 POP POP SWAP4 SWAP3 POP POP POP JUMP JUMPDEST PUSH0 PUSH0 PUSH0 DUP4 PUSH20 0xFFFFFFFFFFFFFFFFFFFFFFFFFFFFFFFFFFFFFFFF AND PUSH20 0xFFFFFFFFFFFFFFFFFFFFFFFFFFFFFFFFFFFFFFFF AND DUP2 MSTORE PUSH1 0x20 ADD SWAP1 DUP2 MSTORE PUSH1 0x20 ADD PUSH0 KECCAK256 PUSH0 DUP5 PUSH20 0xFFFFFFFFFFFFFFFFFFFFFFFFFFFFFFFFFFFFFFFF AND PUSH20 0xFFFFFFFFFFFFFFFFFFFFFFFFFFFFFFFFFFFFFFFF AND DUP2 MSTORE PUSH1 0x20 ADD SWAP1 DUP2 MSTORE PUSH1 0x20 ADD PUSH0 KECCAK256 SLOAD SWAP1 POP SWAP3 SWAP2 POP POP JUMP JUMPDEST PUSH0 PUSH20 0xFFFFFFFFFFFFFFFFFFFFFFFFFFFFFFFFFFFFFFFF AND DUP3 PUSH20 0xFFFFFFFFFFFFFFFFFFFFFFFFFFFFFFFFFFFFFFFF AND SUB PUSH2 0x53A JUMPI PUSH1 0x40 MLOAD PUSH32 0x8C379A000000000000000000000000000000000000000000000000000000000 DUP2 MSTORE PUSH1 0x4 ADD PUSH2 0x531 SWAP1 PUSH2 0xDC4 JUMP JUMPDEST PUSH1 0x40 MLOAD DUP1 SWAP2 SUB SWAP1 REVERT JUMPDEST PUSH0 DUP2 GT PUSH2 0x57C JUMPI PUSH1 0x40 MLOAD PUSH32 0x8C379A000000000000000000000000000000000000000000000000000000000 DUP2 MSTORE PUSH1 0x4 ADD PUSH2 0x573 SWAP1 PUSH2 0xE2C JUMP JUMPDEST PUSH1 0x40 MLOAD DUP1 SWAP2 SUB SWAP1 REVERT JUMPDEST DUP1 PUSH0 PUSH0 CALLER PUSH20 0xFFFFFFFFFFFFFFFFFFFFFFFFFFFFFFFFFFFFFFFF AND PUSH20 0xFFFFFFFFFFFFFFFFFFFFFFFFFFFFFFFFFFFFFFFF AND DUP2 MSTORE PUSH1 0x20 ADD SWAP1 DUP2 MSTORE PUSH1 0x20 ADD PUSH0 KECCAK256 PUSH0 DUP5 PUSH20 0xFFFFFFFFFFFFFFFFFFFFFFFFFFFFFFFFFFFFFFFF AND PUSH20 0xFFFFFFFFFFFFFFFFFFFFFFFFFFFFFFFFFFFFFFFF AND DUP2 MSTORE PUSH1 0x20 ADD SWAP1 DUP2 MSTORE PUSH1 0x20 ADD PUSH0 KECCAK256 SLOAD LT ISZERO PUSH2 0x636 JUMPI PUSH1 0x40 MLOAD PUSH32 0x8C379A000000000000000000000000000000000000000000000000000000000 DUP2 MSTORE PUSH1 0x4 ADD PUSH2 0x62D SWAP1 PUSH2 0xF79 JUMP JUMPDEST PUSH1 0x40 MLOAD DUP1 SWAP2 SUB SWAP1 REVERT JUMPDEST DUP1 PUSH0 PUSH0 CALLER PUSH20 0xFFFFFFFFFFFFFFFFFFFFFFFFFFFFFFFFFFFFFFFF AND PUSH20 0xFFFFFFFFFFFFFFFFFFFFFFFFFFFFFFFFFFFFFFFF AND DUP2 MSTORE PUSH1 0x20 ADD SWAP1 DUP2 MSTORE PUSH1 0x20 ADD PUSH0 KECCAK256 PUSH0 DUP5 PUSH20 0xFFFFFFFFFFFFFFFFFFFFFFFFFFFFFFFFFFFFFFFF AND PUSH20 0xFFFFFFFFFFFFFFFFFFFFFFFFFFFFFFFFFFFFFFFF AND DUP2 MSTORE PUSH1 0x20 ADD SWAP1 DUP2 MSTORE PUSH1 0x20 ADD PUSH0 KECCAK256 PUSH0 DUP3 DUP3 SLOAD PUSH2 0x6BC SWAP2 SWAP1 PUSH2 0xF97 JUMP JUMPDEST SWAP3 POP POP DUP2 SWAP1 SSTORE POP PUSH2 0x6EE CALLER DUP3 DUP5 PUSH20 0xFFFFFFFFFFFFFFFFFFFFFFFFFFFFFFFFFFFFFFFF AND PUSH2 0x7D9 SWAP1 SWAP3 SWAP2 SWAP1 PUSH4 0xFFFFFFFF AND JUMP JUMPDEST CALLER PUSH20 0xFFFFFFFFFFFFFFFFFFFFFFFFFFFFFFFFFFFFFFFF AND DUP3 PUSH20 0xFFFFFFFFFFFFFFFFFFFFFFFFFFFFFFFFFFFFFFFF AND PUSH32 0x9B1BFA7FA9EE420A16E124F794C35AC9F90472ACC99140EB2F6447C714CAD8EB DUP4 PUSH1 0x40 MLOAD PUSH2 0x74B SWAP2 SWAP1 PUSH2 0xBBC JUMP JUMPDEST PUSH1 0x40 MLOAD DUP1 SWAP2 SUB SWAP1 LOG3 POP POP JUMP JUMPDEST PUSH2 0x7D3 DUP5 DUP6 PUSH20 0xFFFFFFFFFFFFFFFFFFFFFFFFFFFFFFFFFFFFFFFF AND PUSH4 0x23B872DD DUP7 DUP7 DUP7 PUSH1 0x40 MLOAD PUSH1 0x24 ADD PUSH2 0x78C SWAP4 SWAP3 SWAP2 SWAP1 PUSH2 0xFD9 JUMP JUMPDEST PUSH1 0x40 MLOAD PUSH1 0x20 DUP2 DUP4 SUB SUB DUP2 MSTORE SWAP1 PUSH1 0x40 MSTORE SWAP2 POP PUSH1 0xE0 SHL PUSH1 0x20 DUP3 ADD DUP1 MLOAD PUSH28 0xFFFFFFFFFFFFFFFFFFFFFFFFFFFFFFFFFFFFFFFFFFFFFFFFFFFFFFFF DUP4 DUP2 DUP4 AND OR DUP4 MSTORE POP POP POP POP PUSH2 0x858 JUMP JUMPDEST POP POP POP POP JUMP JUMPDEST PUSH2 0x853 DUP4 DUP5 PUSH20 0xFFFFFFFFFFFFFFFFFFFFFFFFFFFFFFFFFFFFFFFF AND PUSH4 0xA9059CBB DUP6 DUP6 PUSH1 0x40 MLOAD PUSH1 0x24 ADD PUSH2 0x80C SWAP3 SWAP2 SWAP1 PUSH2 0x100E JUMP JUMPDEST PUSH1 0x40 MLOAD PUSH1 0x20 DUP2 DUP4 SUB SUB DUP2 MSTORE SWAP1 PUSH1 0x40 MSTORE SWAP2 POP PUSH1 0xE0 SHL PUSH1 0x20 DUP3 ADD DUP1 MLOAD PUSH28 0xFFFFFFFFFFFFFFFFFFFFFFFFFFFFFFFFFFFFFFFFFFFFFFFFFFFFFFFF DUP4 DUP2 DUP4 AND OR DUP4 MSTORE POP POP POP POP PUSH2 0x858 JUMP JUMPDEST POP POP POP JUMP JUMPDEST PUSH0 PUSH2 0x882 DUP3 DUP5 PUSH20 0xFFFFFFFFFFFFFFFFFFFFFFFFFFFFFFFFFFFFFFFF AND PUSH2 0x8ED SWAP1 SWAP2 SWAP1 PUSH4 0xFFFFFFFF AND JUMP JUMPDEST SWAP1 POP PUSH0 DUP2 MLOAD EQ ISZERO DUP1 ISZERO PUSH2 0x8A6 JUMPI POP DUP1 DUP1 PUSH1 0x20 ADD SWAP1 MLOAD DUP2 ADD SWAP1 PUSH2 0x8A4 SWAP2 SWAP1 PUSH2 0x106A JUMP JUMPDEST ISZERO JUMPDEST ISZERO PUSH2 0x8E8 JUMPI DUP3 PUSH1 0x40 MLOAD PUSH32 0x5274AFE700000000000000000000000000000000000000000000000000000000 DUP2 MSTORE PUSH1 0x4 ADD PUSH2 0x8DF SWAP2 SWAP1 PUSH2 0x1095 JUMP JUMPDEST PUSH1 0x40 MLOAD DUP1 SWAP2 SUB SWAP1 REVERT JUMPDEST POP POP POP JUMP JUMPDEST PUSH1 0x60 PUSH2 0x8FA DUP4 DUP4 PUSH0 PUSH2 0x902 JUMP JUMPDEST SWAP1 POP SWAP3 SWAP2 POP POP JUMP JUMPDEST PUSH1 0x60 DUP2 SELFBALANCE LT ISZERO PUSH2 0x949 JUMPI ADDRESS PUSH1 0x40 MLOAD PUSH32 0xCD78605900000000000000000000000000000000000000000000000000000000 DUP2 MSTORE PUSH1 0x4 ADD PUSH2 0x940 SWAP2 SWAP1 PUSH2 0x1095 JUMP JUMPDEST PUSH1 0x40 MLOAD DUP1 SWAP2 SUB SWAP1 REVERT JUMPDEST PUSH0 PUSH0 DUP6 PUSH20 0xFFFFFFFFFFFFFFFFFFFFFFFFFFFFFFFFFFFFFFFF AND DUP5 DUP7 PUSH1 0x40 MLOAD PUSH2 0x971 SWAP2 SWAP1 PUSH2 0x1100 JUMP JUMPDEST PUSH0 PUSH1 0x40 MLOAD DUP1 DUP4 SUB DUP2 DUP6 DUP8 GAS CALL SWAP3 POP POP POP RETURNDATASIZE DUP1 PUSH0 DUP2 EQ PUSH2 0x9AB JUMPI PUSH1 0x40 MLOAD SWAP2 POP PUSH1 0x1F NOT PUSH1 0x3F RETURNDATASIZE ADD AND DUP3 ADD PUSH1 0x40 MSTORE RETURNDATASIZE DUP3 MSTORE RETURNDATASIZE PUSH0 PUSH1 0x20 DUP5 ADD RETURNDATACOPY PUSH2 0x9B0 JUMP JUMPDEST PUSH1 0x60 SWAP2 POP JUMPDEST POP SWAP2 POP SWAP2 POP PUSH2 0x9C0 DUP7 DUP4 DUP4 PUSH2 0x9CB JUMP JUMPDEST SWAP3 POP POP POP SWAP4 SWAP3 POP POP POP JUMP JUMPDEST PUSH1 0x60 DUP3 PUSH2 0x9E0 JUMPI PUSH2 0x9DB DUP3 PUSH2 0xA58 JUMP JUMPDEST PUSH2 0xA50 JUMP JUMPDEST PUSH0 DUP3 MLOAD EQ DUP1 ISZERO PUSH2 0xA06 JUMPI POP PUSH0 DUP5 PUSH20 0xFFFFFFFFFFFFFFFFFFFFFFFFFFFFFFFFFFFFFFFF AND EXTCODESIZE EQ JUMPDEST ISZERO PUSH2 0xA48 JUMPI DUP4 PUSH1 0x40 MLOAD PUSH32 0x9996B31500000000000000000000000000000000000000000000000000000000 DUP2 MSTORE PUSH1 0x4 ADD PUSH2 0xA3F SWAP2 SWAP1 PUSH2 0x1095 JUMP JUMPDEST PUSH1 0x40 MLOAD DUP1 SWAP2 SUB SWAP1 REVERT JUMPDEST DUP2 SWAP1 POP PUSH2 0xA51 JUMP JUMPDEST JUMPDEST SWAP4 SWAP3 POP POP POP JUMP JUMPDEST PUSH0 DUP2 MLOAD GT ISZERO PUSH2 0xA6A JUMPI DUP1 MLOAD DUP1 DUP3 PUSH1 0x20 ADD REVERT JUMPDEST PUSH1 0x40 MLOAD PUSH32 0x1425EA4200000000000000000000000000000000000000000000000000000000 DUP2 MSTORE PUSH1 0x4 ADD PUSH1 0x40 MLOAD DUP1 SWAP2 SUB SWAP1 REVERT JUMPDEST PUSH0 PUSH0 REVERT JUMPDEST PUSH0 PUSH0 REVERT JUMPDEST PUSH0 PUSH20 0xFFFFFFFFFFFFFFFFFFFFFFFFFFFFFFFFFFFFFFFF DUP3 AND SWAP1 POP SWAP2 SWAP1 POP JUMP JUMPDEST PUSH0 PUSH2 0xACD DUP3 PUSH2 0xAA4 JUMP JUMPDEST SWAP1 POP SWAP2 SWAP1 POP JUMP JUMPDEST PUSH2 0xADD DUP2 PUSH2 0xAC3 JUMP JUMPDEST DUP2 EQ PUSH2 0xAE7 JUMPI PUSH0 PUSH0 REVERT JUMPDEST POP JUMP JUMPDEST PUSH0 DUP2 CALLDATALOAD SWAP1 POP PUSH2 0xAF8 DUP2 PUSH2 0xAD4 JUMP JUMPDEST SWAP3 SWAP2 POP POP JUMP JUMPDEST PUSH0 DUP2 SWAP1 POP SWAP2 SWAP1 POP JUMP JUMPDEST PUSH2 0xB10 DUP2 PUSH2 0xAFE JUMP JUMPDEST DUP2 EQ PUSH2 0xB1A JUMPI PUSH0 PUSH0 REVERT JUMPDEST POP JUMP JUMPDEST PUSH0 DUP2 CALLDATALOAD SWAP1 POP PUSH2 0xB2B DUP2 PUSH2 0xB07 JUMP JUMPDEST SWAP3 SWAP2 POP POP JUMP JUMPDEST PUSH0 PUSH0 PUSH1 0x40 DUP4 DUP6 SUB SLT ISZERO PUSH2 0xB47 JUMPI PUSH2 0xB46 PUSH2 0xA9C JUMP JUMPDEST JUMPDEST PUSH0 PUSH2 0xB54 DUP6 DUP3 DUP7 ADD PUSH2 0xAEA JUMP JUMPDEST SWAP3 POP POP PUSH1 0x20 PUSH2 0xB65 DUP6 DUP3 DUP7 ADD PUSH2 0xB1D JUMP JUMPDEST SWAP2 POP POP SWAP3 POP SWAP3 SWAP1 POP JUMP JUMPDEST PUSH0 PUSH0 PUSH1 0x40 DUP4 DUP6 SUB SLT ISZERO PUSH2 0xB85 JUMPI PUSH2 0xB84 PUSH2 0xA9C JUMP JUMPDEST JUMPDEST PUSH0 PUSH2 0xB92 DUP6 DUP3 DUP7 ADD PUSH2 0xAEA JUMP JUMPDEST SWAP3 POP POP PUSH1 0x20 PUSH2 0xBA3 DUP6 DUP3 DUP7 ADD PUSH2 0xAEA JUMP JUMPDEST SWAP2 POP POP SWAP3 POP SWAP3 SWAP1 POP JUMP JUMPDEST PUSH2 0xBB6 DUP2 PUSH2 0xAFE JUMP JUMPDEST DUP3 MSTORE POP POP JUMP JUMPDEST PUSH0 PUSH1 0x20 DUP3 ADD SWAP1 POP PUSH2 0xBCF PUSH0 DUP4 ADD DUP5 PUSH2 0xBAD JUMP JUMPDEST SWAP3 SWAP2 POP POP JUMP JUMPDEST PUSH0 PUSH0 REVERT JUMPDEST PUSH0 PUSH0 REVERT JUMPDEST PUSH0 PUSH0 REVERT JUMPDEST PUSH0 PUSH0 DUP4 PUSH1 0x1F DUP5 ADD SLT PUSH2 0xBF6 JUMPI PUSH2 0xBF5 PUSH2 0xBD5 JUMP JUMPDEST JUMPDEST DUP3 CALLDATALOAD SWAP1 POP PUSH8 0xFFFFFFFFFFFFFFFF DUP2 GT ISZERO PUSH2 0xC13 JUMPI PUSH2 0xC12 PUSH2 0xBD9 JUMP JUMPDEST JUMPDEST PUSH1 0x20 DUP4 ADD SWAP2 POP DUP4 PUSH1 0x20 DUP3 MUL DUP4 ADD GT ISZERO PUSH2 0xC2F JUMPI PUSH2 0xC2E PUSH2 0xBDD JUMP JUMPDEST JUMPDEST SWAP3 POP SWAP3 SWAP1 POP JUMP JUMPDEST PUSH0 PUSH0 PUSH0 PUSH1 0x40 DUP5 DUP7 SUB SLT ISZERO PUSH2 0xC4D JUMPI PUSH2 0xC4C PUSH2 0xA9C JUMP JUMPDEST JUMPDEST PUSH0 DUP5 ADD CALLDATALOAD PUSH8 0xFFFFFFFFFFFFFFFF DUP2 GT ISZERO PUSH2 0xC6A JUMPI PUSH2 0xC69 PUSH2 0xAA0 JUMP JUMPDEST JUMPDEST PUSH2 0xC76 DUP7 DUP3 DUP8 ADD PUSH2 0xBE1 JUMP JUMPDEST SWAP4 POP SWAP4 POP POP PUSH1 0x20 PUSH2 0xC89 DUP7 DUP3 DUP8 ADD PUSH2 0xAEA JUMP JUMPDEST SWAP2 POP POP SWAP3 POP SWAP3 POP SWAP3 JUMP JUMPDEST PUSH0 DUP2 MLOAD SWAP1 POP SWAP2 SWAP1 POP JUMP JUMPDEST PUSH0 DUP3 DUP3 MSTORE PUSH1 0x20 DUP3 ADD SWAP1 POP SWAP3 SWAP2 POP POP JUMP JUMPDEST PUSH0 DUP2 SWAP1 POP PUSH1 0x20 DUP3 ADD SWAP1 POP SWAP2 SWAP1 POP JUMP JUMPDEST PUSH2 0xCC5 DUP2 PUSH2 0xAFE JUMP JUMPDEST DUP3 MSTORE POP POP JUMP JUMPDEST PUSH0 PUSH2 0xCD6 DUP4 DUP4 PUSH2 0xCBC JUMP JUMPDEST PUSH1 0x20 DUP4 ADD SWAP1 POP SWAP3 SWAP2 POP POP JUMP JUMPDEST PUSH0 PUSH1 0x20 DUP3 ADD SWAP1 POP SWAP2 SWAP1 POP JUMP JUMPDEST PUSH0 PUSH2 0xCF8 DUP3 PUSH2 0xC93 JUMP JUMPDEST PUSH2 0xD02 DUP2 DUP6 PUSH2 0xC9D JUMP JUMPDEST SWAP4 POP PUSH2 0xD0D DUP4 PUSH2 0xCAD JUMP JUMPDEST DUP1 PUSH0 JUMPDEST DUP4 DUP2 LT ISZERO PUSH2 0xD3D JUMPI DUP2 MLOAD PUSH2 0xD24 DUP9 DUP3 PUSH2 0xCCB JUMP JUMPDEST SWAP8 POP PUSH2 0xD2F DUP4 PUSH2 0xCE2 JUMP JUMPDEST SWAP3 POP POP PUSH1 0x1 DUP2 ADD SWAP1 POP PUSH2 0xD10 JUMP JUMPDEST POP DUP6 SWAP4 POP POP POP POP SWAP3 SWAP2 POP POP JUMP JUMPDEST PUSH0 PUSH1 0x20 DUP3 ADD SWAP1 POP DUP2 DUP2 SUB PUSH0 DUP4 ADD MSTORE PUSH2 0xD62 DUP2 DUP5 PUSH2 0xCEE JUMP JUMPDEST SWAP1 POP SWAP3 SWAP2 POP POP JUMP JUMPDEST PUSH0 DUP3 DUP3 MSTORE PUSH1 0x20 DUP3 ADD SWAP1 POP SWAP3 SWAP2 POP POP JUMP JUMPDEST PUSH32 0x496E76616C696420746F6B656E20616464726573730000000000000000000000 PUSH0 DUP3 ADD MSTORE POP JUMP JUMPDEST PUSH0 PUSH2 0xDAE PUSH1 0x15 DUP4 PUSH2 0xD6A JUMP JUMPDEST SWAP2 POP PUSH2 0xDB9 DUP3 PUSH2 0xD7A JUMP JUMPDEST PUSH1 0x20 DUP3 ADD SWAP1 POP SWAP2 SWAP1 POP JUMP JUMPDEST PUSH0 PUSH1 0x20 DUP3 ADD SWAP1 POP DUP2 DUP2 SUB PUSH0 DUP4 ADD MSTORE PUSH2 0xDDB DUP2 PUSH2 0xDA2 JUMP JUMPDEST SWAP1 POP SWAP2 SWAP1 POP JUMP JUMPDEST PUSH32 0x416D6F756E74206D7573742062652067726561746572207468616E2030000000 PUSH0 DUP3 ADD MSTORE POP JUMP JUMPDEST PUSH0 PUSH2 0xE16 PUSH1 0x1D DUP4 PUSH2 0xD6A JUMP JUMPDEST SWAP2 POP PUSH2 0xE21 DUP3 PUSH2 0xDE2 JUMP JUMPDEST PUSH1 0x20 DUP3 ADD SWAP1 POP SWAP2 SWAP1 POP JUMP JUMPDEST PUSH0 PUSH1 0x20 DUP3 ADD SWAP1 POP DUP2 DUP2 SUB PUSH0 DUP4 ADD MSTORE PUSH2 0xE43 DUP2 PUSH2 0xE0A JUMP JUMPDEST SWAP1 POP SWAP2 SWAP1 POP JUMP JUMPDEST PUSH32 0x4E487B7100000000000000000000000000000000000000000000000000000000 PUSH0 MSTORE PUSH1 0x11 PUSH1 0x4 MSTORE PUSH1 0x24 PUSH0 REVERT JUMPDEST PUSH0 PUSH2 0xE81 DUP3 PUSH2 0xAFE JUMP JUMPDEST SWAP2 POP PUSH2 0xE8C DUP4 PUSH2 0xAFE JUMP JUMPDEST SWAP3 POP DUP3 DUP3 ADD SWAP1 POP DUP1 DUP3 GT ISZERO PUSH2 0xEA4 JUMPI PUSH2 0xEA3 PUSH2 0xE4A JUMP JUMPDEST JUMPDEST SWAP3 SWAP2 POP POP JUMP JUMPDEST PUSH32 0x4E487B7100000000000000000000000000000000000000000000000000000000 PUSH0 MSTORE PUSH1 0x41 PUSH1 0x4 MSTORE PUSH1 0x24 PUSH0 REVERT JUMPDEST PUSH32 0x4E487B7100000000000000000000000000000000000000000000000000000000 PUSH0 MSTORE PUSH1 0x32 PUSH1 0x4 MSTORE PUSH1 0x24 PUSH0 REVERT JUMPDEST PUSH0 PUSH1 0x20 DUP3 DUP5 SUB SLT ISZERO PUSH2 0xF19 JUMPI PUSH2 0xF18 PUSH2 0xA9C JUMP JUMPDEST JUMPDEST PUSH0 PUSH2 0xF26 DUP5 DUP3 DUP6 ADD PUSH2 0xAEA JUMP JUMPDEST SWAP2 POP POP SWAP3 SWAP2 POP POP JUMP JUMPDEST PUSH32 0x496E73756666696369656E742062616C616E6365000000000000000000000000 PUSH0 DUP3 ADD MSTORE POP JUMP JUMPDEST PUSH0 PUSH2 0xF63 PUSH1 0x14 DUP4 PUSH2 0xD6A JUMP JUMPDEST SWAP2 POP PUSH2 0xF6E DUP3 PUSH2 0xF2F JUMP JUMPDEST PUSH1 0x20 DUP3 ADD SWAP1 POP SWAP2 SWAP1 POP JUMP JUMPDEST PUSH0 PUSH1 0x20 DUP3 ADD SWAP1 POP DUP2 DUP2 SUB PUSH0 DUP4 ADD MSTORE PUSH2 0xF90 DUP2 PUSH2 0xF57 JUMP JUMPDEST SWAP1 POP SWAP2 SWAP1 POP JUMP JUMPDEST PUSH0 PUSH2 0xFA1 DUP3 PUSH2 0xAFE JUMP JUMPDEST SWAP2 POP PUSH2 0xFAC DUP4 PUSH2 0xAFE JUMP JUMPDEST SWAP3 POP DUP3 DUP3 SUB SWAP1 POP DUP2 DUP2 GT ISZERO PUSH2 0xFC4 JUMPI PUSH2 0xFC3 PUSH2 0xE4A JUMP JUMPDEST JUMPDEST SWAP3 SWAP2 POP POP JUMP JUMPDEST PUSH2 0xFD3 DUP2 PUSH2 0xAC3 JUMP JUMPDEST DUP3 MSTORE POP POP JUMP JUMPDEST PUSH0 PUSH1 0x60 DUP3 ADD SWAP1 POP PUSH2 0xFEC PUSH0 DUP4 ADD DUP7 PUSH2 0xFCA JUMP JUMPDEST PUSH2 0xFF9 PUSH1 0x20 DUP4 ADD DUP6 PUSH2 0xFCA JUMP JUMPDEST PUSH2 0x1006 PUSH1 0x40 DUP4 ADD DUP5 PUSH2 0xBAD JUMP JUMPDEST SWAP5 SWAP4 POP POP POP POP JUMP JUMPDEST PUSH0 PUSH1 0x40 DUP3 ADD SWAP1 POP PUSH2 0x1021 PUSH0 DUP4 ADD DUP6 PUSH2 0xFCA JUMP JUMPDEST PUSH2 0x102E PUSH1 0x20 DUP4 ADD DUP5 PUSH2 0xBAD JUMP JUMPDEST SWAP4 SWAP3 POP POP POP JUMP JUMPDEST PUSH0 DUP2 ISZERO ISZERO SWAP1 POP SWAP2 SWAP1 POP JUMP JUMPDEST PUSH2 0x1049 DUP2 PUSH2 0x1035 JUMP JUMPDEST DUP2 EQ PUSH2 0x1053 JUMPI PUSH0 PUSH0 REVERT JUMPDEST POP JUMP JUMPDEST PUSH0 DUP2 MLOAD SWAP1 POP PUSH2 0x1064 DUP2 PUSH2 0x1040 JUMP JUMPDEST SWAP3 SWAP2 POP POP JUMP JUMPDEST PUSH0 PUSH1 0x20 DUP3 DUP5 SUB SLT ISZERO PUSH2 0x107F JUMPI PUSH2 0x107E PUSH2 0xA9C JUMP JUMPDEST JUMPDEST PUSH0 PUSH2 0x108C DUP5 DUP3 DUP6 ADD PUSH2 0x1056 JUMP JUMPDEST SWAP2 POP POP SWAP3 SWAP2 POP POP JUMP JUMPDEST PUSH0 PUSH1 0x20 DUP3 ADD SWAP1 POP PUSH2 0x10A8 PUSH0 DUP4 ADD DUP5 PUSH2 0xFCA JUMP JUMPDEST SWAP3 SWAP2 POP POP JUMP JUMPDEST PUSH0 DUP2 MLOAD SWAP1 POP SWAP2 SWAP1 POP JUMP JUMPDEST PUSH0 DUP2 SWAP1 POP SWAP3 SWAP2 POP POP JUMP JUMPDEST DUP3 DUP2 DUP4 MCOPY PUSH0 DUP4 DUP4 ADD MSTORE POP POP POP JUMP JUMPDEST PUSH0 PUSH2 0x10DA DUP3 PUSH2 0x10AE JUMP JUMPDEST PUSH2 0x10E4 DUP2 DUP6 PUSH2 0x10B8 JUMP JUMPDEST SWAP4 POP PUSH2 0x10F4 DUP2 DUP6 PUSH1 0x20 DUP7 ADD PUSH2 0x10C2 JUMP JUMPDEST DUP1 DUP5 ADD SWAP2 POP POP SWAP3 SWAP2 POP POP JUMP JUMPDEST PUSH0 PUSH2 0x110B DUP3 DUP5 PUSH2 0x10D0 JUMP JUMPDEST SWAP2 POP DUP2 SWAP1 POP SWAP3 SWAP2 POP POP JUMP INVALID LOG2 PUSH5 0x6970667358 0x22 SLT KECCAK256 PREVRANDAO 0xB4 ADDRESS 0x2F 0xC9 PUSH25 0x84CE148EC6A88C54540B26536785891E0C887F4164F111D603 DUP14 PUSH5 0x736F6C6343 STOP ADDMOD 0x1E STOP CALLER "
				},
				"gasEstimates": {
					"creation": {
						"codeDepositCost": "885600",
						"executionCost": "920",
						"totalCost": "886520"
					},
					"external": {
						"balances(address,address)": "infinite",
						"deposit(address,uint256)": "infinite",
						"getBalance(address,address)": "infinite",
						"getBalances(address[],address)": "infinite",
						"withdraw(address,uint256)": "infinite"
					}
				},
				"methodIdentifiers": {
					"balances(address,address)": "c23f001f",
					"deposit(address,uint256)": "47e7ef24",
					"getBalance(address,address)": "d4fac45d",
					"getBalances(address[],address)": "d1c07028",
					"withdraw(address,uint256)": "f3fef3a3"
				}
			},
			"storageLayout": {
				"storage": [
					{
						"astId": 670,
						"contract": "src/3_TokenBank.sol:TokenBank",
						"label": "balances",
						"offset": 0,
						"slot": "0",
						"type": "t_mapping(t_address,t_mapping(t_address,t_uint256))"
					}
				],
				"types": {
					"t_address": {
						"encoding": "inplace",
						"label": "address",
						"numberOfBytes": "20"
					},
					"t_mapping(t_address,t_mapping(t_address,t_uint256))": {
						"encoding": "mapping",
						"key": "t_address",
						"label": "mapping(address => mapping(address => uint256))",
						"numberOfBytes": "32",
						"value": "t_mapping(t_address,t_uint256)"
					},
					"t_mapping(t_address,t_uint256)": {
						"encoding": "mapping",
						"key": "t_address",
						"label": "mapping(address => uint256)",
						"numberOfBytes": "32",
						"value": "t_uint256"
					},
					"t_uint256": {
						"encoding": "inplace",
						"label": "uint256",
						"numberOfBytes": "32"
					}
				}
			},
			"userdoc": {
				"kind": "user",
				"methods": {},
				"version": 1
			}
		}
	}
}