{
  "_format": "hh3-artifact-1",
  "contractName": "TokenBank",
  "sourceName": "contracts/3_TokenBank.sol",
  "abi": [
    {
      "inputs": [
        {
          "internalType": "address",
          "name": "token",
          "type": "address"
        }
      ],
      "name": "SafeERC20FailedOperation",
      "type": "error"
    },
    {
      "anonymous": false,
      "inputs": [
        {
          "indexed": true,
          "internalType": "address",
          "name": "token",
          "type": "address"
        },
        {
          "indexed": true,
          "internalType": "address",
          "name": "user",
          "type": "address"
        },
        {
          "indexed": false,
          "internalType": "uint256",
          "name": "amount",
          "type": "uint256"
        }
      ],
      "name": "Deposit",
      "type": "event"
    },
    {
      "anonymous": false,
      "inputs": [
        {
          "indexed": true,
          "internalType": "address",
          "name": "token",
          "type": "address"
        },
        {
          "indexed": true,
          "internalType": "address",
          "name": "user",
          "type": "address"
        },
        {
          "indexed": false,
          "internalType": "uint256",
          "name": "amount",
          "type": "uint256"
        }
      ],
      "name": "Withdraw",
      "type": "event"
    },
    {
      "inputs": [
        {
          "internalType": "address",
          "name": "",
          "type": "address"
        },
        {
          "internalType": "address",
          "name": "",
          "type": "address"
        }
      ],
      "name": "balances",
      "outputs": [
        {
          "internalType": "uint256",
          "name": "",
          "type": "uint256"
        }
      ],
      "stateMutability": "view",
      "type": "function"
    },
    {
      "inputs": [
        {
          "internalType": "address",
          "name": "token",
          "type": "address"
        },
        {
          "internalType": "uint256",
          "name": "amount",
          "type": "uint256"
        }
      ],
      "name": "deposit",
      "outputs": [],
      "stateMutability": "nonpayable",
      "type": "function"
    },
    {
      "inputs": [
        {
          "internalType": "address",
          "name": "token",
          "type": "address"
        },
        {
          "internalType": "address",
          "name": "user",
          "type": "address"
        }
      ],
      "name": "getBalance",
      "outputs": [
        {
          "internalType": "uint256",
          "name": "",
          "type": "uint256"
        }
      ],
      "stateMutability": "view",
      "type": "function"
    },
    {
      "inputs": [
        {
          "internalType": "address[]",
          "name": "tokens",
          "type": "address[]"
        },
        {
          "internalType": "address",
          "name": "user",
          "type": "address"
        }
      ],
      "name": "getBalances",
      "outputs": [
        {
          "internalType": "uint256[]",
          "name": "",
          "type": "uint256[]"
        }
      ],
      "stateMutability": "view",
      "type": "function"
    },
    {
      "inputs": [
        {
          "internalType": "address",
          "name": "token",
          "type": "address"
        },
        {
          "internalType": "uint256",
          "name": "amount",
          "type": "uint256"
        }
      ],
      "name": "withdraw",
      "outputs": [],
      "stateMutability": "nonpayable",
      "type": "function"
    }
  ],
  "bytecode": "0x6080604052348015600e575f5ffd5b50610edb8061001c5f395ff3fe608060405234801561000f575f5ffd5b5060043610610055575f3560e01c806347e7ef2414610059578063c23f001f14610075578063d1c07028146100a5578063d4fac45d146100d5578063f3fef3a314610105575b5f5ffd5b610073600480360381019061006e9190610988565b610121565b005b61008f600480360381019061008a91906109c6565b6102f4565b60405161009c9190610a13565b60405180910390f35b6100bf60048036038101906100ba9190610a8d565b610313565b6040516100cc9190610ba1565b60405180910390f35b6100ef60048036038101906100ea91906109c6565b61044b565b6040516100fc9190610a13565b60405180910390f35b61011f600480360381019061011a9190610988565b6104cc565b005b5f73ffffffffffffffffffffffffffffffffffffffff168273ffffffffffffffffffffffffffffffffffffffff160361018f576040517f08c379a000000000000000000000000000000000000000000000000000000000815260040161018690610c1b565b60405180910390fd5b5f81116101d1576040517f08c379a00000000000000000000000000000000000000000000000000000000081526004016101c890610c83565b60405180910390fd5b6101fe3330838573ffffffffffffffffffffffffffffffffffffffff16610757909392919063ffffffff16565b805f5f3373ffffffffffffffffffffffffffffffffffffffff1673ffffffffffffffffffffffffffffffffffffffff1681526020019081526020015f205f8473ffffffffffffffffffffffffffffffffffffffff1673ffffffffffffffffffffffffffffffffffffffff1681526020019081526020015f205f8282546102849190610cce565b925050819055503373ffffffffffffffffffffffffffffffffffffffff168273ffffffffffffffffffffffffffffffffffffffff167f5548c837ab068cf56a2c2479df0882a4922fd203edb7517321831d95078c5f62836040516102e89190610a13565b60405180910390a35050565b5f602052815f5260405f20602052805f5260405f205f91509150505481565b60605f8484905067ffffffffffffffff81111561033357610332610d01565b5b6040519080825280602002602001820160405280156103615781602001602082028036833780820191505090505b5090505f5f90505b8585905081101561043f575f5f8573ffffffffffffffffffffffffffffffffffffffff1673ffffffffffffffffffffffffffffffffffffffff1681526020019081526020015f205f8787848181106103c4576103c3610d2e565b5b90506020020160208101906103d99190610d5b565b73ffffffffffffffffffffffffffffffffffffffff1673ffffffffffffffffffffffffffffffffffffffff1681526020019081526020015f205482828151811061042657610425610d2e565b5b6020026020010181815250508080600101915050610369565b50809150509392505050565b5f5f5f8373ffffffffffffffffffffffffffffffffffffffff1673ffffffffffffffffffffffffffffffffffffffff1681526020019081526020015f205f8473ffffffffffffffffffffffffffffffffffffffff1673ffffffffffffffffffffffffffffffffffffffff1681526020019081526020015f2054905092915050565b5f73ffffffffffffffffffffffffffffffffffffffff168273ffffffffffffffffffffffffffffffffffffffff160361053a576040517f08c379a000000000000000000000000000000000000000000000000000000000815260040161053190610c1b565b60405180910390fd5b5f811161057c576040517f08c379a000000000000000000000000000000000000000000000000000000000815260040161057390610c83565b60405180910390fd5b805f5f3373ffffffffffffffffffffffffffffffffffffffff1673ffffffffffffffffffffffffffffffffffffffff1681526020019081526020015f205f8473ffffffffffffffffffffffffffffffffffffffff1673ffffffffffffffffffffffffffffffffffffffff1681526020019081526020015f20541015610636576040517f08c379a000000000000000000000000000000000000000000000000000000000815260040161062d90610dd0565b60405180910390fd5b805f5f3373ffffffffffffffffffffffffffffffffffffffff1673ffffffffffffffffffffffffffffffffffffffff1681526020019081526020015f205f8473ffffffffffffffffffffffffffffffffffffffff1673ffffffffffffffffffffffffffffffffffffffff1681526020019081526020015f205f8282546106bc9190610dee565b925050819055506106ee33828473ffffffffffffffffffffffffffffffffffffffff166107d99092919063ffffffff16565b3373ffffffffffffffffffffffffffffffffffffffff168273ffffffffffffffffffffffffffffffffffffffff167f9b1bfa7fa9ee420a16e124f794c35ac9f90472acc99140eb2f6447c714cad8eb8360405161074b9190610a13565b60405180910390a35050565b6107d3848573ffffffffffffffffffffffffffffffffffffffff166323b872dd86868660405160240161078c93929190610e30565b604051602081830303815290604052915060e01b6020820180517bffffffffffffffffffffffffffffffffffffffffffffffffffffffff8381831617835250505050610858565b50505050565b610853838473ffffffffffffffffffffffffffffffffffffffff1663a9059cbb858560405160240161080c929190610e65565b604051602081830303815290604052915060e01b6020820180517bffffffffffffffffffffffffffffffffffffffffffffffffffffffff8381831617835250505050610858565b505050565b5f5f60205f8451602086015f885af180610877576040513d5f823e3d81fd5b3d92505f519150505f82146108905760018114156108ab565b5f8473ffffffffffffffffffffffffffffffffffffffff163b145b156108ed57836040517f5274afe70000000000000000000000000000000000000000000000000000000081526004016108e49190610e8c565b60405180910390fd5b50505050565b5f5ffd5b5f5ffd5b5f73ffffffffffffffffffffffffffffffffffffffff82169050919050565b5f610924826108fb565b9050919050565b6109348161091a565b811461093e575f5ffd5b50565b5f8135905061094f8161092b565b92915050565b5f819050919050565b61096781610955565b8114610971575f5ffd5b50565b5f813590506109828161095e565b92915050565b5f5f6040838503121561099e5761099d6108f3565b5b5f6109ab85828601610941565b92505060206109bc85828601610974565b9150509250929050565b5f5f604083850312156109dc576109db6108f3565b5b5f6109e985828601610941565b92505060206109fa85828601610941565b9150509250929050565b610a0d81610955565b82525050565b5f602082019050610a265f830184610a04565b92915050565b5f5ffd5b5f5ffd5b5f5ffd5b5f5f83601f840112610a4d57610a4c610a2c565b5b8235905067ffffffffffffffff811115610a6a57610a69610a30565b5b602083019150836020820283011115610a8657610a85610a34565b5b9250929050565b5f5f5f60408486031215610aa457610aa36108f3565b5b5f84013567ffffffffffffffff811115610ac157610ac06108f7565b5b610acd86828701610a38565b93509350506020610ae086828701610941565b9150509250925092565b5f81519050919050565b5f82825260208201905092915050565b5f819050602082019050919050565b610b1c81610955565b82525050565b5f610b2d8383610b13565b60208301905092915050565b5f602082019050919050565b5f610b4f82610aea565b610b598185610af4565b9350610b6483610b04565b805f5b83811015610b94578151610b7b8882610b22565b9750610b8683610b39565b925050600181019050610b67565b5085935050505092915050565b5f6020820190508181035f830152610bb98184610b45565b905092915050565b5f82825260208201905092915050565b7f496e76616c696420746f6b656e206164647265737300000000000000000000005f82015250565b5f610c05601583610bc1565b9150610c1082610bd1565b602082019050919050565b5f6020820190508181035f830152610c3281610bf9565b9050919050565b7f416d6f756e74206d7573742062652067726561746572207468616e20300000005f82015250565b5f610c6d601d83610bc1565b9150610c7882610c39565b602082019050919050565b5f6020820190508181035f830152610c9a81610c61565b9050919050565b7f4e487b71000000000000000000000000000000000000000000000000000000005f52601160045260245ffd5b5f610cd882610955565b9150610ce383610955565b9250828201905080821115610cfb57610cfa610ca1565b5b92915050565b7f4e487b71000000000000000000000000000000000000000000000000000000005f52604160045260245ffd5b7f4e487b71000000000000000000000000000000000000000000000000000000005f52603260045260245ffd5b5f60208284031215610d7057610d6f6108f3565b5b5f610d7d84828501610941565b91505092915050565b7f496e73756666696369656e742062616c616e63650000000000000000000000005f82015250565b5f610dba601483610bc1565b9150610dc582610d86565b602082019050919050565b5f6020820190508181035f830152610de781610dae565b9050919050565b5f610df882610955565b9150610e0383610955565b9250828203905081811115610e1b57610e1a610ca1565b5b92915050565b610e2a8161091a565b82525050565b5f606082019050610e435f830186610e21565b610e506020830185610e21565b610e5d6040830184610a04565b949350505050565b5f604082019050610e785f830185610e21565b610e856020830184610a04565b9392505050565b5f602082019050610e9f5f830184610e21565b9291505056fea2646970667358221220aa938c26e4405ea2d99b45a315de3e3a0c8211c4535cc0edcaa5d9cadcfe7fc664736f6c634300081c0033",
  "linkReferences": {},
  "deployedLinkReferences": {},
  "immutableReferences": {},
  "inputSourceName": "project/contracts/3_TokenBank.sol",
  "buildInfoId": "solc-0_8_28-559b143941ea993150ff5fdc64ba5142bcd63210"
}