{
  "_format": "hh3-artifact-1",
  "contractName": "BigBank",
  "sourceName": "contracts/2_BigBank.sol",
  "abi": [
    {
      "anonymous": false,
      "inputs": [
        {
          "indexed": true,
          "internalType": "address",
          "name": "user",
          "type": "address"
        },
        {
          "indexed": false,
          "internalType": "uint256",
          "name": "amount",
          "type": "uint256"
        }
      ],
      "name": "Deposit",
      "type": "event"
    },
    {
      "anonymous": false,
      "inputs": [
        {
          "indexed": true,
          "internalType": "address",
          "name": "previousAdmin",
          "type": "address"
        },
        {
          "indexed": true,
          "internalType": "address",
          "name": "newAdmin",
          "type": "address"
        }
      ],
      "name": "OwnershipTransferred",
      "type": "event"
    },
    {
      "anonymous": false,
      "inputs": [
        {
          "indexed": true,
          "internalType": "address",
          "name": "admin",
          "type": "address"
        },
        {
          "indexed": false,
          "internalType": "uint256",
          "name": "amount",
          "type": "uint256"
        }
      ],
      "name": "Withdraw",
      "type": "event"
    },
    {
      "stateMutability": "payable",
      "type": "fallback"
    },
    {
      "inputs": [],
      "name": "MIN_DEPOSIT",
      "outputs": [
        {
          "internalType": "uint256",
          "name": "",
          "type": "uint256"
        }
      ],
      "stateMutability": "view",
      "type": "function"
    },
    {
      "inputs": [],
      "name": "admin",
      "outputs": [
        {
          "internalType": "address",
          "name": "",
          "type": "address"
        }
      ],
      "stateMutability": "view",
      "type": "function"
    },
    {
      "inputs": [
        {
          "internalType": "address",
          "name": "",
          "type": "address"
        }
      ],
      "name": "balances",
      "outputs": [
        {
          "internalType": "uint256",
          "name": "",
          "type": "uint256"
        }
      ],
      "stateMutability": "view",
      "type": "function"
    },
    {
      "inputs": [],
      "name": "deposit",
      "outputs": [],
      "stateMutability": "payable",
      "type": "function"
    },
    {
      "inputs": [],
      "name": "getBalance",
      "outputs": [
        {
          "internalType": "uint256",
          "name": "",
          "type": "uint256"
        }
      ],
      "stateMutability": "view",
      "type": "function"
    },
    {
      "inputs": [],
      "name": "getTopDepositors",
      "outputs": [
        {
          "internalType": "address[3]",
          "name": "",
          "type": "address[3]"
        }
      ],
      "stateMutability": "view",
      "type": "function"
    },
    {
      "inputs": [
        {
          "internalType": "uint256",
          "name": "",
          "type": "uint256"
        }
      ],
      "name": "topDepositors",
      "outputs": [
        {
          "internalType": "address",
          "name": "",
          "type": "address"
        }
      ],
      "stateMutability": "view",
      "type": "function"
    },
    {
      "inputs": [
        {
          "internalType": "address",
          "name": "newAdmin",
          "type": "address"
        }
      ],
      "name": "transferOwnership",
      "outputs": [],
      "stateMutability": "nonpayable",
      "type": "function"
    },
    {
      "inputs": [
        {
          "internalType": "uint256",
          "name": "amount",
          "type": "uint256"
        }
      ],
      "name": "withdraw",
      "outputs": [],
      "stateMutability": "nonpayable",
      "type": "function"
    },
    {
      "stateMutability": "payable",
      "type": "receive"
    }
  ],
  "bytecode": "0x6080604052348015600e575f5ffd5b503360045f6101000a81548173ffffffffffffffffffffffffffffffffffffffff021916908373ffffffffffffffffffffffffffffffffffffffff16021790555061144b8061005c5f395ff3fe608060405260043610610089575f3560e01c806381454f711161005857806381454f711461016c578063d0e30db014610196578063e1e158a5146101a0578063f2fde38b146101ca578063f851a440146101f257610098565b806312065fe0146100a257806327e235e3146100cc5780632e1a7d4d14610108578063308610781461013057610098565b366100985761009661021c565b005b6100a061021c565b005b3480156100ad575f5ffd5b506100b6610270565b6040516100c39190610e39565b60405180910390f35b3480156100d7575f5ffd5b506100f260048036038101906100ed9190610eb0565b610277565b6040516100ff9190610e39565b60405180910390f35b348015610113575f5ffd5b5061012e60048036038101906101299190610f05565b61028b565b005b34801561013b575f5ffd5b5061015660048036038101906101519190610f05565b610326565b6040516101639190610f3f565b60405180910390f35b348015610177575f5ffd5b5061018061035a565b60405161018d9190610ffd565b60405180910390f35b61019e61021c565b005b3480156101ab575f5ffd5b506101b46103da565b6040516101c19190610e39565b60405180910390f35b3480156101d5575f5ffd5b506101f060048036038101906101eb9190610eb0565b6103e5565b005b3480156101fd575f5ffd5b50610206610634565b6040516102139190610f3f565b60405180910390f35b66038d7ea4c68000341015610266576040517f08c379a000000000000000000000000000000000000000000000000000000000815260040161025d90611096565b60405180910390fd5b61026e610659565b565b5f47905090565b5f602052805f5260405f205f915090505481565b60045f9054906101000a900473ffffffffffffffffffffffffffffffffffffffff1673ffffffffffffffffffffffffffffffffffffffff163373ffffffffffffffffffffffffffffffffffffffff161461031a576040517f08c379a000000000000000000000000000000000000000000000000000000000815260040161031190611124565b60405180910390fd5b61032381610783565b50565b60018160038110610335575f80fd5b015f915054906101000a900473ffffffffffffffffffffffffffffffffffffffff1681565b610362610dff565b60016003806020026040519081016040528092919082600380156103d0576020028201915b815f9054906101000a900473ffffffffffffffffffffffffffffffffffffffff1673ffffffffffffffffffffffffffffffffffffffff1681526020019060010190808311610387575b5050505050905090565b66038d7ea4c6800081565b60045f9054906101000a900473ffffffffffffffffffffffffffffffffffffffff1673ffffffffffffffffffffffffffffffffffffffff163373ffffffffffffffffffffffffffffffffffffffff1614610474576040517f08c379a000000000000000000000000000000000000000000000000000000000815260040161046b90611124565b60405180910390fd5b5f73ffffffffffffffffffffffffffffffffffffffff168173ffffffffffffffffffffffffffffffffffffffff16036104e2576040517f08c379a00000000000000000000000000000000000000000000000000000000081526004016104d99061118c565b60405180910390fd5b60045f9054906101000a900473ffffffffffffffffffffffffffffffffffffffff1673ffffffffffffffffffffffffffffffffffffffff168173ffffffffffffffffffffffffffffffffffffffff1603610571576040517f08c379a00000000000000000000000000000000000000000000000000000000081526004016105689061121a565b60405180910390fd5b5f60045f9054906101000a900473ffffffffffffffffffffffffffffffffffffffff1690508160045f6101000a81548173ffffffffffffffffffffffffffffffffffffffff021916908373ffffffffffffffffffffffffffffffffffffffff1602179055508173ffffffffffffffffffffffffffffffffffffffff168173ffffffffffffffffffffffffffffffffffffffff167f8be0079c531659141344cd1fd0a4f28419497f9722a3daafe3b4186f6b6457e060405160405180910390a35050565b60045f9054906101000a900473ffffffffffffffffffffffffffffffffffffffff1681565b5f341161069b576040517f08c379a0000000000000000000000000000000000000000000000000000000008152600401610692906112a8565b60405180910390fd5b345f5f3373ffffffffffffffffffffffffffffffffffffffff1673ffffffffffffffffffffffffffffffffffffffff1681526020019081526020015f205f8282546106e691906112f3565b92505081905550610733335f5f3373ffffffffffffffffffffffffffffffffffffffff1673ffffffffffffffffffffffffffffffffffffffff1681526020019081526020015f205461092c565b3373ffffffffffffffffffffffffffffffffffffffff167fe1fffcc4923d04b559f4d29a8bfc6cda04eb5b0d3c460751c2402c5c5cc9109c346040516107799190610e39565b60405180910390a2565b60045f9054906101000a900473ffffffffffffffffffffffffffffffffffffffff1673ffffffffffffffffffffffffffffffffffffffff163373ffffffffffffffffffffffffffffffffffffffff1614610812576040517f08c379a000000000000000000000000000000000000000000000000000000000815260040161080990611124565b60405180910390fd5b47811115610855576040517f08c379a000000000000000000000000000000000000000000000000000000000815260040161084c90611370565b60405180910390fd5b60045f9054906101000a900473ffffffffffffffffffffffffffffffffffffffff1673ffffffffffffffffffffffffffffffffffffffff166108fc8290811502906040515f60405180830381858888f193505050501580156108b9573d5f5f3e3d5ffd5b5060045f9054906101000a900473ffffffffffffffffffffffffffffffffffffffff1673ffffffffffffffffffffffffffffffffffffffff167f884edad9ce6fa2440d8a54cc123490eb96d2768479d49ff9c7366125a9424364826040516109219190610e39565b60405180910390a250565b5f5f90505b6003811015610b19578273ffffffffffffffffffffffffffffffffffffffff16600182600381106109655761096461138e565b5b015f9054906101000a900473ffffffffffffffffffffffffffffffffffffffff1673ffffffffffffffffffffffffffffffffffffffff1603610b0c575f8190505b5f811115610b05575f600180836109bd91906113bb565b600381106109ce576109cd61138e565b5b015f9054906101000a900473ffffffffffffffffffffffffffffffffffffffff169050835f5f8373ffffffffffffffffffffffffffffffffffffffff1673ffffffffffffffffffffffffffffffffffffffff1681526020019081526020015f20541015610aeb578060018360038110610a4a57610a4961138e565b5b015f6101000a81548173ffffffffffffffffffffffffffffffffffffffff021916908373ffffffffffffffffffffffffffffffffffffffff1602179055508460018084610a9791906113bb565b60038110610aa857610aa761138e565b5b015f6101000a81548173ffffffffffffffffffffffffffffffffffffffff021916908373ffffffffffffffffffffffffffffffffffffffff160217905550610af1565b50610b05565b508080610afd906113ee565b9150506109a6565b5050610dfb565b8080600101915050610931565b505f6001806003610b2a91906113bb565b60038110610b3b57610b3a61138e565b5b015f9054906101000a900473ffffffffffffffffffffffffffffffffffffffff1690505f5f8273ffffffffffffffffffffffffffffffffffffffff1673ffffffffffffffffffffffffffffffffffffffff1681526020019081526020015f20548211158015610bd657505f73ffffffffffffffffffffffffffffffffffffffff168173ffffffffffffffffffffffffffffffffffffffff1614155b15610be15750610dfb565b5f5f90505b6003811015610df857825f5f60018460038110610c0657610c0561138e565b5b015f9054906101000a900473ffffffffffffffffffffffffffffffffffffffff1673ffffffffffffffffffffffffffffffffffffffff1673ffffffffffffffffffffffffffffffffffffffff1681526020019081526020015f20541080610ccc57505f73ffffffffffffffffffffffffffffffffffffffff1660018260038110610c9357610c9261138e565b5b015f9054906101000a900473ffffffffffffffffffffffffffffffffffffffff1673ffffffffffffffffffffffffffffffffffffffff16145b15610deb575f60016003610ce091906113bb565b90505b81811115610d905760018082610cf991906113bb565b60038110610d0a57610d0961138e565b5b015f9054906101000a900473ffffffffffffffffffffffffffffffffffffffff1660018260038110610d3f57610d3e61138e565b5b015f6101000a81548173ffffffffffffffffffffffffffffffffffffffff021916908373ffffffffffffffffffffffffffffffffffffffff1602179055508080610d88906113ee565b915050610ce3565b508360018260038110610da657610da561138e565b5b015f6101000a81548173ffffffffffffffffffffffffffffffffffffffff021916908373ffffffffffffffffffffffffffffffffffffffff1602179055505050610dfb565b8080600101915050610be6565b50505b5050565b6040518060600160405280600390602082028036833780820191505090505090565b5f819050919050565b610e3381610e21565b82525050565b5f602082019050610e4c5f830184610e2a565b92915050565b5f5ffd5b5f73ffffffffffffffffffffffffffffffffffffffff82169050919050565b5f610e7f82610e56565b9050919050565b610e8f81610e75565b8114610e99575f5ffd5b50565b5f81359050610eaa81610e86565b92915050565b5f60208284031215610ec557610ec4610e52565b5b5f610ed284828501610e9c565b91505092915050565b610ee481610e21565b8114610eee575f5ffd5b50565b5f81359050610eff81610edb565b92915050565b5f60208284031215610f1a57610f19610e52565b5b5f610f2784828501610ef1565b91505092915050565b610f3981610e75565b82525050565b5f602082019050610f525f830184610f30565b92915050565b5f60039050919050565b5f81905092915050565b5f819050919050565b610f7e81610e75565b82525050565b5f610f8f8383610f75565b60208301905092915050565b5f602082019050919050565b610fb081610f58565b610fba8184610f62565b9250610fc582610f6c565b805f5b83811015610ff5578151610fdc8782610f84565b9650610fe783610f9b565b925050600181019050610fc8565b505050505050565b5f6060820190506110105f830184610fa7565b92915050565b5f82825260208201905092915050565b7f4465706f73697420616d6f756e74206d757374206265206174206c65617374205f8201527f302e303031204554480000000000000000000000000000000000000000000000602082015250565b5f611080602983611016565b915061108b82611026565b604082019050919050565b5f6020820190508181035f8301526110ad81611074565b9050919050565b7f4f6e6c792061646d696e2063616e2063616c6c20746869732066756e6374696f5f8201527f6e00000000000000000000000000000000000000000000000000000000000000602082015250565b5f61110e602183611016565b9150611119826110b4565b604082019050919050565b5f6020820190508181035f83015261113b81611102565b9050919050565b7f4e65772061646d696e2063616e6e6f74206265207a65726f20616464726573735f82015250565b5f611176602083611016565b915061118182611142565b602082019050919050565b5f6020820190508181035f8301526111a38161116a565b9050919050565b7f4e65772061646d696e206973207468652073616d652061732063757272656e745f8201527f2061646d696e0000000000000000000000000000000000000000000000000000602082015250565b5f611204602683611016565b915061120f826111aa565b604082019050919050565b5f6020820190508181035f830152611231816111f8565b9050919050565b7f4465706f73697420616d6f756e74206d757374206265206772656174657220745f8201527f68616e2030000000000000000000000000000000000000000000000000000000602082015250565b5f611292602583611016565b915061129d82611238565b604082019050919050565b5f6020820190508181035f8301526112bf81611286565b9050919050565b7f4e487b71000000000000000000000000000000000000000000000000000000005f52601160045260245ffd5b5f6112fd82610e21565b915061130883610e21565b92508282019050808211156113205761131f6112c6565b5b92915050565b7f496e73756666696369656e7420636f6e74726163742062616c616e63650000005f82015250565b5f61135a601d83611016565b915061136582611326565b602082019050919050565b5f6020820190508181035f8301526113878161134e565b9050919050565b7f4e487b71000000000000000000000000000000000000000000000000000000005f52603260045260245ffd5b5f6113c582610e21565b91506113d083610e21565b92508282039050818111156113e8576113e76112c6565b5b92915050565b5f6113f882610e21565b91505f820361140a576114096112c6565b5b60018203905091905056fea264697066735822122067893b0d09faec1ab1ba188c87bcd7828ebbc9c583b2fbe7f016d2653218726a64736f6c634300081c0033",
  "linkReferences": {},
  "deployedLinkReferences": {},
  "immutableReferences": {},
  "inputSourceName": "project/contracts/2_BigBank.sol",
  "buildInfoId": "solc-0_8_28-559b143941ea993150ff5fdc64ba5142bcd63210"
}