{
  "_format": "hh3-artifact-1",
  "contractName": "SmartToken",
  "sourceName": "contracts/4_SmartToken.sol",
  "abi": [
    {
      "inputs": [
        {
          "internalType": "string",
          "name": "name",
          "type": "string"
        },
        {
          "internalType": "string",
          "name": "symbol",
          "type": "string"
        },
        {
          "internalType": "uint256",
          "name": "initialSupply",
          "type": "uint256"
        }
      ],
      "stateMutability": "nonpayable",
      "type": "constructor"
    },
    {
      "inputs": [
        {
          "internalType": "address",
          "name": "spender",
          "type": "address"
        },
        {
          "internalType": "uint256",
          "name": "allowance",
          "type": "uint256"
        },
        {
          "internalType": "uint256",
          "name": "needed",
          "type": "uint256"
        }
      ],
      "name": "ERC20InsufficientAllowance",
      "type": "error"
    },
    {
      "inputs": [
        {
          "internalType": "address",
          "name": "sender",
          "type": "address"
        },
        {
          "internalType": "uint256",
          "name": "balance",
          "type": "uint256"
        },
        {
          "internalType": "uint256",
          "name": "needed",
          "type": "uint256"
        }
      ],
      "name": "ERC20InsufficientBalance",
      "type": "error"
    },
    {
      "inputs": [
        {
          "internalType": "address",
          "name": "approver",
          "type": "address"
        }
      ],
      "name": "ERC20InvalidApprover",
      "type": "error"
    },
    {
      "inputs": [
        {
          "internalType": "address",
          "name": "receiver",
          "type": "address"
        }
      ],
      "name": "ERC20InvalidReceiver",
      "type": "error"
    },
    {
      "inputs": [
        {
          "internalType": "address",
          "name": "sender",
          "type": "address"
        }
      ],
      "name": "ERC20InvalidSender",
      "type": "error"
    },
    {
      "inputs": [
        {
          "internalType": "address",
          "name": "spender",
          "type": "address"
        }
      ],
      "name": "ERC20InvalidSpender",
      "type": "error"
    },
    {
      "anonymous": false,
      "inputs": [
        {
          "indexed": true,
          "internalType": "address",
          "name": "owner",
          "type": "address"
        },
        {
          "indexed": true,
          "internalType": "address",
          "name": "spender",
          "type": "address"
        },
        {
          "indexed": false,
          "internalType": "uint256",
          "name": "value",
          "type": "uint256"
        }
      ],
      "name": "Approval",
      "type": "event"
    },
    {
      "anonymous": false,
      "inputs": [
        {
          "indexed": true,
          "internalType": "address",
          "name": "from",
          "type": "address"
        },
        {
          "indexed": true,
          "internalType": "address",
          "name": "to",
          "type": "address"
        },
        {
          "indexed": false,
          "internalType": "uint256",
          "name": "value",
          "type": "uint256"
        }
      ],
      "name": "Transfer",
      "type": "event"
    },
    {
      "inputs": [
        {
          "internalType": "address",
          "name": "owner",
          "type": "address"
        },
        {
          "internalType": "address",
          "name": "spender",
          "type": "address"
        }
      ],
      "name": "allowance",
      "outputs": [
        {
          "internalType": "uint256",
          "name": "",
          "type": "uint256"
        }
      ],
      "stateMutability": "view",
      "type": "function"
    },
    {
      "inputs": [
        {
          "internalType": "address",
          "name": "spender",
          "type": "address"
        },
        {
          "internalType": "uint256",
          "name": "value",
          "type": "uint256"
        }
      ],
      "name": "approve",
      "outputs": [
        {
          "internalType": "bool",
          "name": "",
          "type": "bool"
        }
      ],
      "stateMutability": "nonpayable",
      "type": "function"
    },
    {
      "inputs": [
        {
          "internalType": "address",
          "name": "account",
          "type": "address"
        }
      ],
      "name": "balanceOf",
      "outputs": [
        {
          "internalType": "uint256",
          "name": "",
          "type": "uint256"
        }
      ],
      "stateMutability": "view",
      "type": "function"
    },
    {
      "inputs": [],
      "name": "decimals",
      "outputs": [
        {
          "internalType": "uint8",
          "name": "",
          "type": "uint8"
        }
      ],
      "stateMutability": "view",
      "type": "function"
    },
    {
      "inputs": [],
      "name": "name",
      "outputs": [
        {
          "internalType": "string",
          "name": "",
          "type": "string"
        }
      ],
      "stateMutability": "view",
      "type": "function"
    },
    {
      "inputs": [],
      "name": "symbol",
      "outputs": [
        {
          "internalType": "string",
          "name": "",
          "type": "string"
        }
      ],
      "stateMutability": "view",
      "type": "function"
    },
    {
      "inputs": [],
      "name": "totalSupply",
      "outputs": [
        {
          "internalType": "uint256",
          "name": "",
          "type": "uint256"
        }
      ],
      "stateMutability": "view",
      "type": "function"
    },
    {
      "inputs": [
        {
          "internalType": "address",
          "name": "to",
          "type": "address"
        },
        {
          "internalType": "uint256",
          "name": "value",
          "type": "uint256"
        }
      ],
      "name": "transfer",
      "outputs": [
        {
          "internalType": "bool",
          "name": "",
          "type": "bool"
        }
      ],
      "stateMutability": "nonpayable",
      "type": "function"
    },
    {
      "inputs": [
        {
          "internalType": "address",
          "name": "to",
          "type": "address"
        },
        {
          "internalType": "uint256",
          "name": "value",
          "type": "uint256"
        }
      ],
      "name": "transferAndCall",
      "outputs": [
        {
          "internalType": "bool",
          "name": "",
          "type": "bool"
        }
      ],
      "stateMutability": "nonpayable",
      "type": "function"
    },
    {
      "inputs": [
        {
          "internalType": "address",
          "name": "from",
          "type": "address"
        },
        {
          "internalType": "address",
          "name": "to",
          "type": "address"
        },
        {
          "internalType": "uint256",
          "name": "value",
          "type": "uint256"
        }
      ],
      "name": "transferFrom",
      "outputs": [
        {
          "internalType": "bool",
          "name": "",
          "type": "bool"
        }
      ],
      "stateMutability": "nonpayable",
      "type": "function"
    },
    {
      "inputs": [
        {
          "internalType": "address",
          "name": "from",
          "type": "address"
        },
        {
          "internalType": "address",
          "name": "to",
          "type": "address"
        },
        {
          "internalType": "uint256",
          "name": "value",
          "type": "uint256"
        },
        {
          "internalType": "bytes",
          "name": "data",
          "type": "bytes"
        }
      ],
      "name": "transferFromAndCall",
      "outputs": [
        {
          "internalType": "bool",
          "name": "",
          "type": "bool"
        }
      ],
      "stateMutability": "nonpayable",
      "type": "function"
    }
  ],
  "bytecode": "0x608060405234801561000f575f5ffd5b50604051611df6380380611df68339818101604052810190610031919061048b565b82828160039081610042919061071a565b508060049081610052919061071a565b505050610065338261006d60201b60201c565b5050506108fe565b5f73ffffffffffffffffffffffffffffffffffffffff168273ffffffffffffffffffffffffffffffffffffffff16036100dd575f6040517fec442f050000000000000000000000000000000000000000000000000000000081526004016100d49190610828565b60405180910390fd5b6100ee5f83836100f260201b60201c565b5050565b5f73ffffffffffffffffffffffffffffffffffffffff168373ffffffffffffffffffffffffffffffffffffffff1603610142578060025f828254610136919061086e565b92505081905550610210565b5f5f5f8573ffffffffffffffffffffffffffffffffffffffff1673ffffffffffffffffffffffffffffffffffffffff1681526020019081526020015f20549050818110156101cb578381836040517fe450d38c0000000000000000000000000000000000000000000000000000000081526004016101c2939291906108b0565b60405180910390fd5b8181035f5f8673ffffffffffffffffffffffffffffffffffffffff1673ffffffffffffffffffffffffffffffffffffffff1681526020019081526020015f2081905550505b5f73ffffffffffffffffffffffffffffffffffffffff168273ffffffffffffffffffffffffffffffffffffffff1603610257578060025f82825403925050819055506102a1565b805f5f8473ffffffffffffffffffffffffffffffffffffffff1673ffffffffffffffffffffffffffffffffffffffff1681526020019081526020015f205f82825401925050819055505b8173ffffffffffffffffffffffffffffffffffffffff168373ffffffffffffffffffffffffffffffffffffffff167fddf252ad1be2c89b69c2b068fc378daa952ba7f163c4a11628f55a4df523b3ef836040516102fe91906108e5565b60405180910390a3505050565b5f604051905090565b5f5ffd5b5f5ffd5b5f5ffd5b5f5ffd5b5f601f19601f8301169050919050565b7f4e487b71000000000000000000000000000000000000000000000000000000005f52604160045260245ffd5b61036a82610324565b810181811067ffffffffffffffff8211171561038957610388610334565b5b80604052505050565b5f61039b61030b565b90506103a78282610361565b919050565b5f67ffffffffffffffff8211156103c6576103c5610334565b5b6103cf82610324565b9050602081019050919050565b8281835e5f83830152505050565b5f6103fc6103f7846103ac565b610392565b90508281526020810184848401111561041857610417610320565b5b6104238482856103dc565b509392505050565b5f82601f83011261043f5761043e61031c565b5b815161044f8482602086016103ea565b91505092915050565b5f819050919050565b61046a81610458565b8114610474575f5ffd5b50565b5f8151905061048581610461565b92915050565b5f5f5f606084860312156104a2576104a1610314565b5b5f84015167ffffffffffffffff8111156104bf576104be610318565b5b6104cb8682870161042b565b935050602084015167ffffffffffffffff8111156104ec576104eb610318565b5b6104f88682870161042b565b925050604061050986828701610477565b9150509250925092565b5f81519050919050565b7f4e487b71000000000000000000000000000000000000000000000000000000005f52602260045260245ffd5b5f600282049050600182168061056157607f821691505b6020821081036105745761057361051d565b5b50919050565b5f819050815f5260205f209050919050565b5f6020601f8301049050919050565b5f82821b905092915050565b5f600883026105d67fffffffffffffffffffffffffffffffffffffffffffffffffffffffffffffffff8261059b565b6105e0868361059b565b95508019841693508086168417925050509392505050565b5f819050919050565b5f61061b61061661061184610458565b6105f8565b610458565b9050919050565b5f819050919050565b61063483610601565b61064861064082610622565b8484546105a7565b825550505050565b5f5f905090565b61065f610650565b61066a81848461062b565b505050565b5b8181101561068d576106825f82610657565b600181019050610670565b5050565b601f8211156106d2576106a38161057a565b6106ac8461058c565b810160208510156106bb578190505b6106cf6106c78561058c565b83018261066f565b50505b505050565b5f82821c905092915050565b5f6106f25f19846008026106d7565b1980831691505092915050565b5f61070a83836106e3565b9150826002028217905092915050565b61072382610513565b67ffffffffffffffff81111561073c5761073b610334565b5b610746825461054a565b610751828285610691565b5f60209050601f831160018114610782575f8415610770578287015190505b61077a85826106ff565b8655506107e1565b601f1984166107908661057a565b5f5b828110156107b757848901518255600182019150602085019450602081019050610792565b868310156107d457848901516107d0601f8916826106e3565b8355505b6001600288020188555050505b505050505050565b5f73ffffffffffffffffffffffffffffffffffffffff82169050919050565b5f610812826107e9565b9050919050565b61082281610808565b82525050565b5f60208201905061083b5f830184610819565b92915050565b7f4e487b71000000000000000000000000000000000000000000000000000000005f52601160045260245ffd5b5f61087882610458565b915061088383610458565b925082820190508082111561089b5761089a610841565b5b92915050565b6108aa81610458565b82525050565b5f6060820190506108c35f830186610819565b6108d060208301856108a1565b6108dd60408301846108a1565b949350505050565b5f6020820190506108f85f8301846108a1565b92915050565b6114eb8061090b5f395ff3fe608060405234801561000f575f5ffd5b50600436106100a7575f3560e01c8063313ce5671161006f578063313ce5671461017757806370a082311461019557806395d89b41146101c5578063a9059cbb146101e3578063c1d34b8914610213578063dd62ed3e14610243576100a7565b806306fdde03146100ab578063095ea7b3146100c95780631296ee62146100f957806318160ddd1461012957806323b872dd14610147575b5f5ffd5b6100b3610273565b6040516100c09190610d48565b60405180910390f35b6100e360048036038101906100de9190610e06565b610303565b6040516100f09190610e5e565b60405180910390f35b610113600480360381019061010e9190610e06565b610325565b6040516101209190610e5e565b60405180910390f35b610131610355565b60405161013e9190610e86565b60405180910390f35b610161600480360381019061015c9190610e9f565b61035e565b60405161016e9190610e5e565b60405180910390f35b61017f61038c565b60405161018c9190610f0a565b60405180910390f35b6101af60048036038101906101aa9190610f23565b610394565b6040516101bc9190610e86565b60405180910390f35b6101cd6103d9565b6040516101da9190610d48565b60405180910390f35b6101fd60048036038101906101f89190610e06565b610469565b60405161020a9190610e5e565b60405180910390f35b61022d60048036038101906102289190610faf565b61048b565b60405161023a9190610e5e565b60405180910390f35b61025d60048036038101906102589190611033565b6104f4565b60405161026a9190610e86565b60405180910390f35b6060600380546102829061109e565b80601f01602080910402602001604051908101604052809291908181526020018280546102ae9061109e565b80156102f95780601f106102d0576101008083540402835291602001916102f9565b820191905f5260205f20905b8154815290600101906020018083116102dc57829003601f168201915b5050505050905090565b5f5f61030d610576565b905061031a81858561057d565b600191505092915050565b5f6103308383610469565b5061034b33848460405180602001604052805f81525061058f565b6001905092915050565b5f600254905090565b5f5f610368610576565b905061037585828561074b565b6103808585856107de565b60019150509392505050565b5f6012905090565b5f5f5f8373ffffffffffffffffffffffffffffffffffffffff1673ffffffffffffffffffffffffffffffffffffffff1681526020019081526020015f20549050919050565b6060600480546103e89061109e565b80601f01602080910402602001604051908101604052809291908181526020018280546104149061109e565b801561045f5780601f106104365761010080835404028352916020019161045f565b820191905f5260205f20905b81548152906001019060200180831161044257829003601f168201915b5050505050905090565b5f5f610473610576565b90506104808185856107de565b600191505092915050565b5f61049786868661035e565b506104e786868686868080601f0160208091040260200160405190810160405280939291908181526020018383808284375f81840152601f19601f8201169050808301925050505050505061058f565b6001905095945050505050565b5f60015f8473ffffffffffffffffffffffffffffffffffffffff1673ffffffffffffffffffffffffffffffffffffffff1681526020019081526020015f205f8373ffffffffffffffffffffffffffffffffffffffff1673ffffffffffffffffffffffffffffffffffffffff1681526020019081526020015f2054905092915050565b5f33905090565b61058a83838360016108ce565b505050565b61059883610a9d565b15610745578273ffffffffffffffffffffffffffffffffffffffff166388a7ca5c338685856040518563ffffffff1660e01b81526004016105dc949392919061112f565b6020604051808303815f875af192505050801561061757506040513d601f19601f8201168201806040525081019061061491906111ce565b60015b6106bc57610623611205565b806308c379a00361067f5750610637611282565b806106425750610681565b806040517f08c379a00000000000000000000000000000000000000000000000000000000081526004016106769190610d48565b60405180910390fd5b505b6040517f08c379a00000000000000000000000000000000000000000000000000000000081526004016106b390611381565b60405180910390fd5b6388a7ca5c60e01b7bffffffffffffffffffffffffffffffffffffffffffffffffffffffff1916817bffffffffffffffffffffffffffffffffffffffffffffffffffffffff191614610743576040517f08c379a000000000000000000000000000000000000000000000000000000000815260040161073a906113e9565b60405180910390fd5b505b50505050565b5f61075684846104f4565b90507fffffffffffffffffffffffffffffffffffffffffffffffffffffffffffffffff8110156107d857818110156107c9578281836040517ffb8f41b20000000000000000000000000000000000000000000000000000000081526004016107c093929190611407565b60405180910390fd5b6107d784848484035f6108ce565b5b50505050565b5f73ffffffffffffffffffffffffffffffffffffffff168373ffffffffffffffffffffffffffffffffffffffff160361084e575f6040517f96c6fd1e000000000000000000000000000000000000000000000000000000008152600401610845919061143c565b60405180910390fd5b5f73ffffffffffffffffffffffffffffffffffffffff168273ffffffffffffffffffffffffffffffffffffffff16036108be575f6040517fec442f050000000000000000000000000000000000000000000000000000000081526004016108b5919061143c565b60405180910390fd5b6108c9838383610abf565b505050565b5f73ffffffffffffffffffffffffffffffffffffffff168473ffffffffffffffffffffffffffffffffffffffff160361093e575f6040517fe602df05000000000000000000000000000000000000000000000000000000008152600401610935919061143c565b60405180910390fd5b5f73ffffffffffffffffffffffffffffffffffffffff168373ffffffffffffffffffffffffffffffffffffffff16036109ae575f6040517f94280d620000000000000000000000000000000000000000000000000000000081526004016109a5919061143c565b60405180910390fd5b8160015f8673ffffffffffffffffffffffffffffffffffffffff1673ffffffffffffffffffffffffffffffffffffffff1681526020019081526020015f205f8573ffffffffffffffffffffffffffffffffffffffff1673ffffffffffffffffffffffffffffffffffffffff1681526020019081526020015f20819055508015610a97578273ffffffffffffffffffffffffffffffffffffffff168473ffffffffffffffffffffffffffffffffffffffff167f8c5be1e5ebec7d5bd14f71427d1e84f3dd0314c0f7b2291e5b200ac8c7c3b92584604051610a8e9190610e86565b60405180910390a35b50505050565b5f5f8273ffffffffffffffffffffffffffffffffffffffff163b119050919050565b5f73ffffffffffffffffffffffffffffffffffffffff168373ffffffffffffffffffffffffffffffffffffffff1603610b0f578060025f828254610b039190611482565b92505081905550610bdd565b5f5f5f8573ffffffffffffffffffffffffffffffffffffffff1673ffffffffffffffffffffffffffffffffffffffff1681526020019081526020015f2054905081811015610b98578381836040517fe450d38c000000000000000000000000000000000000000000000000000000008152600401610b8f93929190611407565b60405180910390fd5b8181035f5f8673ffffffffffffffffffffffffffffffffffffffff1673ffffffffffffffffffffffffffffffffffffffff1681526020019081526020015f2081905550505b5f73ffffffffffffffffffffffffffffffffffffffff168273ffffffffffffffffffffffffffffffffffffffff1603610c24578060025f8282540392505081905550610c6e565b805f5f8473ffffffffffffffffffffffffffffffffffffffff1673ffffffffffffffffffffffffffffffffffffffff1681526020019081526020015f205f82825401925050819055505b8173ffffffffffffffffffffffffffffffffffffffff168373ffffffffffffffffffffffffffffffffffffffff167fddf252ad1be2c89b69c2b068fc378daa952ba7f163c4a11628f55a4df523b3ef83604051610ccb9190610e86565b60405180910390a3505050565b5f81519050919050565b5f82825260208201905092915050565b8281835e5f83830152505050565b5f601f19601f8301169050919050565b5f610d1a82610cd8565b610d248185610ce2565b9350610d34818560208601610cf2565b610d3d81610d00565b840191505092915050565b5f6020820190508181035f830152610d608184610d10565b905092915050565b5f604051905090565b5f5ffd5b5f5ffd5b5f73ffffffffffffffffffffffffffffffffffffffff82169050919050565b5f610da282610d79565b9050919050565b610db281610d98565b8114610dbc575f5ffd5b50565b5f81359050610dcd81610da9565b92915050565b5f819050919050565b610de581610dd3565b8114610def575f5ffd5b50565b5f81359050610e0081610ddc565b92915050565b5f5f60408385031215610e1c57610e1b610d71565b5b5f610e2985828601610dbf565b9250506020610e3a85828601610df2565b9150509250929050565b5f8115159050919050565b610e5881610e44565b82525050565b5f602082019050610e715f830184610e4f565b92915050565b610e8081610dd3565b82525050565b5f602082019050610e995f830184610e77565b92915050565b5f5f5f60608486031215610eb657610eb5610d71565b5b5f610ec386828701610dbf565b9350506020610ed486828701610dbf565b9250506040610ee586828701610df2565b9150509250925092565b5f60ff82169050919050565b610f0481610eef565b82525050565b5f602082019050610f1d5f830184610efb565b92915050565b5f60208284031215610f3857610f37610d71565b5b5f610f4584828501610dbf565b91505092915050565b5f5ffd5b5f5ffd5b5f5ffd5b5f5f83601f840112610f6f57610f6e610f4e565b5b8235905067ffffffffffffffff811115610f8c57610f8b610f52565b5b602083019150836001820283011115610fa857610fa7610f56565b5b9250929050565b5f5f5f5f5f60808688031215610fc857610fc7610d71565b5b5f610fd588828901610dbf565b9550506020610fe688828901610dbf565b9450506040610ff788828901610df2565b935050606086013567ffffffffffffffff81111561101857611017610d75565b5b61102488828901610f5a565b92509250509295509295909350565b5f5f6040838503121561104957611048610d71565b5b5f61105685828601610dbf565b925050602061106785828601610dbf565b9150509250929050565b7f4e487b71000000000000000000000000000000000000000000000000000000005f52602260045260245ffd5b5f60028204905060018216806110b557607f821691505b6020821081036110c8576110c7611071565b5b50919050565b6110d781610d98565b82525050565b5f81519050919050565b5f82825260208201905092915050565b5f611101826110dd565b61110b81856110e7565b935061111b818560208601610cf2565b61112481610d00565b840191505092915050565b5f6080820190506111425f8301876110ce565b61114f60208301866110ce565b61115c6040830185610e77565b818103606083015261116e81846110f7565b905095945050505050565b5f7fffffffff0000000000000000000000000000000000000000000000000000000082169050919050565b6111ad81611179565b81146111b7575f5ffd5b50565b5f815190506111c8816111a4565b92915050565b5f602082840312156111e3576111e2610d71565b5b5f6111f0848285016111ba565b91505092915050565b5f8160e01c9050919050565b5f60033d11156112215760045f5f3e61121e5f516111f9565b90505b90565b7f4e487b71000000000000000000000000000000000000000000000000000000005f52604160045260245ffd5b61125a82610d00565b810181811067ffffffffffffffff8211171561127957611278611224565b5b80604052505050565b5f60443d1061130e57611293610d68565b60043d036004823e80513d602482011167ffffffffffffffff821117156112bb57505061130e565b808201805167ffffffffffffffff8111156112d9575050505061130e565b80602083010160043d0385018111156112f657505050505061130e565b61130582602001850186611251565b82955050505050505b90565b7f536d617274546f6b656e3a206f6e5472616e73666572526563656976656420665f8201527f61696c6564206f72206e6f7420696d706c656d656e7465640000000000000000602082015250565b5f61136b603883610ce2565b915061137682611311565b604082019050919050565b5f6020820190508181035f8301526113988161135f565b9050919050565b7f536d617274546f6b656e3a20696e76616c69642072657475726e2076616c75655f82015250565b5f6113d3602083610ce2565b91506113de8261139f565b602082019050919050565b5f6020820190508181035f830152611400816113c7565b9050919050565b5f60608201905061141a5f8301866110ce565b6114276020830185610e77565b6114346040830184610e77565b949350505050565b5f60208201905061144f5f8301846110ce565b92915050565b7f4e487b71000000000000000000000000000000000000000000000000000000005f52601160045260245ffd5b5f61148c82610dd3565b915061149783610dd3565b92508282019050808211156114af576114ae611455565b5b9291505056fea2646970667358221220e8f189185de5a3b56bee86c320f3de41cb61f9df741cd371e72187e45fc428bf64736f6c634300081c0033",
  "linkReferences": {},
  "deployedLinkReferences": {},
  "immutableReferences": {},
  "inputSourceName": "project/contracts/4_SmartToken.sol",
  "buildInfoId": "solc-0_8_28-559b143941ea993150ff5fdc64ba5142bcd63210"
}